{
  "_format": "hh-sol-artifact-1",
  "contractName": "ParticipantStaking",
  "sourceName": "contracts/core/ParticipantStaking.sol",
  "abi": [
    {
      "inputs": [
        {
          "internalType": "address",
          "name": "_atnToken",
          "type": "address"
        },
        {
          "internalType": "address",
          "name": "_governance",
          "type": "address"
        }
      ],
      "stateMutability": "nonpayable",
      "type": "constructor"
    },
    {
      "anonymous": false,
      "inputs": [
        {
          "indexed": true,
          "internalType": "enum AutonetLib.ParticipantRole",
          "name": "role",
          "type": "uint8"
        },
        {
          "indexed": false,
          "internalType": "uint256",
          "name": "newMinStake",
          "type": "uint256"
        }
      ],
      "name": "MinStakeUpdated",
      "type": "event"
    },
    {
      "anonymous": false,
      "inputs": [
        {
          "indexed": true,
          "internalType": "address",
          "name": "participant",
          "type": "address"
        },
        {
          "indexed": true,
          "internalType": "enum AutonetLib.ParticipantRole",
          "name": "role",
          "type": "uint8"
        },
        {
          "indexed": false,
          "internalType": "uint256",
          "name": "amount",
          "type": "uint256"
        },
        {
          "indexed": false,
          "internalType": "string",
          "name": "reason",
          "type": "string"
        }
      ],
      "name": "Slashed",
      "type": "event"
    },
    {
      "anonymous": false,
      "inputs": [
        {
          "indexed": true,
          "internalType": "address",
          "name": "slasher",
          "type": "address"
        },
        {
          "indexed": false,
          "internalType": "bool",
          "name": "authorized",
          "type": "bool"
        }
      ],
      "name": "SlasherAuthorized",
      "type": "event"
    },
    {
      "anonymous": false,
      "inputs": [
        {
          "indexed": true,
          "internalType": "address",
          "name": "participant",
          "type": "address"
        },
        {
          "indexed": true,
          "internalType": "enum AutonetLib.ParticipantRole",
          "name": "role",
          "type": "uint8"
        },
        {
          "indexed": false,
          "internalType": "uint256",
          "name": "amount",
          "type": "uint256"
        }
      ],
      "name": "Staked",
      "type": "event"
    },
    {
      "anonymous": false,
      "inputs": [
        {
          "indexed": true,
          "internalType": "address",
          "name": "participant",
          "type": "address"
        },
        {
          "indexed": false,
          "internalType": "uint256",
          "name": "unlockTime",
          "type": "uint256"
        }
      ],
      "name": "UnstakeRequested",
      "type": "event"
    },
    {
      "anonymous": false,
      "inputs": [
        {
          "indexed": true,
          "internalType": "address",
          "name": "participant",
          "type": "address"
        },
        {
          "indexed": true,
          "internalType": "enum AutonetLib.ParticipantRole",
          "name": "role",
          "type": "uint8"
        },
        {
          "indexed": false,
          "internalType": "uint256",
          "name": "amount",
          "type": "uint256"
        }
      ],
      "name": "Unstaked",
      "type": "event"
    },
    {
      "inputs": [
        {
          "internalType": "uint256",
          "name": "_amount",
          "type": "uint256"
        }
      ],
      "name": "addToStake",
      "outputs": [],
      "stateMutability": "nonpayable",
      "type": "function"
    },
    {
      "inputs": [],
      "name": "atnToken",
      "outputs": [
        {
          "internalType": "contract ATNToken",
          "name": "",
          "type": "address"
        }
      ],
      "stateMutability": "view",
      "type": "function"
    },
    {
      "inputs": [
        {
          "internalType": "address",
          "name": "",
          "type": "address"
        }
      ],
      "name": "authorizedSlashers",
      "outputs": [
        {
          "internalType": "bool",
          "name": "",
          "type": "bool"
        }
      ],
      "stateMutability": "view",
      "type": "function"
    },
    {
      "inputs": [
        {
          "internalType": "address",
          "name": "_participant",
          "type": "address"
        }
      ],
      "name": "getStake",
      "outputs": [
        {
          "components": [
            {
              "internalType": "uint256",
              "name": "amount",
              "type": "uint256"
            },
            {
              "internalType": "enum AutonetLib.ParticipantRole",
              "name": "role",
              "type": "uint8"
            },
            {
              "internalType": "uint256",
              "name": "lockupUntil",
              "type": "uint256"
            },
            {
              "internalType": "bool",
              "name": "active",
              "type": "bool"
            }
          ],
          "internalType": "struct AutonetLib.StakeInfo",
          "name": "",
          "type": "tuple"
        }
      ],
      "stateMutability": "view",
      "type": "function"
    },
    {
      "inputs": [],
      "name": "governance",
      "outputs": [
        {
          "internalType": "address",
          "name": "",
          "type": "address"
        }
      ],
      "stateMutability": "view",
      "type": "function"
    },
    {
      "inputs": [
        {
          "internalType": "address",
          "name": "_participant",
          "type": "address"
        },
        {
          "internalType": "enum AutonetLib.ParticipantRole",
          "name": "_role",
          "type": "uint8"
        }
      ],
      "name": "isActiveParticipant",
      "outputs": [
        {
          "internalType": "bool",
          "name": "",
          "type": "bool"
        }
      ],
      "stateMutability": "view",
      "type": "function"
    },
    {
      "inputs": [
        {
          "internalType": "enum AutonetLib.ParticipantRole",
          "name": "",
          "type": "uint8"
        }
      ],
      "name": "minStakeAmount",
      "outputs": [
        {
          "internalType": "uint256",
          "name": "",
          "type": "uint256"
        }
      ],
      "stateMutability": "view",
      "type": "function"
    },
    {
      "inputs": [],
      "name": "requestUnstake",
      "outputs": [],
      "stateMutability": "nonpayable",
      "type": "function"
    },
    {
      "inputs": [
        {
          "internalType": "address",
          "name": "_slasher",
          "type": "address"
        },
        {
          "internalType": "bool",
          "name": "_authorized",
          "type": "bool"
        }
      ],
      "name": "setAuthorizedSlasher",
      "outputs": [],
      "stateMutability": "nonpayable",
      "type": "function"
    },
    {
      "inputs": [
        {
          "internalType": "address",
          "name": "_newGovernance",
          "type": "address"
        }
      ],
      "name": "setGovernance",
      "outputs": [],
      "stateMutability": "nonpayable",
      "type": "function"
    },
    {
      "inputs": [
        {
          "internalType": "enum AutonetLib.ParticipantRole",
          "name": "_role",
          "type": "uint8"
        },
        {
          "internalType": "uint256",
          "name": "_duration",
          "type": "uint256"
        }
      ],
      "name": "setLockupDuration",
      "outputs": [],
      "stateMutability": "nonpayable",
      "type": "function"
    },
    {
      "inputs": [
        {
          "internalType": "enum AutonetLib.ParticipantRole",
          "name": "_role",
          "type": "uint8"
        },
        {
          "internalType": "uint256",
          "name": "_amount",
          "type": "uint256"
        }
      ],
      "name": "setMinStake",
      "outputs": [],
      "stateMutability": "nonpayable",
      "type": "function"
    },
    {
      "inputs": [
        {
          "internalType": "address",
          "name": "_participant",
          "type": "address"
        },
        {
          "internalType": "uint256",
          "name": "_amount",
          "type": "uint256"
        },
        {
          "internalType": "string",
          "name": "_reason",
          "type": "string"
        }
      ],
      "name": "slash",
      "outputs": [],
      "stateMutability": "nonpayable",
      "type": "function"
    },
    {
      "inputs": [
        {
          "internalType": "enum AutonetLib.ParticipantRole",
          "name": "_role",
          "type": "uint8"
        },
        {
          "internalType": "uint256",
          "name": "_amount",
          "type": "uint256"
        }
      ],
      "name": "stake",
      "outputs": [],
      "stateMutability": "nonpayable",
      "type": "function"
    },
    {
      "inputs": [
        {
          "internalType": "enum AutonetLib.ParticipantRole",
          "name": "",
          "type": "uint8"
        }
      ],
      "name": "stakeLockupDuration",
      "outputs": [
        {
          "internalType": "uint256",
          "name": "",
          "type": "uint256"
        }
      ],
      "stateMutability": "view",
      "type": "function"
    },
    {
      "inputs": [
        {
          "internalType": "address",
          "name": "",
          "type": "address"
        }
      ],
      "name": "stakes",
      "outputs": [
        {
          "internalType": "uint256",
          "name": "amount",
          "type": "uint256"
        },
        {
          "internalType": "enum AutonetLib.ParticipantRole",
          "name": "role",
          "type": "uint8"
        },
        {
          "internalType": "uint256",
          "name": "lockupUntil",
          "type": "uint256"
        },
        {
          "internalType": "bool",
          "name": "active",
          "type": "bool"
        }
      ],
      "stateMutability": "view",
      "type": "function"
    },
    {
      "inputs": [],
      "name": "unstake",
      "outputs": [],
      "stateMutability": "nonpayable",
      "type": "function"
    }
  ],
  "bytecode": "0x60a0604090808252346200023a5781816200124880380380916200002482856200023f565b8339810103126200023a576200003a8162000279565b906200004a602080920162000279565b6001600160a01b039283166080819052600080546001600160a01b03191694909216939093178155835163313ce56760e01b815290926004929081908390859082905afa91821562000230578492620001ec575b50620000aa826200028e565b9182606402926064840403620001c6576001855260029283835286862055620000d3816200028e565b80603202906032820403620001d95783865283835286862055620000f7816200028e565b6101f49080820291820403620001d95760038652838352868620556200011d816200028e565b6103e89080820291820403620001d9578486528383528686205562000142906200028e565b6127109080820291820403620001c65791600386949286946005621baf80985283825286862055600185525262093a808484205582526203f48083832055600382526212750090818484205582528282205560058152205551610f919081620002b782396080518181816101bc015281816102ec015281816107f60152610c150152f35b634e487b7160e01b855260118452602485fd5b634e487b7160e01b865260118552602486fd5b9080925081813d831162000228575b6200020781836200023f565b8101031262000224575160ff81168103620002245790386200009e565b8380fd5b503d620001fb565b85513d86823e3d90fd5b600080fd5b601f909101601f19168101906001600160401b038211908210176200026357604052565b634e487b7160e01b600052604160045260246000fd5b51906001600160a01b03821682036200023a57565b60ff16604d8111620002a057600a0a90565b634e487b7160e01b600052601160045260246000fdfe608060408181526004908136101561001657600080fd5b600092833560e01c90816316934fc414610d17575080632def662014610b8b57806336cb2b8214610afd5780635aa6e67514610ad5578063678b3ee2146108ea578063685d73061461078057806372b77dca146107565780637a766460146106a2578063a3304b4714610671578063ab033ea914610625578063ac92189014610543578063adde5bb6146104c8578063aed2d9081461048b578063b011fa7814610456578063dd752e55146101ef578063e8852afd146101a75763fc63958e146100df57600080fd5b346101a357826003193601126101a357338352600160205280832061010a60ff600383015416610eff565b60028101928354610160575061012960ff600161013093015416610dd4565b5442610f38565b809255519081527f828764c21e74c28710e19919735825aba966621c95cbd913f8ed65a2d298f48c60203392a280f35b606490602084519162461bcd60e51b8352820152601960248201527f556e7374616b6520616c726561647920726571756573746564000000000000006044820152fd5b8280fd5b8382346101eb57816003193601126101eb57517f00000000000000000000000000000000000000000000000000000000000000006001600160a01b03168152602090f35b5080fd5b5090346101a3576101ff36610ded565b91909260078410156104435783156104115761021a84610dbb565b5483106103d8573385526020916001835260ff60038388200154166103a657815161024481610e49565b8481528381016102548782610e9d565b838201888152606083019160018352338a5260018752858a209351845560018401905160078110156103935793600389946102e797946102b8948b9860ff8019835416911617905551600284015551151591019060ff801983541691151516179055565b84516323b872dd60e01b8152339181019182523060208301526040820192909252909283918291606090910190565b0381897f00000000000000000000000000000000000000000000000000000000000000006001600160a01b03165af1908115610389577f3cf14181ae25669a913d72411736fc5c01f538fa503e963b0b2e56bcefb3edaf93929161035291889161035c575b50610ec1565b519283523392a380f35b61037c9150843d8611610382575b6103748183610e7b565b810190610ea9565b3861034c565b503d61036a565b82513d88823e3d90fd5b634e487b7160e01b8b526021865260248bfd5b82606492519162461bcd60e51b8352820152600e60248201526d105b1c9958591e481cdd185ad95960921b6044820152fd5b906020606492519162461bcd60e51b8352820152601360248201527242656c6f77206d696e696d756d207374616b6560681b6044820152fd5b906020606492519162461bcd60e51b8352820152600c60248201526b496e76616c696420726f6c6560a01b6044820152fd5b634e487b7160e01b855260218252602485fd5b5090346101a35760203660031901126101a357359160078310156104885750610480602092610dd4565b549051908152f35b80fd5b5090346101a35760203660031901126101a35760209260ff918391906001600160a01b036104b7610d7d565b168252855220541690519015158152f35b50346101a3576104d736610ded565b9190926104ee60018060a01b038654163314610e0c565b826104f885610dbb565b55600784101561053057507f9a094a8146e0e9d24aa9249fd01491c60a0f8b776ad1e4647c35065a223db45a9160209151908152a280f35b634e487b7160e01b855260219052602484fd5b508290346101eb57806003193601126101eb5761055e610d7d565b602435906007821015610621576001600160a01b0316835260016020528183208251909361058b82610e49565b8454825260ff600381600188015416966105a9602086019889610e9d565b600281015487860152015416151594856060840152856105f2575b505060209450836105da575b5050519015158152f35b519192506105e790610dbb565b5411159083806105d0565b51919450600782101561060e57506020945081149285806105c4565b634e487b7160e01b815260218652602490fd5b8380fd5b83346104885760203660031901126104885761063f610d7d565b8154906001600160a01b03906106583383851614610e0c565b16906bffffffffffffffffffffffff60a01b1617815580f35b83346104885761069e61068336610ded565b919061069960018060a01b038554163314610e0c565b610dd4565b5580f35b8382346101eb5760203660031901126101eb57806080926106c1610d7d565b81606084516106cf81610e49565b8281528260208201528286820152015260018060a01b031681526001602052208151916106fb83610e49565b8154835260ff60018301541691610716602085019384610e9d565b61074760ff600360028401549385880194855201541693606086019415158552835195518652516020860190610d98565b51908301525115156060820152f35b5090346101a35760203660031901126101a357359160078310156104885750610480602092610dbb565b508290346101eb576020806003193601126101a357833590338452600181528284206107b260ff600383015416610eff565b60028101546108b1576107c6838254610f38565b815583516323b872dd60e01b815233878201908152306020820152604081018590528390829081906060010381897f00000000000000000000000000000000000000000000000000000000000000006001600160a01b03165af19081156108a7579161083d60019260ff94899161088a5750610ec1565b01541692600784101561087757907f3cf14181ae25669a913d72411736fc5c01f538fa503e963b0b2e56bcefb3edaf91519283523392a380f35b634e487b7160e01b855260218652602485fd5b6108a19150863d8811610382576103748183610e7b565b8a61034c565b85513d88823e3d90fd5b835162461bcd60e51b81528087018390526013602482015272556e7374616b6520696e2070726f677265737360681b6044820152606490fd5b50346101a35760603660031901126101a357610904610d7d565b60249283356044359367ffffffffffffffff93848611610ad15736602387011215610ad15785840135948511610ad15736878688010111610ad1573388528360205260ff82892054168015610abe575b15610a7c5760018060a01b031691828852600160205281882094600386019788549761098260ff8a16610eff565b875497888511610a4457848903988911610a32578881556001015460ff16966007881015610a205750869593838087946060947ff839ce7a8da56ae9599082580e136cd69b7f80ad916c4bf411a740881e1428a197610a0a9c9a519788968752806020880152860152018484013781810183018d9052601f01601f19168101030190a3610dbb565b5411610a14578280f35b60ff1916905538808280f35b634e487b7160e01b8c5260219052818bfd5b634e487b7160e01b8c5260118852828cfd5b855162461bcd60e51b81526020818a015260138185015272536c6173682065786365656473207374616b6560681b6044820152606490fd5b815162461bcd60e51b81526020818601526017818901527f4e6f7420617574686f72697a656420746f20736c6173680000000000000000006044820152606490fd5b5087546001600160a01b03163314610954565b8780fd5b8382346101eb57816003193601126101eb57905490516001600160a01b039091168152602090f35b50346101a357806003193601126101a357610b16610d7d565b906024359081151590818303610b8757610b7f6020937f07279e33951aa6ce64c70a4d6e3d46ff5995b1d4a523613765b05fd9aed2a40b9560018060a01b0390610b64828b54163314610e0c565b169687895285528288209060ff801983541691151516179055565b51908152a280f35b8580fd5b508290346101eb57816003193601126101eb57338252602060018152818320906003820192835492610bbf60ff8516610eff565b600281019081548015610cdc574210610caa57805460018201805460ff19978816909855918890559486169055859055805163a9059cbb60e01b815233878201526024810184905260ff909416938281604481897f00000000000000000000000000000000000000000000000000000000000000006001600160a01b03165af19081156103895790610c57918791610c8d5750610ec1565b600784101561087757907f9bda9a567fe5ce9bcfb637505de9a1dc9d112a34e25a8524026e3d869f95b47191519283523392a380f35b610ca49150843d8611610382576103748183610e7b565b8861034c565b825162461bcd60e51b8152808901859052600c60248201526b14dd1a5b1b081b1bd8dad95960a21b6044820152606490fd5b835162461bcd60e51b8152808a018690526015602482015274155b9cdd185ad9481b9bdd081c995c5d595cdd1959605a1b6044820152606490fd5b925050346101a35760203660031901126101a35760809281906001600160a01b03610d40610d7d565b168152600160205220805491610d7160ff60018401541660ff60036002860154950154169486526020860190610d98565b83015215156060820152f35b600435906001600160a01b0382168203610d9357565b600080fd5b906007821015610da55752565b634e487b7160e01b600052602160045260246000fd5b6007811015610da5576000526002602052604060002090565b6007811015610da5576000526003602052604060002090565b6040906003190112610d93576004356007811015610d93579060243590565b15610e1357565b60405162461bcd60e51b815260206004820152600e60248201526d4e6f7420676f7665726e616e636560901b6044820152606490fd5b6080810190811067ffffffffffffffff821117610e6557604052565b634e487b7160e01b600052604160045260246000fd5b90601f8019910116810190811067ffffffffffffffff821117610e6557604052565b6007821015610da55752565b90816020910312610d9357518015158103610d935790565b15610ec857565b60405162461bcd60e51b815260206004820152600f60248201526e151c985b9cd9995c8819985a5b1959608a1b6044820152606490fd5b15610f0657565b60405162461bcd60e51b815260206004820152600a602482015269139bdd081cdd185ad95960b21b6044820152606490fd5b91908201809211610f4557565b634e487b7160e01b600052601160045260246000fdfea26469706673582212200da9547507b41b9df98eae7e5912e203801f30225189a7d748b1220cf68845e264736f6c63430008140033",
  "linkReferences": {},
  "deployedLinkReferences": {}
}