{
  "_format": "hh-sol-artifact-1",
  "contractName": "DisputeManager",
  "sourceName": "contracts/rollup/DisputeManager.sol",
  "abi": [
    {
      "inputs": [
        {
          "internalType": "address",
          "name": "_votingToken",
          "type": "address"
        }
      ],
      "stateMutability": "nonpayable",
      "type": "constructor"
    },
    {
      "anonymous": false,
      "inputs": [
        {
          "indexed": true,
          "internalType": "uint256",
          "name": "id",
          "type": "uint256"
        },
        {
          "indexed": false,
          "internalType": "bytes32",
          "name": "contentHash",
          "type": "bytes32"
        },
        {
          "indexed": true,
          "internalType": "address",
          "name": "challenger",
          "type": "address"
        }
      ],
      "name": "DisputeCreated",
      "type": "event"
    },
    {
      "anonymous": false,
      "inputs": [
        {
          "indexed": true,
          "internalType": "uint256",
          "name": "id",
          "type": "uint256"
        },
        {
          "indexed": false,
          "internalType": "bool",
          "name": "invalidWins",
          "type": "bool"
        }
      ],
      "name": "DisputeResolved",
      "type": "event"
    },
    {
      "anonymous": false,
      "inputs": [
        {
          "indexed": true,
          "internalType": "uint256",
          "name": "id",
          "type": "uint256"
        },
        {
          "indexed": true,
          "internalType": "address",
          "name": "voter",
          "type": "address"
        },
        {
          "indexed": false,
          "internalType": "bool",
          "name": "supportInvalid",
          "type": "bool"
        },
        {
          "indexed": false,
          "internalType": "uint256",
          "name": "weight",
          "type": "uint256"
        }
      ],
      "name": "Voted",
      "type": "event"
    },
    {
      "inputs": [
        {
          "internalType": "bytes32",
          "name": "contentHash",
          "type": "bytes32"
        }
      ],
      "name": "createDispute",
      "outputs": [
        {
          "internalType": "uint256",
          "name": "disputeId",
          "type": "uint256"
        }
      ],
      "stateMutability": "nonpayable",
      "type": "function"
    },
    {
      "inputs": [
        {
          "internalType": "uint256",
          "name": "",
          "type": "uint256"
        }
      ],
      "name": "disputes",
      "outputs": [
        {
          "internalType": "bytes32",
          "name": "contentHash",
          "type": "bytes32"
        },
        {
          "internalType": "uint256",
          "name": "snapshot",
          "type": "uint256"
        },
        {
          "internalType": "uint256",
          "name": "totalVotes",
          "type": "uint256"
        },
        {
          "internalType": "uint256",
          "name": "invalidVotes",
          "type": "uint256"
        },
        {
          "internalType": "enum AutonetLib.DisputeStatus",
          "name": "status",
          "type": "uint8"
        },
        {
          "internalType": "uint256",
          "name": "createdAt",
          "type": "uint256"
        }
      ],
      "stateMutability": "view",
      "type": "function"
    },
    {
      "inputs": [
        {
          "internalType": "uint256",
          "name": "disputeId",
          "type": "uint256"
        }
      ],
      "name": "finalizeDispute",
      "outputs": [],
      "stateMutability": "nonpayable",
      "type": "function"
    },
    {
      "inputs": [
        {
          "internalType": "uint256",
          "name": "disputeId",
          "type": "uint256"
        }
      ],
      "name": "getDispute",
      "outputs": [
        {
          "components": [
            {
              "internalType": "bytes32",
              "name": "contentHash",
              "type": "bytes32"
            },
            {
              "internalType": "uint256",
              "name": "snapshot",
              "type": "uint256"
            },
            {
              "internalType": "uint256",
              "name": "totalVotes",
              "type": "uint256"
            },
            {
              "internalType": "uint256",
              "name": "invalidVotes",
              "type": "uint256"
            },
            {
              "internalType": "enum AutonetLib.DisputeStatus",
              "name": "status",
              "type": "uint8"
            },
            {
              "internalType": "uint256",
              "name": "createdAt",
              "type": "uint256"
            }
          ],
          "internalType": "struct AutonetLib.Dispute",
          "name": "",
          "type": "tuple"
        }
      ],
      "stateMutability": "view",
      "type": "function"
    },
    {
      "inputs": [
        {
          "internalType": "uint256",
          "name": "",
          "type": "uint256"
        },
        {
          "internalType": "address",
          "name": "",
          "type": "address"
        }
      ],
      "name": "hasVoted",
      "outputs": [
        {
          "internalType": "bool",
          "name": "",
          "type": "bool"
        }
      ],
      "stateMutability": "view",
      "type": "function"
    },
    {
      "inputs": [],
      "name": "nextDisputeId",
      "outputs": [
        {
          "internalType": "uint256",
          "name": "",
          "type": "uint256"
        }
      ],
      "stateMutability": "view",
      "type": "function"
    },
    {
      "inputs": [],
      "name": "quorumDenominator",
      "outputs": [
        {
          "internalType": "uint256",
          "name": "",
          "type": "uint256"
        }
      ],
      "stateMutability": "view",
      "type": "function"
    },
    {
      "inputs": [],
      "name": "quorumNumerator",
      "outputs": [
        {
          "internalType": "uint256",
          "name": "",
          "type": "uint256"
        }
      ],
      "stateMutability": "view",
      "type": "function"
    },
    {
      "inputs": [],
      "name": "supermajorityDen",
      "outputs": [
        {
          "internalType": "uint256",
          "name": "",
          "type": "uint256"
        }
      ],
      "stateMutability": "view",
      "type": "function"
    },
    {
      "inputs": [],
      "name": "supermajorityNum",
      "outputs": [
        {
          "internalType": "uint256",
          "name": "",
          "type": "uint256"
        }
      ],
      "stateMutability": "view",
      "type": "function"
    },
    {
      "inputs": [
        {
          "internalType": "uint256",
          "name": "disputeId",
          "type": "uint256"
        },
        {
          "internalType": "bool",
          "name": "supportInvalid",
          "type": "bool"
        }
      ],
      "name": "vote",
      "outputs": [],
      "stateMutability": "nonpayable",
      "type": "function"
    },
    {
      "inputs": [],
      "name": "votingPeriod",
      "outputs": [
        {
          "internalType": "uint256",
          "name": "",
          "type": "uint256"
        }
      ],
      "stateMutability": "view",
      "type": "function"
    },
    {
      "inputs": [],
      "name": "votingToken",
      "outputs": [
        {
          "internalType": "contract IVotes",
          "name": "",
          "type": "address"
        }
      ],
      "stateMutability": "view",
      "type": "function"
    }
  ],
  "bytecode": "0x60a03461009557601f610a7938819003918201601f19168301916001600160401b0383118484101761009a5780849260209460405283398101031261009557516001600160a01b03811690819003610095576107d0600055612710806001556119c86002556003556203f48060045560016005556080526040516109c890816100b1823960805181818161026701526105320152f35b600080fd5b634e487b7160e01b600052604160045260246000fdfe60806040908082526004918236101561001757600080fd5b600091823560e01c90816302a251a314610833575080630db399341461081557806329092dc01461072157806343859632146106d6578063564a565d1461066d57806356989a831461059b57806397c3d3341461057d578063a7713a7014610561578063b03401231461051e578063c1ac96c914610500578063c9d27afe146101bf578063d690be27146101a15763e3a96cbd146100b457600080fd5b3461019d57602036600319011261019d578160a082516100d381610872565b828152826020820152828482015282606082015282608082015201528235825260066020528082209181519261010884610872565b805484526001810154926020850193845260028201548186019081526003830154926060870193845260ff888201541660808801958982101561018a5760c089896101828a8a8a8a60058b8b865201549560a08801968752825197518852516020880152519086015251606085015251608084019061084f565b5160a0820152f35b634e487b7160e01b815260218a52602490fd5b5080fd5b503461019d578160031936011261019d576020906003549051908152f35b508290346104fc57806003193601126104fc57813591602490813591821515918284036104f85785875260209160068352858820948286019460ff865416848110156104e65780159081156104db575b50156104ac5761022560058801548554906108de565b42101561047b57888a5260078552878a20338b52855260ff888b205416610449576001870180548951630748d63560e31b8152338782015285810191909152977f00000000000000000000000000000000000000000000000000000000000000006001600160a01b031697919390878a6044818c5afa998a1561043f578d9a61040c575b5089156103d8579160018a928998979695948f8f908f91815260078c528181203382528c52209160ff199284848254161790556102eb600283019e8f546108de565b809e556103c2575b50825416179055895191825285820152897f7c2de587c00d75474a0c6c6fa96fd3b45dc974cd4e8a75f712bb84c950dce1b58a3393a3549187519586938492632394e7a360e21b84528301525afa9384156103b957508593610381575b505061036261036b9160015490610901565b91845490610901565b1115610375575080f35b61037e90610914565b80f35b9080929350813d83116103b2575b61039981836108a4565b810103126103ae57519061036261036b610350565b8380fd5b503d61038f565b513d87823e3d90fd5b6003016103d08582546108de565b90558f6102f3565b8a5162461bcd60e51b8152808801899052600f818801526e2737903b37ba34b733903837bbb2b960891b6044820152606490fd5b9099508781813d8311610438575b61042481836108a4565b810103126104345751988d6102a9565b8c80fd5b503d61041a565b8b513d8f823e3d90fd5b875162461bcd60e51b8152808501869052600d818501526c105b1c9958591e481d9bdd1959609a1b6044820152606490fd5b875162461bcd60e51b8152808501869052600c818501526b159bdd1a5b99c8195b99195960a21b6044820152606490fd5b875162461bcd60e51b8152808501869052600a81850152694e6f742061637469766560b01b6044820152606490fd5b60019150148b61020f565b634e487b7160e01b8b5260218552838bfd5b8680fd5b8280fd5b503461019d578160031936011261019d576020906002549051908152f35b503461019d578160031936011261019d57517f00000000000000000000000000000000000000000000000000000000000000006001600160a01b03168152602090f35b503461019d578160031936011261019d57602091549051908152f35b503461019d578160031936011261019d576020906001549051908152f35b5082346104fc5760203660031901126104fc57803591828452600660205280842060ff83820154168381101561065a57600103610627576005015482546105e1916108de565b42106105f1578361037e84610914565b906020606492519162461bcd60e51b8352820152601060248201526f159bdd1a5b99c81b9bdd08195b99195960821b6044820152fd5b815162461bcd60e51b8152602081850152600d60248201526c4e6f7420696e20766f74696e6760981b6044820152606490fd5b634e487b7160e01b865260218452602486fd5b508290346104fc5760203660031901126104fc576106cf8160c09484358152600660205220805493600182015493600283015490600560ff6003860154948601541694015495815197885260208801528601526060850152608084019061084f565b60a0820152f35b5082346104fc57816003193601126104fc576024356001600160a01b03811691908290036103ae5760209360ff92849235825260078652828220908252855220541690519015158152f35b503461019d57602036600319011261019d578235600554926000198414610802576001840160055582519061075582610872565b828252602082019043825284830181815260608401828152608085019183835260a08601944286528985526006602052888520965187555160018701555160028601555160038501555190878210156107ef5750906107ba60059260209885016108c6565b519101558151908152827f31b3e13a1621b4a4151d16d02fd2bb6749b136931ab6856ac8c31582dfff9cb3853393a351908152f35b634e487b7160e01b815260218852602490fd5b634e487b7160e01b815260118552602490fd5b503461019d578160031936011261019d576020906005549051908152f35b839085346104fc57826003193601126104fc5760209250548152f35b90600482101561085c5752565b634e487b7160e01b600052602160045260246000fd5b60c0810190811067ffffffffffffffff82111761088e57604052565b634e487b7160e01b600052604160045260246000fd5b90601f8019910116810190811067ffffffffffffffff82111761088e57604052565b90600481101561085c5760ff80198354169116179055565b919082018092116108eb57565b634e487b7160e01b600052601160045260246000fd5b818102929181159184041417156108eb57565b8060005260066020527f5a87909bff68caaaaf0b3fd9c74eeccc928832f879315e5c6fb7a73612f26c0c6020604060002061097f610959600383015460035490610901565b61096a600284015460025490610901565b11801592906109885760046003915b016108c6565b604051908152a2565b600460029161097956fea264697066735822122084876af623c293d2dfcb712e6b2d3daa4cd1b3b8cda0f3b9c00f8b0935b1c81364736f6c63430008140033",
  "linkReferences": {},
  "deployedLinkReferences": {}
}