{
  "_format": "hh-sol-artifact-1",
  "contractName": "ResultsRewards",
  "sourceName": "contracts/core/ResultsRewards.sol",
  "abi": [
    {
      "inputs": [
        {
          "internalType": "address",
          "name": "_taskContract",
          "type": "address"
        },
        {
          "internalType": "address",
          "name": "_staking",
          "type": "address"
        },
        {
          "internalType": "address",
          "name": "_governance",
          "type": "address"
        }
      ],
      "stateMutability": "nonpayable",
      "type": "constructor"
    },
    {
      "anonymous": false,
      "inputs": [
        {
          "indexed": true,
          "internalType": "address",
          "name": "coordinator",
          "type": "address"
        },
        {
          "indexed": false,
          "internalType": "uint256",
          "name": "newBondStrength",
          "type": "uint256"
        },
        {
          "indexed": false,
          "internalType": "bool",
          "name": "alignedWithConsensus",
          "type": "bool"
        }
      ],
      "name": "BondUpdated",
      "type": "event"
    },
    {
      "anonymous": false,
      "inputs": [
        {
          "indexed": true,
          "internalType": "uint256",
          "name": "taskId",
          "type": "uint256"
        },
        {
          "indexed": true,
          "internalType": "address",
          "name": "solver",
          "type": "address"
        },
        {
          "indexed": true,
          "internalType": "address",
          "name": "coordinator",
          "type": "address"
        },
        {
          "indexed": false,
          "internalType": "bool",
          "name": "isCorrect",
          "type": "bool"
        },
        {
          "indexed": false,
          "internalType": "uint256",
          "name": "score",
          "type": "uint256"
        }
      ],
      "name": "CoordinatorVoted",
      "type": "event"
    },
    {
      "anonymous": false,
      "inputs": [
        {
          "indexed": true,
          "internalType": "uint256",
          "name": "taskId",
          "type": "uint256"
        },
        {
          "indexed": true,
          "internalType": "address",
          "name": "proposer",
          "type": "address"
        },
        {
          "indexed": false,
          "internalType": "string",
          "name": "cid",
          "type": "string"
        }
      ],
      "name": "GroundTruthRevealed",
      "type": "event"
    },
    {
      "anonymous": false,
      "inputs": [
        {
          "indexed": true,
          "internalType": "uint256",
          "name": "taskId",
          "type": "uint256"
        },
        {
          "indexed": true,
          "internalType": "address",
          "name": "recipient",
          "type": "address"
        },
        {
          "indexed": false,
          "internalType": "uint256",
          "name": "amount",
          "type": "uint256"
        },
        {
          "indexed": false,
          "internalType": "string",
          "name": "rewardType",
          "type": "string"
        }
      ],
      "name": "RewardsDistributed",
      "type": "event"
    },
    {
      "anonymous": false,
      "inputs": [
        {
          "indexed": true,
          "internalType": "uint256",
          "name": "taskId",
          "type": "uint256"
        },
        {
          "indexed": true,
          "internalType": "address",
          "name": "solver",
          "type": "address"
        },
        {
          "indexed": false,
          "internalType": "string",
          "name": "cid",
          "type": "string"
        }
      ],
      "name": "SolutionRevealed",
      "type": "event"
    },
    {
      "anonymous": false,
      "inputs": [
        {
          "indexed": true,
          "internalType": "uint256",
          "name": "taskId",
          "type": "uint256"
        },
        {
          "indexed": true,
          "internalType": "address",
          "name": "coordinator",
          "type": "address"
        },
        {
          "indexed": false,
          "internalType": "bool",
          "name": "correct",
          "type": "bool"
        },
        {
          "indexed": false,
          "internalType": "uint256",
          "name": "score",
          "type": "uint256"
        }
      ],
      "name": "VerificationSubmitted",
      "type": "event"
    },
    {
      "anonymous": false,
      "inputs": [
        {
          "indexed": true,
          "internalType": "uint256",
          "name": "taskId",
          "type": "uint256"
        },
        {
          "indexed": true,
          "internalType": "address",
          "name": "coordinator",
          "type": "address"
        },
        {
          "indexed": false,
          "internalType": "uint256",
          "name": "originalScore",
          "type": "uint256"
        },
        {
          "indexed": false,
          "internalType": "uint256",
          "name": "clippedScore",
          "type": "uint256"
        }
      ],
      "name": "VoteClipped",
      "type": "event"
    },
    {
      "anonymous": false,
      "inputs": [
        {
          "indexed": true,
          "internalType": "uint256",
          "name": "taskId",
          "type": "uint256"
        },
        {
          "indexed": true,
          "internalType": "address",
          "name": "solver",
          "type": "address"
        },
        {
          "indexed": false,
          "internalType": "bool",
          "name": "consensusCorrect",
          "type": "bool"
        },
        {
          "indexed": false,
          "internalType": "uint256",
          "name": "consensusScore",
          "type": "uint256"
        }
      ],
      "name": "YumaConsensusReached",
      "type": "event"
    },
    {
      "inputs": [],
      "name": "BOND_MULTIPLIER_MAX",
      "outputs": [
        {
          "internalType": "uint256",
          "name": "",
          "type": "uint256"
        }
      ],
      "stateMutability": "view",
      "type": "function"
    },
    {
      "inputs": [],
      "name": "CLIP_THRESHOLD_BPS",
      "outputs": [
        {
          "internalType": "uint256",
          "name": "",
          "type": "uint256"
        }
      ],
      "stateMutability": "view",
      "type": "function"
    },
    {
      "inputs": [],
      "name": "EMA_DECAY",
      "outputs": [
        {
          "internalType": "uint256",
          "name": "",
          "type": "uint256"
        }
      ],
      "stateMutability": "view",
      "type": "function"
    },
    {
      "inputs": [],
      "name": "MIN_COORDINATORS",
      "outputs": [
        {
          "internalType": "uint256",
          "name": "",
          "type": "uint256"
        }
      ],
      "stateMutability": "view",
      "type": "function"
    },
    {
      "inputs": [],
      "name": "VOTING_PERIOD_BLOCKS",
      "outputs": [
        {
          "internalType": "uint256",
          "name": "",
          "type": "uint256"
        }
      ],
      "stateMutability": "view",
      "type": "function"
    },
    {
      "inputs": [
        {
          "internalType": "uint256",
          "name": "",
          "type": "uint256"
        },
        {
          "internalType": "address",
          "name": "",
          "type": "address"
        }
      ],
      "name": "consensusResults",
      "outputs": [
        {
          "internalType": "uint256",
          "name": "taskId",
          "type": "uint256"
        },
        {
          "internalType": "address",
          "name": "solver",
          "type": "address"
        },
        {
          "internalType": "bool",
          "name": "consensusCorrect",
          "type": "bool"
        },
        {
          "internalType": "uint256",
          "name": "consensusScore",
          "type": "uint256"
        },
        {
          "internalType": "uint256",
          "name": "totalStake",
          "type": "uint256"
        },
        {
          "internalType": "uint256",
          "name": "correctStake",
          "type": "uint256"
        },
        {
          "internalType": "uint256",
          "name": "clippedVotes",
          "type": "uint256"
        },
        {
          "internalType": "bool",
          "name": "finalized",
          "type": "bool"
        }
      ],
      "stateMutability": "view",
      "type": "function"
    },
    {
      "inputs": [
        {
          "internalType": "address",
          "name": "",
          "type": "address"
        }
      ],
      "name": "coordinatorBonds",
      "outputs": [
        {
          "internalType": "uint256",
          "name": "emaBondStrength",
          "type": "uint256"
        },
        {
          "internalType": "uint256",
          "name": "totalVotes",
          "type": "uint256"
        },
        {
          "internalType": "uint256",
          "name": "correctVotes",
          "type": "uint256"
        },
        {
          "internalType": "uint256",
          "name": "lastUpdateBlock",
          "type": "uint256"
        }
      ],
      "stateMutability": "view",
      "type": "function"
    },
    {
      "inputs": [
        {
          "internalType": "uint256",
          "name": "_taskId",
          "type": "uint256"
        },
        {
          "internalType": "address",
          "name": "_solver",
          "type": "address"
        }
      ],
      "name": "finalizeVoting",
      "outputs": [],
      "stateMutability": "nonpayable",
      "type": "function"
    },
    {
      "inputs": [
        {
          "internalType": "uint256",
          "name": "_taskId",
          "type": "uint256"
        },
        {
          "internalType": "address",
          "name": "_solver",
          "type": "address"
        }
      ],
      "name": "getConsensusResult",
      "outputs": [
        {
          "components": [
            {
              "internalType": "uint256",
              "name": "taskId",
              "type": "uint256"
            },
            {
              "internalType": "address",
              "name": "solver",
              "type": "address"
            },
            {
              "internalType": "bool",
              "name": "consensusCorrect",
              "type": "bool"
            },
            {
              "internalType": "uint256",
              "name": "consensusScore",
              "type": "uint256"
            },
            {
              "internalType": "uint256",
              "name": "totalStake",
              "type": "uint256"
            },
            {
              "internalType": "uint256",
              "name": "correctStake",
              "type": "uint256"
            },
            {
              "internalType": "uint256",
              "name": "clippedVotes",
              "type": "uint256"
            },
            {
              "internalType": "bool",
              "name": "finalized",
              "type": "bool"
            }
          ],
          "internalType": "struct AutonetLib.YumaConsensusResult",
          "name": "",
          "type": "tuple"
        }
      ],
      "stateMutability": "view",
      "type": "function"
    },
    {
      "inputs": [
        {
          "internalType": "address",
          "name": "_coordinator",
          "type": "address"
        }
      ],
      "name": "getCoordinatorBond",
      "outputs": [
        {
          "components": [
            {
              "internalType": "uint256",
              "name": "emaBondStrength",
              "type": "uint256"
            },
            {
              "internalType": "uint256",
              "name": "totalVotes",
              "type": "uint256"
            },
            {
              "internalType": "uint256",
              "name": "correctVotes",
              "type": "uint256"
            },
            {
              "internalType": "uint256",
              "name": "lastUpdateBlock",
              "type": "uint256"
            }
          ],
          "internalType": "struct AutonetLib.CoordinatorBond",
          "name": "",
          "type": "tuple"
        }
      ],
      "stateMutability": "view",
      "type": "function"
    },
    {
      "inputs": [
        {
          "internalType": "uint256",
          "name": "_taskId",
          "type": "uint256"
        },
        {
          "internalType": "address",
          "name": "_solver",
          "type": "address"
        }
      ],
      "name": "getVoteCount",
      "outputs": [
        {
          "internalType": "uint256",
          "name": "",
          "type": "uint256"
        }
      ],
      "stateMutability": "view",
      "type": "function"
    },
    {
      "inputs": [
        {
          "internalType": "uint256",
          "name": "_taskId",
          "type": "uint256"
        },
        {
          "internalType": "address",
          "name": "_solver",
          "type": "address"
        }
      ],
      "name": "getVotes",
      "outputs": [
        {
          "components": [
            {
              "internalType": "address",
              "name": "coordinator",
              "type": "address"
            },
            {
              "internalType": "bool",
              "name": "isCorrect",
              "type": "bool"
            },
            {
              "internalType": "uint256",
              "name": "score",
              "type": "uint256"
            },
            {
              "internalType": "uint256",
              "name": "stake",
              "type": "uint256"
            },
            {
              "internalType": "uint256",
              "name": "voteBlock",
              "type": "uint256"
            },
            {
              "internalType": "bytes32",
              "name": "reportHash",
              "type": "bytes32"
            }
          ],
          "internalType": "struct AutonetLib.CoordinatorVote[]",
          "name": "",
          "type": "tuple[]"
        }
      ],
      "stateMutability": "view",
      "type": "function"
    },
    {
      "inputs": [],
      "name": "governance",
      "outputs": [
        {
          "internalType": "address",
          "name": "",
          "type": "address"
        }
      ],
      "stateMutability": "view",
      "type": "function"
    },
    {
      "inputs": [
        {
          "internalType": "uint256",
          "name": "_taskId",
          "type": "uint256"
        },
        {
          "internalType": "address",
          "name": "_solver",
          "type": "address"
        }
      ],
      "name": "isVotingOpen",
      "outputs": [
        {
          "internalType": "bool",
          "name": "",
          "type": "bool"
        }
      ],
      "stateMutability": "view",
      "type": "function"
    },
    {
      "inputs": [],
      "name": "projectContract",
      "outputs": [
        {
          "internalType": "contract Project",
          "name": "",
          "type": "address"
        }
      ],
      "stateMutability": "view",
      "type": "function"
    },
    {
      "inputs": [
        {
          "internalType": "uint256",
          "name": "_taskId",
          "type": "uint256"
        },
        {
          "internalType": "string",
          "name": "_cid",
          "type": "string"
        }
      ],
      "name": "revealGroundTruth",
      "outputs": [],
      "stateMutability": "nonpayable",
      "type": "function"
    },
    {
      "inputs": [
        {
          "internalType": "uint256",
          "name": "_taskId",
          "type": "uint256"
        },
        {
          "internalType": "string",
          "name": "_cid",
          "type": "string"
        }
      ],
      "name": "revealSolution",
      "outputs": [],
      "stateMutability": "nonpayable",
      "type": "function"
    },
    {
      "inputs": [
        {
          "internalType": "uint256",
          "name": "",
          "type": "uint256"
        },
        {
          "internalType": "address",
          "name": "",
          "type": "address"
        }
      ],
      "name": "revealedGroundTruths",
      "outputs": [
        {
          "internalType": "string",
          "name": "",
          "type": "string"
        }
      ],
      "stateMutability": "view",
      "type": "function"
    },
    {
      "inputs": [
        {
          "internalType": "uint256",
          "name": "",
          "type": "uint256"
        },
        {
          "internalType": "address",
          "name": "",
          "type": "address"
        }
      ],
      "name": "revealedSolutions",
      "outputs": [
        {
          "internalType": "string",
          "name": "",
          "type": "string"
        }
      ],
      "stateMutability": "view",
      "type": "function"
    },
    {
      "inputs": [
        {
          "internalType": "uint256",
          "name": "",
          "type": "uint256"
        }
      ],
      "name": "rewardsProcessed",
      "outputs": [
        {
          "internalType": "bool",
          "name": "",
          "type": "bool"
        }
      ],
      "stateMutability": "view",
      "type": "function"
    },
    {
      "inputs": [
        {
          "internalType": "address",
          "name": "_project",
          "type": "address"
        }
      ],
      "name": "setProjectContract",
      "outputs": [],
      "stateMutability": "nonpayable",
      "type": "function"
    },
    {
      "inputs": [],
      "name": "staking",
      "outputs": [
        {
          "internalType": "contract ParticipantStaking",
          "name": "",
          "type": "address"
        }
      ],
      "stateMutability": "view",
      "type": "function"
    },
    {
      "inputs": [
        {
          "internalType": "uint256",
          "name": "_taskId",
          "type": "uint256"
        },
        {
          "internalType": "address",
          "name": "_solver",
          "type": "address"
        },
        {
          "internalType": "bool",
          "name": "_isCorrect",
          "type": "bool"
        },
        {
          "internalType": "uint256",
          "name": "_score",
          "type": "uint256"
        },
        {
          "internalType": "string",
          "name": "_reportCid",
          "type": "string"
        }
      ],
      "name": "submitVerification",
      "outputs": [],
      "stateMutability": "nonpayable",
      "type": "function"
    },
    {
      "inputs": [
        {
          "internalType": "uint256",
          "name": "_taskId",
          "type": "uint256"
        },
        {
          "internalType": "address",
          "name": "_solver",
          "type": "address"
        },
        {
          "internalType": "bool",
          "name": "_isCorrect",
          "type": "bool"
        },
        {
          "internalType": "uint256",
          "name": "_score",
          "type": "uint256"
        },
        {
          "internalType": "string",
          "name": "_reportCid",
          "type": "string"
        }
      ],
      "name": "submitVote",
      "outputs": [],
      "stateMutability": "nonpayable",
      "type": "function"
    },
    {
      "inputs": [],
      "name": "taskContract",
      "outputs": [
        {
          "internalType": "contract TaskContract",
          "name": "",
          "type": "address"
        }
      ],
      "stateMutability": "view",
      "type": "function"
    },
    {
      "inputs": [
        {
          "internalType": "uint256",
          "name": "",
          "type": "uint256"
        },
        {
          "internalType": "address",
          "name": "",
          "type": "address"
        }
      ],
      "name": "verificationReports",
      "outputs": [
        {
          "internalType": "address",
          "name": "coordinator",
          "type": "address"
        },
        {
          "internalType": "bool",
          "name": "isCorrect",
          "type": "bool"
        },
        {
          "internalType": "uint256",
          "name": "score",
          "type": "uint256"
        },
        {
          "internalType": "bytes32",
          "name": "supportingDataHash",
          "type": "bytes32"
        },
        {
          "internalType": "uint256",
          "name": "verificationBlock",
          "type": "uint256"
        }
      ],
      "stateMutability": "view",
      "type": "function"
    },
    {
      "inputs": [
        {
          "internalType": "uint256",
          "name": "",
          "type": "uint256"
        },
        {
          "internalType": "address",
          "name": "",
          "type": "address"
        },
        {
          "internalType": "uint256",
          "name": "",
          "type": "uint256"
        }
      ],
      "name": "votes",
      "outputs": [
        {
          "internalType": "address",
          "name": "coordinator",
          "type": "address"
        },
        {
          "internalType": "bool",
          "name": "isCorrect",
          "type": "bool"
        },
        {
          "internalType": "uint256",
          "name": "score",
          "type": "uint256"
        },
        {
          "internalType": "uint256",
          "name": "stake",
          "type": "uint256"
        },
        {
          "internalType": "uint256",
          "name": "voteBlock",
          "type": "uint256"
        },
        {
          "internalType": "bytes32",
          "name": "reportHash",
          "type": "bytes32"
        }
      ],
      "stateMutability": "view",
      "type": "function"
    },
    {
      "inputs": [
        {
          "internalType": "uint256",
          "name": "",
          "type": "uint256"
        },
        {
          "internalType": "address",
          "name": "",
          "type": "address"
        }
      ],
      "name": "votingStartBlock",
      "outputs": [
        {
          "internalType": "uint256",
          "name": "",
          "type": "uint256"
        }
      ],
      "stateMutability": "view",
      "type": "function"
    }
  ],
  "bytecode": "0x60c0346200012b57601f620030ea38819003918201601f19168301916001600160401b0383118484101762000130578084926060946040528339810103126200012b576200004d8162000146565b620000696040620000616020850162000146565b930162000146565b6001600160a01b0391821660805291811660a052600180546001600160a01b03191691909216179055604051612f8e90816200015c8239608051818181610315015281816104a1015281816104ff015281816105ac0152818161066b015281816106c001528181610acb015281816110c001528181611120015281816111d2015281816113f10152818161144501528181611a96015281816124e401526127d8015260a0518181816102bd01528181611a3c01528181611bb001526124170152f35b600080fd5b634e487b7160e01b600052604160045260246000fd5b51906001600160a01b03821682036200012b5756fe60a080604052600436101561001357600080fd5b600060805260003560e01c90816304e393a4146129035750806324848df6146128d057806326b88537146128b157806326c965cd146128075780633b70aebc146127c0578063413a1f67146124af5780634270267c146124655780634625541e146124465780634cf088d9146123ff5780634dc5b7c01461235e5780635aa6e6751461233357806368197360146121d7578063684625d11461209e57806378310bca14611ffd5780638169bb7314611fb3578063a05bc09a14611f56578063a29dfff314611f38578063ab42ca84146119fd578063aed89fed146119d4578063b2599dd514610de5578063b62a75f214610dc6578063c2412d7314610d7c578063c356040814610a9c578063db8d61c214610282578063df5f7bb114610252578063e83b0572146101d9578063ed3e32f41461017f5763f597e9441461015857600080fd5b34610179576080518060031936011261017657602060405160028152f35b80fd5b60805180fd5b346101795760403660031901126101795761019861299f565b6004356080515260026020526040608051209060018060a01b03166000526020526101d56101c96040600020612b5a565b60405191829182612c00565b0390f35b346101795760403660031901126101795760a06101f461299f565b600435608051526009602052604060805120600180841b038092166000526020526040600020805490600181015460ff60036002840154930154936040519581168652861c1615156020850152604084015260608301526080820152f35b3461017957604036600319011261017957602061027861027061299f565b600435612ee4565b6040519015158152f35b346101795761029036612a47565b604051630ac9218960e41b8152336004820152600360248201529394936020816044816001600160a01b037f0000000000000000000000000000000000000000000000000000000000000000165afa80156107105760805190610a61575b6102f89150612d73565b604051630496071960e21b815260048101879052610100816024817f00000000000000000000000000000000000000000000000000000000000000006001600160a01b03165afa9081156107105760805191610a40575b5060c0810151600c811015610a2857600414908115610a0e575b5061037390612db8565b8560805152600360205260406080512060018060a01b0385166000526020526103aa6103a3604060002054612a9a565b1515612e04565b6103cf6020604051838194838301968737810160805183820152038084520182612b39565b519020604051908160a08101106001600160401b0360a0840111176109f85760a0820160405233825284151560208301528260408301526060820152436080820152846080515260096020526080519060408220336000526020526003608060406000209260018060a01b038151166bffffffffffffffffffffffff60a01b85541617845561047c60208201511515859081549060ff60a01b90151560a01b169060ff60a01b1916179055565b6040810151600185015560608101516002850155015191015583156109f0576007905b7f00000000000000000000000000000000000000000000000000000000000000006001600160a01b03163b1561017657506040519063ab9b681160e01b825281806104f1608051938960048401612d0f565b038160805160018060a01b037f0000000000000000000000000000000000000000000000000000000000000000165af18015610710576109db575b50837f5c68cdca6bc79311a6c96f19be0e6c54a152bedec623da520fcc181dab58493d6040518061056e33958883602090939291936040810194151581520152565b0390a38260805152600860205261058e60ff604060805120541615612ea4565b604051630496071960e21b81526004810184905291610100836024817f00000000000000000000000000000000000000000000000000000000000000006001600160a01b03165afa92831561071057608051936109a8575b5060e0830151906064602060018060a01b0360805154166040519283809263ab6e518760e01b8252876004830152336024830152670de0b6b3a76400006044830152608051905af1908115610710576080519161096e575b50610921575b61071d575b50506080805183905260086020525160408120805460ff1916600117905590507f00000000000000000000000000000000000000000000000000000000000000006001600160a01b03163b15610176575060405163ab9b681160e01b815260048101919091526009602482015260805181604481837f00000000000000000000000000000000000000000000000000000000000000006001600160a01b03165af18015610710576106fb575b60805180f35b61070490612aef565b60805180156106f55780fd5b6040513d608051823e3d90fd5b6080805154848201805160405163ab6e518760e01b8152600481018690526001600160a01b03878116602483015260448201929092529351919593926020928492606492849291165af18015610710578691608051916108e0575b50936107dc9461088d575b5050608051546040858101805160609097018051925163ab6e518760e01b815260048101969096526001600160a01b03978816602487015260448601929092529095939490936020935085921690829081906064820190565b0391608051905af1801561071057849260805191610851575b5015610649575191516040805191825260208201819052600e908201526d141c9bdc1bdcd95c94995dd85c9960921b60608201526001600160a01b0390921691600080516020612f3983398151915290608090a3818181610649565b9250506020823d602011610885575b8161086d60209383612b39565b810103126101795761087f8492612d66565b856107f5565b3d9150610860565b516040805191825260208201819052600c908201526b14dbdb1d995c94995dd85c9960a21b60608201526001600160a01b039290921691600080516020612f3983398151915290608090a3848481610783565b9150506020813d602011610919575b816108fc60209383612b39565b81010312610179576107dc936109128792612d66565b9094610778565b3d91506108ef565b604051670de0b6b3a7640000815260406020820152600e60408201526d436f6f7264696e61746f7246656560901b606082015285600080516020612f3983398151915260803393a3610644565b90506020813d6020116109a0575b8161098960209383612b39565b810103126101795761099a90612d66565b8661063e565b3d915061097c565b6109cd9193506101003d610100116109d4575b6109c58183612b39565b810190612c5d565b91846105e6565b503d6109bb565b6109e490612aef565b608051801561052c5780fd5b60089061049f565b634e487b7160e01b600052604160045260246000fd5b60c091500151600c811015610a2857600514610373610369565b634e487b7160e01b6080515260216004526024608051fd5b610a5b91506101003d610100116109d4576109c58183612b39565b8761034f565b506020813d602011610a94575b81610a7b60209383612b39565b8101031261017957610a8f6102f891612d66565b6102ee565b3d9150610a6e565b3461017957610aaa366129e2565b604051630496071960e21b8152600481018490529192916001600160a01b037f000000000000000000000000000000000000000000000000000000000000000081169161010091908281602481875afa9283156107105760805193610d5d575b50506040820151163303610d2957610b51604051916020838180950190878a8337610b4583828a810160805183820152038084520182612b39565b51902091015114612cd4565b83608051526002815260805190604082203360005281526040600020916001600160401b038511610d1257508390610b898354612a9a565b601f8111610cbd575b5060805190601f8311600114610c55575060805191610c4a575b508360011b906000198560031b1c19161790555b803b15610179576040519063ab9b681160e01b8252836004830152600560248301528160448160805180945af1801561071057610c35575b50610c2c7f823b506add56db5122c2285a4ac807f90eee3d7ba34d8f408b5982487ecb8e8f91604051918291339683612d3e565b0390a360805180f35b610c3e90612aef565b6080518015610bf85780fd5b905085013586610bac565b8382526080518181209391601f19831691905b828210610ca057505010610c86575b5050600183811b019055610bc0565b860135600019600386901b60f8161c191690558580610c77565b80929350600185968293968d013581550195019301879291610c68565b9091508260805152608051828120601f870160051c810192848810610d08575b90601f88959493920160051c01915b828110610cfa575050610b92565b818155879450600101610cec565b9092508290610cdd565b634e487b7160e01b90526041600452608051602490fd5b60405162461bcd60e51b815260206004820152600c60248201526b2737ba10383937b837b9b2b960a11b6044820152606490fd5b610d74929350803d106109d4576109c58183612b39565b908680610b0a565b3461017957604036600319011261017957610d9561299f565b6004356080515260036020526040608051209060018060a01b03166000526020526101d56101c96040600020612b5a565b3461017957608051806003193601126101765760206040516103848152f35b3461017957604036600319011261017957610dfe61299f565b60043560805152600560205260406080512060018060a01b03821660005260205260406000209060ff60068301541661199b57600435608051526006602052608051916040832060018060a01b0383166000526020526040600020549260043590526004602052608051926040842060018060a01b0384166000526020526040600020936064820180921161108157504311801561198f575b156119545782546001811061191a57608051928392849285805b82811061187c5750608051908690811561187457610ecf9250612e77565b905b60805191829183915b8a8284106116cb5750506080519391505081156116c357610efb9250612e77565b945b6004358255600180830180546001600160a81b0319166001600160a01b038616179187901c861160a01b60ff60a01b1691909117905585600283015584600383015583600483015560058201556006600160ff198284015416179101556080515b85548110156110a657610f718187612a15565b50546001600160a01b031690610f878188612a15565b5060ff8660011c8611915460a01c161515149180608051526007602052608051604081209084600014611098576001600160401b03670de0b6b3a76400005b169180549561038492838881020488036110815750606484810204840361106b576103e8611020604094611051997fbbf1df4feb244f23530cf75e562a9d524c08ad411ed404815e5773e6c4c5047a976064029102612e48565b049182815581600182016110348154612e55565b9055611056575b60034391015582519182526020820152a2612e55565b610f5e565b600281016110648154612e55565b905561103b565b634e487b7160e01b600052601160045260246000fd5b634e487b7160e01b90526011600452608051602490fd5b6001600160401b0381610fc6565b509391906080518260011c82116000146116bb576007905b7f00000000000000000000000000000000000000000000000000000000000000006001600160a01b03163b1561017657506040519063ab9b681160e01b825281806111126080519360043560048401612d0f565b038160805160018060a01b037f0000000000000000000000000000000000000000000000000000000000000000165af18015610710576116a6575b5060408051600184901c83118152602081018690526001600160a01b03871691600435917fb21de302a3e3a5fae97494b27cd248568142fd0181573ab91277b8ad6620b9e69190a36004356080515260086020526111b460ff604060805120541615612ea4565b604051630496071960e21b81526004803590820152610100816024817f00000000000000000000000000000000000000000000000000000000000000006001600160a01b03165afa9081156107105760805191611685575b5060e0810151956080515b85548110156113bd5761122a8187612a15565b50546001600160a01b0316906112408188612a15565b5060ff8760011c8711915460a01c16151514611266575b6112619150612e55565b611217565b816080515260076020526080519160408320546101f49081810291818304149015171561106b57670de0b6b3a76400008091046103e80193846103e8116110815750808481020484036113a557608080515460405163ab6e518760e01b8152600481018e90526001600160a01b0385811660248301526103e8888602046044830152925190969260209288926064928492165af18015610710576080519061136a575b611261955061131b575b505050611257565b6103e890604051920204815260406020820152600e60408201526d436f6f7264696e61746f7246656560901b6060820152600080516020612f39833981519152608060043592a3898080611313565b506020853d60201161139d575b8161138460209383612b39565b810103126101795761139861126195612d66565b611309565b3d9150611377565b634e487b7160e01b6080515260116004526024608051fd5b50935094939160011c1061147f575b505060808051600435905260086020525160408120805460ff191660011790559150507f00000000000000000000000000000000000000000000000000000000000000006001600160a01b03163b156101765760405163ab9b681160e01b815260048035908201526009602482015260805181604481837f00000000000000000000000000000000000000000000000000000000000000006001600160a01b03165af18015610710576106fb5760805180f35b61148f6064916080860151612e64565b608080515460405163ab6e518760e01b8152600481018790526001600160a01b0386811660248301529490930460448401819052915191936020928492606492849291165af1908115610710576080519161164b575b506115f6575b505060808051546040848101805160609096018051925163ab6e518760e01b815260048101969096526001600160a01b03968716602487015260448601929092529251909492939260209284926064928492165af190811561071057608051916115bc575b5061155d575b80806113cc565b60018060a01b039051169051600080516020612f39833981519152604051806115b26004359482608091815260406020820152600e60408201526d141c9bdc1bdcd95c94995dd85c9960921b60608201520190565b0390a38080611556565b90506020813d6020116115ee575b816115d760209383612b39565b81010312610179576115e890612d66565b83611550565b3d91506115ca565b6040805191825260208201819052600c908201526b14dbdb1d995c94995dd85c9960a21b60608201526001600160a01b03919091169060043590600080516020612f3983398151915290608090a382806114eb565b90506020813d60201161167d575b8161166660209383612b39565b810103126101795761167790612d66565b856114e5565b3d9150611659565b6116a091506101003d610100116109d4576109c58183612b39565b8661120c565b6116af90612aef565b608051801561114d5780fd5b6008906110be565b505094610efd565b90919293999460026116ec8660016116e38287612a15565b50015494612a15565b500154838311928315611865576117038582612e97565b60805180871561185c57506127109182810292818404149015171561108157508561172d91612e77565b935b6107d080951160001461183c5760805190156117e8575084848102048414851517156113a5576117cf6117db938f846117c9916117d5956117848d61177e8d6127106117e19e82020490612e48565b93612a15565b5060018060a01b03905416906040519081528260208201527fb8ad55529ccf22775d8d1dec27e80671d9a6d3b339c333ddd0f4a617645c0391604060043592a3612e64565b90612e48565b97612e55565b9b612e48565b93612e55565b9190610eda565b85858196939496020482148615171561108157506117cf6117db938f866117c9916117e198966117848d8c6127106117d59a820204608051918181116000146118355761177e9250612e97565b505061177e565b506117e193506117db926117c983999e9961185693612e64565b96612e48565b9150509361172f565b61186f8186612e97565b611703565b505090610ed1565b908861189961188b8483612a15565b50986002809a015490612e48565b9760ff6118a68584612a15565b505460a01c166118ea575b916117c9826118e5946118d68760016118cd826118df99612a15565b50015493612a15565b50015490612e64565b91612e55565b610eb1565b96916117c98261190e6118e5958b611905896118df98612a15565b50015490612e48565b999294509250506118b1565b60405162461bcd60e51b8152602060048201526012602482015271139bc81d9bdd195cc81cdd589b5a5d1d195960721b6044820152606490fd5b60405162461bcd60e51b815260206004820152601360248201527210d85b9b9bdd08199a5b985b1a5e99481e595d606a1b6044820152606490fd5b50600283541015610e97565b60405162461bcd60e51b8152602060048201526011602482015270105b1c9958591e48199a5b985b1a5e9959607a1b6044820152606490fd5b34610179576080518060031936011261017657546040516001600160a01b039091168152602090f35b3461017957611a0b36612a47565b604051630ac9218960e41b815233600482015260036024820152949593949092906020816044816001600160a01b037f0000000000000000000000000000000000000000000000000000000000000000165afa80156107105760805190611efd575b611a779150612d73565b604051630496071960e21b8152600481018590526101009081816024817f00000000000000000000000000000000000000000000000000000000000000006001600160a01b03165afa9081156107105760c09260805192611ee0575b5050018051600c811015610a28576004148015611ec9575b611af59150612db8565b8360805152600360205260406080512060018060a01b038716600052602052611b256103a3604060002054612a9a565b8360805152600660205260406080512060018060a01b0387166000526020526040600020548015611e8f57606481018091116113a5574311611e545783608051526004602052608051926040842060018060a01b038816600052602052604060002093928454935b848110611df657506040516303d3b32360e51b81523360048201526080816024817f00000000000000000000000000000000000000000000000000000000000000006001600160a01b03165afa9081156107105760805191611d85575b50606081015115611d4d575191611c1c6020604051838194838301968737810160805183820152038084520182612b39565b5190209260405193611c2d85612b02565b33855260208501918815158352604086019685885260608701948552608087019143835260a0880193845268010000000000000000811015611d3557611c7891600182018155612a15565b949094611d1e579551845493516001600160a81b03199094166001600160a01b03919091161792151560a01b60ff60a01b169290921783557f82971d61aad387586e399ac079fc34f4a4302a529b45aebb54eaf879c4abb35295611d15956004939151600186015551600285015551600384015551910155604080519515158652602086019190915233956001600160a01b031694918291820190565b0390a460805180f35b634e487b7160e01b60805152602460805180600452fd5b634e487b7160e01b6080515260416004526024608051fd5b60405162461bcd60e51b815260206004820152601060248201526f5374616b65206e6f742061637469766560801b6044820152606490fd5b90506080813d608011611dee575b81611da060809383612b39565b810103126101795760405190611db582612ad4565b805182526020810151600781101561017957611de39160609160208501526040810151604085015201612d66565b606082015289611bea565b3d9150611d93565b611e008187612a15565b50546001600160a01b03163314611e1f57611e1a90612e55565b611b8d565b60405162461bcd60e51b815260206004820152600d60248201526c105b1c9958591e481d9bdd1959609a1b6044820152606490fd5b60405162461bcd60e51b8152602060048201526013602482015272159bdd1a5b99c81c195c9a5bd908195b991959606a1b6044820152606490fd5b60405162461bcd60e51b8152602060048201526012602482015271159bdd1a5b99c81b9bdd081cdd185c9d195960721b6044820152606490fd5b5051600c811015610a28576005611af59114611aeb565b611ef69250803d106109d4576109c58183612b39565b8880611ad3565b506020813d602011611f30575b81611f1760209383612b39565b8101031261017957611f2b611a7791612d66565b611a6d565b3d9150611f0a565b34610179576080518060031936011261017657602060405160648152f35b34610179576020366003190112610179576001600160a01b03611f77612989565b16608051526007602052608060408151208054906001810154906003600282015491015491604051938452602084015260408301526060820152f35b3461017957604036600319011261017957611fcc61299f565b6004356080515260046020526040608051209060018060a01b03166000526020526020604060002054604051908152f35b346101795760603660031901126101795761201661299f565b604435906004356080515260046020526080516040812060018060a01b038093166000526020526040600020908154841015610176575060c09261205991612a15565b50805490600181015460028201549060ff6004600385015494015494604051968116875260a01c161515602086015260408501526060840152608083015260a0820152f35b34610179576040366003190112610179576101006120ba61299f565b6040516120c681612b1d565b6080518152608051602082015260805160408201526080516060820152608051608082015260805160a082015260805160c082015260e060805191015260043560805152600560205260406080512060018060a01b0380921660005260205260406000206040519061213782612b1d565b8054928383526001820154906020840191818116835260ff604086019160a01c1615158152600284015490606086019182526003850154926080870193845260048601549460a0880195865260e060ff600660058a01549960c08c019a8b52015416980197151588526040519889525116602088015251151560408701525160608601525160808501525160a08401525160c083015251151560e0820152f35b34610179576040366003190112610179576121f061299f565b600435608051526020600481526080516040812060018060a01b0380941660005282526040600020908154906001600160401b038211610d125750916040519260056122408383831b0186612b39565b81855282850180946080515260805184812090915b8483106122d35750505050506040519281840190828552518091526040840192916080515b8281106122875785850386f35b83518051881686528083015115158684015260408082015190870152606080820151908701526080808201519087015260a0908101519086015260c0909401939281019260010161227a565b838660019260409a989a516122e781612b02565b85548d8116825260ff60a091821c161515848301528587015460408301526002870154606083015260038701546080830152600487015490820152815201920192019190969496612255565b346101795760805180600319360112610176576001546040516001600160a01b039091168152602090f35b346101795760403660031901126101795761010061237a61299f565b60043560805152600560205260406080512060018060a01b038092166000526020526040600020908154916001810154600282015460038301549060ff600485015493816006600588015497015416966040519889528116602089015260a01c16151560408701526060860152608085015260a084015260c0830152151560e0820152f35b346101795760805180600319360112610176576040517f00000000000000000000000000000000000000000000000000000000000000006001600160a01b03168152602090f35b3461017957608051806003193601126101765760206040516107d08152f35b346101795760403660031901126101795761247e61299f565b6004356080515260066020526040608051209060018060a01b03166000526020526020604060002054604051908152f35b34610179576124bd366129e2565b6040516355f0e22160e01b8152600481018490523360248201529192916001600160a01b037f00000000000000000000000000000000000000000000000000000000000000008116929091608081604481875afa908115610710576080519161275a575b5060209233908483015116036127255761256590604051848101908489833761255a868287810160805183820152038084520182612b39565b519020905114612cd4565b8360805152600382526080516040812090339052825260805160408120906001600160401b038311610d12575061259c8154612a9a565b601f81116126dc575b5081608051601f8211600114612676576080519161266b575b508260011b906000198460031b1c19161790555b823b15610179576040519263ab9b681160e01b8452846004850152600460248501528360448160805180945af1918215610710577fbdb6749b106aafd4fbca0b6615f7ebb37361fbb650924e946c97b20e475d20ad93610c2c9361265c575b5084608051526006815260406080512090336000525243604060002055604051918291339683612d3e565b61266590612aef565b86612631565b9050860135876125be565b82815260805185812092508490601f198216905b878282106126c3575050106126a9575b5050600182811b0190556125d2565b870135600019600385901b60f8161c19169055868061269a565b8b8501358655600190950194938401938793500161268a565b8160805152608051848120601f850160051c81019286861061271b575b601f0160051c01915b8281106127105750506125a5565b818155600101612702565b90925082906126f9565b60405162461bcd60e51b815260048101849052600d60248201526c27379039bab136b4b9b9b4b7b760991b6044820152606490fd5b90506080813d6080116127b8575b8161277560809383612b39565b810103126101795760606040519161278c83612ad4565b8051835261279c60208201612c49565b6020840152604081015160408401520151606082015286612521565b3d9150612768565b346101795760805180600319360112610176576040517f00000000000000000000000000000000000000000000000000000000000000006001600160a01b03168152602090f35b3461017957602036600319011261017957612820612989565b60405161282c81612ad4565b608051815260805160208201526080516040820152606060805191015260018060a01b03166080515260076020526080604081512060405161286d81612ad4565b815491828252600181015460208301908152606060036002840154936040860194855201549301928352604051938452516020840152516040830152516060820152f35b3461017957608051806003193601126101765760206040516105dc8152f35b3461017957602036600319011261017957600435608051526008602052602060ff60406080512054166040519015158152f35b346129845760203660031901126129845761291c612989565b60015490916001600160a01b039182163303612951575060805191166bffffffffffffffffffffffff60a01b82541617815580f35b62461bcd60e51b815260206004820152600e60248201526d4e6f7420676f7665726e616e636560901b6044820152606490fd5b600080fd5b600435906001600160a01b038216820361298457565b602435906001600160a01b038216820361298457565b9181601f84011215612984578235916001600160401b038311612984576020838186019501011161298457565b9060406003198301126129845760043591602435906001600160401b03821161298457612a11916004016129b5565b9091565b8054821015612a31576000526005602060002091020190600090565b634e487b7160e01b600052603260045260246000fd5b60a060031982011261298457600435916024356001600160a01b038116810361298457916044358015158103612984579160643591608435906001600160401b03821161298457612a11916004016129b5565b90600182811c92168015612aca575b6020831014612ab457565b634e487b7160e01b600052602260045260246000fd5b91607f1691612aa9565b608081019081106001600160401b038211176109f857604052565b6001600160401b0381116109f857604052565b60c081019081106001600160401b038211176109f857604052565b61010081019081106001600160401b038211176109f857604052565b90601f801991011681019081106001600160401b038211176109f857604052565b60405190816000825492612b6d84612a9a565b908184526001948581169081600014612bdd5750600114612b9a575b5050612b9792500382612b39565b90565b9093915060005260209081600020936000915b818310612bc5575050612b9793508201013880612b89565b85548784018501529485019486945091830191612bad565b915050612b9794506020925060ff191682840152151560051b8201013880612b89565b6020808252825181830181905290939260005b828110612c3557505060409293506000838284010152601f8019910116010190565b818101860151848201604001528501612c13565b51906001600160a01b038216820361298457565b90816101009103126129845760405190612c7682612b1d565b8051825260208101516020830152612c9060408201612c49565b6040830152606081015160608301526080810151608083015260a081015160a083015260c081015190600c8210156129845760e09160c0840152015160e082015290565b15612cdb57565b60405162461bcd60e51b815260206004820152600c60248201526b086928840dad2e6dac2e8c6d60a31b6044820152606490fd5b90815260408101929190600c821015612d285760200152565b634e487b7160e01b600052602160045260246000fd5b90918060409360208452816020850152848401376000828201840152601f01601f1916010190565b5190811515820361298457565b15612d7a57565b60405162461bcd60e51b81526020600482015260166024820152752737ba1030b1ba34bb329021b7b7b93234b730ba37b960511b6044820152606490fd5b15612dbf57565b60405162461bcd60e51b815260206004820152601a60248201527f4e6f7420726561647920666f7220766572696669636174696f6e0000000000006044820152606490fd5b15612e0b57565b60405162461bcd60e51b815260206004820152601560248201527414dbdb1d5d1a5bdb881b9bdd081c995d99585b1959605a1b6044820152606490fd5b9190820180921161106b57565b600019811461106b5760010190565b8181029291811591840414171561106b57565b8115612e81570490565b634e487b7160e01b600052601260045260246000fd5b9190820391821161106b57565b15612eab57565b60405162461bcd60e51b8152602060048201526011602482015270105b1c9958591e481c1c9bd8d95cdcd959607a1b6044820152606490fd5b9060009182526006602052604082209060018060a01b031682526020526040812054908115612f335760648201809211612f1f575043111590565b634e487b7160e01b81526011600452602490fd5b90509056fea4ac4f52503c1a3d8fbfecbf4e407e779e161fb7ecbe9fb795087963514e07c5a2646970667358221220156ca4a9174f4e76dc8732af73336c7038e4255b89cf51316896901d672689e064736f6c63430008140033",
  "linkReferences": {},
  "deployedLinkReferences": {}
}