{
  "_format": "hh-sol-artifact-1",
  "contractName": "ResultsRewards",
  "sourceName": "contracts/core/ResultsRewards.sol",
  "abi": [
    {
      "inputs": [
        {
          "internalType": "address",
          "name": "_taskContract",
          "type": "address"
        },
        {
          "internalType": "address",
          "name": "_staking",
          "type": "address"
        },
        {
          "internalType": "address",
          "name": "_governance",
          "type": "address"
        }
      ],
      "stateMutability": "nonpayable",
      "type": "constructor"
    },
    {
      "anonymous": false,
      "inputs": [
        {
          "indexed": true,
          "internalType": "address",
          "name": "coordinator",
          "type": "address"
        },
        {
          "indexed": false,
          "internalType": "uint256",
          "name": "newBondStrength",
          "type": "uint256"
        },
        {
          "indexed": false,
          "internalType": "bool",
          "name": "alignedWithConsensus",
          "type": "bool"
        }
      ],
      "name": "BondUpdated",
      "type": "event"
    },
    {
      "anonymous": false,
      "inputs": [
        {
          "indexed": true,
          "internalType": "uint256",
          "name": "taskId",
          "type": "uint256"
        },
        {
          "indexed": true,
          "internalType": "address",
          "name": "solver",
          "type": "address"
        },
        {
          "indexed": true,
          "internalType": "address",
          "name": "coordinator",
          "type": "address"
        },
        {
          "indexed": false,
          "internalType": "bool",
          "name": "isCorrect",
          "type": "bool"
        },
        {
          "indexed": false,
          "internalType": "uint256",
          "name": "score",
          "type": "uint256"
        }
      ],
      "name": "CoordinatorVoted",
      "type": "event"
    },
    {
      "anonymous": false,
      "inputs": [
        {
          "indexed": true,
          "internalType": "uint256",
          "name": "taskId",
          "type": "uint256"
        },
        {
          "indexed": true,
          "internalType": "address",
          "name": "proposer",
          "type": "address"
        },
        {
          "indexed": false,
          "internalType": "string",
          "name": "cid",
          "type": "string"
        }
      ],
      "name": "GroundTruthRevealed",
      "type": "event"
    },
    {
      "anonymous": false,
      "inputs": [
        {
          "indexed": true,
          "internalType": "uint256",
          "name": "taskId",
          "type": "uint256"
        },
        {
          "indexed": true,
          "internalType": "address",
          "name": "recipient",
          "type": "address"
        },
        {
          "indexed": false,
          "internalType": "uint256",
          "name": "amount",
          "type": "uint256"
        },
        {
          "indexed": false,
          "internalType": "string",
          "name": "rewardType",
          "type": "string"
        }
      ],
      "name": "RewardsDistributed",
      "type": "event"
    },
    {
      "anonymous": false,
      "inputs": [
        {
          "indexed": true,
          "internalType": "uint256",
          "name": "taskId",
          "type": "uint256"
        },
        {
          "indexed": true,
          "internalType": "address",
          "name": "solver",
          "type": "address"
        },
        {
          "indexed": false,
          "internalType": "string",
          "name": "cid",
          "type": "string"
        }
      ],
      "name": "SolutionRevealed",
      "type": "event"
    },
    {
      "anonymous": false,
      "inputs": [
        {
          "indexed": true,
          "internalType": "uint256",
          "name": "taskId",
          "type": "uint256"
        },
        {
          "indexed": true,
          "internalType": "address",
          "name": "coordinator",
          "type": "address"
        },
        {
          "indexed": false,
          "internalType": "bool",
          "name": "correct",
          "type": "bool"
        },
        {
          "indexed": false,
          "internalType": "uint256",
          "name": "score",
          "type": "uint256"
        }
      ],
      "name": "VerificationSubmitted",
      "type": "event"
    },
    {
      "anonymous": false,
      "inputs": [
        {
          "indexed": true,
          "internalType": "uint256",
          "name": "taskId",
          "type": "uint256"
        },
        {
          "indexed": true,
          "internalType": "address",
          "name": "coordinator",
          "type": "address"
        },
        {
          "indexed": false,
          "internalType": "uint256",
          "name": "originalScore",
          "type": "uint256"
        },
        {
          "indexed": false,
          "internalType": "uint256",
          "name": "clippedScore",
          "type": "uint256"
        }
      ],
      "name": "VoteClipped",
      "type": "event"
    },
    {
      "anonymous": false,
      "inputs": [
        {
          "indexed": true,
          "internalType": "uint256",
          "name": "taskId",
          "type": "uint256"
        },
        {
          "indexed": true,
          "internalType": "address",
          "name": "solver",
          "type": "address"
        },
        {
          "indexed": false,
          "internalType": "bool",
          "name": "consensusCorrect",
          "type": "bool"
        },
        {
          "indexed": false,
          "internalType": "uint256",
          "name": "consensusScore",
          "type": "uint256"
        }
      ],
      "name": "YumaConsensusReached",
      "type": "event"
    },
    {
      "inputs": [],
      "name": "BOND_MULTIPLIER_MAX",
      "outputs": [
        {
          "internalType": "uint256",
          "name": "",
          "type": "uint256"
        }
      ],
      "stateMutability": "view",
      "type": "function"
    },
    {
      "inputs": [],
      "name": "CLIP_THRESHOLD_BPS",
      "outputs": [
        {
          "internalType": "uint256",
          "name": "",
          "type": "uint256"
        }
      ],
      "stateMutability": "view",
      "type": "function"
    },
    {
      "inputs": [],
      "name": "EMA_DECAY",
      "outputs": [
        {
          "internalType": "uint256",
          "name": "",
          "type": "uint256"
        }
      ],
      "stateMutability": "view",
      "type": "function"
    },
    {
      "inputs": [],
      "name": "MIN_COORDINATORS",
      "outputs": [
        {
          "internalType": "uint256",
          "name": "",
          "type": "uint256"
        }
      ],
      "stateMutability": "view",
      "type": "function"
    },
    {
      "inputs": [],
      "name": "VOTING_PERIOD_BLOCKS",
      "outputs": [
        {
          "internalType": "uint256",
          "name": "",
          "type": "uint256"
        }
      ],
      "stateMutability": "view",
      "type": "function"
    },
    {
      "inputs": [
        {
          "internalType": "uint256",
          "name": "",
          "type": "uint256"
        },
        {
          "internalType": "address",
          "name": "",
          "type": "address"
        }
      ],
      "name": "consensusResults",
      "outputs": [
        {
          "internalType": "uint256",
          "name": "taskId",
          "type": "uint256"
        },
        {
          "internalType": "address",
          "name": "solver",
          "type": "address"
        },
        {
          "internalType": "bool",
          "name": "consensusCorrect",
          "type": "bool"
        },
        {
          "internalType": "uint256",
          "name": "consensusScore",
          "type": "uint256"
        },
        {
          "internalType": "uint256",
          "name": "totalStake",
          "type": "uint256"
        },
        {
          "internalType": "uint256",
          "name": "correctStake",
          "type": "uint256"
        },
        {
          "internalType": "uint256",
          "name": "clippedVotes",
          "type": "uint256"
        },
        {
          "internalType": "bool",
          "name": "finalized",
          "type": "bool"
        }
      ],
      "stateMutability": "view",
      "type": "function"
    },
    {
      "inputs": [
        {
          "internalType": "address",
          "name": "",
          "type": "address"
        }
      ],
      "name": "coordinatorBonds",
      "outputs": [
        {
          "internalType": "uint256",
          "name": "emaBondStrength",
          "type": "uint256"
        },
        {
          "internalType": "uint256",
          "name": "totalVotes",
          "type": "uint256"
        },
        {
          "internalType": "uint256",
          "name": "correctVotes",
          "type": "uint256"
        },
        {
          "internalType": "uint256",
          "name": "lastUpdateBlock",
          "type": "uint256"
        }
      ],
      "stateMutability": "view",
      "type": "function"
    },
    {
      "inputs": [
        {
          "internalType": "uint256",
          "name": "_taskId",
          "type": "uint256"
        },
        {
          "internalType": "address",
          "name": "_solver",
          "type": "address"
        }
      ],
      "name": "finalizeVoting",
      "outputs": [],
      "stateMutability": "nonpayable",
      "type": "function"
    },
    {
      "inputs": [
        {
          "internalType": "uint256",
          "name": "_taskId",
          "type": "uint256"
        },
        {
          "internalType": "address",
          "name": "_solver",
          "type": "address"
        }
      ],
      "name": "getConsensusResult",
      "outputs": [
        {
          "components": [
            {
              "internalType": "uint256",
              "name": "taskId",
              "type": "uint256"
            },
            {
              "internalType": "address",
              "name": "solver",
              "type": "address"
            },
            {
              "internalType": "bool",
              "name": "consensusCorrect",
              "type": "bool"
            },
            {
              "internalType": "uint256",
              "name": "consensusScore",
              "type": "uint256"
            },
            {
              "internalType": "uint256",
              "name": "totalStake",
              "type": "uint256"
            },
            {
              "internalType": "uint256",
              "name": "correctStake",
              "type": "uint256"
            },
            {
              "internalType": "uint256",
              "name": "clippedVotes",
              "type": "uint256"
            },
            {
              "internalType": "bool",
              "name": "finalized",
              "type": "bool"
            }
          ],
          "internalType": "struct AutonetLib.YumaConsensusResult",
          "name": "",
          "type": "tuple"
        }
      ],
      "stateMutability": "view",
      "type": "function"
    },
    {
      "inputs": [
        {
          "internalType": "address",
          "name": "_coordinator",
          "type": "address"
        }
      ],
      "name": "getCoordinatorBond",
      "outputs": [
        {
          "components": [
            {
              "internalType": "uint256",
              "name": "emaBondStrength",
              "type": "uint256"
            },
            {
              "internalType": "uint256",
              "name": "totalVotes",
              "type": "uint256"
            },
            {
              "internalType": "uint256",
              "name": "correctVotes",
              "type": "uint256"
            },
            {
              "internalType": "uint256",
              "name": "lastUpdateBlock",
              "type": "uint256"
            }
          ],
          "internalType": "struct AutonetLib.CoordinatorBond",
          "name": "",
          "type": "tuple"
        }
      ],
      "stateMutability": "view",
      "type": "function"
    },
    {
      "inputs": [
        {
          "internalType": "uint256",
          "name": "_taskId",
          "type": "uint256"
        },
        {
          "internalType": "address",
          "name": "_solver",
          "type": "address"
        }
      ],
      "name": "getVoteCount",
      "outputs": [
        {
          "internalType": "uint256",
          "name": "",
          "type": "uint256"
        }
      ],
      "stateMutability": "view",
      "type": "function"
    },
    {
      "inputs": [
        {
          "internalType": "uint256",
          "name": "_taskId",
          "type": "uint256"
        },
        {
          "internalType": "address",
          "name": "_solver",
          "type": "address"
        }
      ],
      "name": "getVotes",
      "outputs": [
        {
          "components": [
            {
              "internalType": "address",
              "name": "coordinator",
              "type": "address"
            },
            {
              "internalType": "bool",
              "name": "isCorrect",
              "type": "bool"
            },
            {
              "internalType": "uint256",
              "name": "score",
              "type": "uint256"
            },
            {
              "internalType": "uint256",
              "name": "stake",
              "type": "uint256"
            },
            {
              "internalType": "uint256",
              "name": "voteBlock",
              "type": "uint256"
            },
            {
              "internalType": "bytes32",
              "name": "reportHash",
              "type": "bytes32"
            }
          ],
          "internalType": "struct AutonetLib.CoordinatorVote[]",
          "name": "",
          "type": "tuple[]"
        }
      ],
      "stateMutability": "view",
      "type": "function"
    },
    {
      "inputs": [],
      "name": "governance",
      "outputs": [
        {
          "internalType": "address",
          "name": "",
          "type": "address"
        }
      ],
      "stateMutability": "view",
      "type": "function"
    },
    {
      "inputs": [
        {
          "internalType": "uint256",
          "name": "_taskId",
          "type": "uint256"
        },
        {
          "internalType": "address",
          "name": "_solver",
          "type": "address"
        }
      ],
      "name": "isVotingOpen",
      "outputs": [
        {
          "internalType": "bool",
          "name": "",
          "type": "bool"
        }
      ],
      "stateMutability": "view",
      "type": "function"
    },
    {
      "inputs": [],
      "name": "projectContract",
      "outputs": [
        {
          "internalType": "contract Project",
          "name": "",
          "type": "address"
        }
      ],
      "stateMutability": "view",
      "type": "function"
    },
    {
      "inputs": [
        {
          "internalType": "uint256",
          "name": "_taskId",
          "type": "uint256"
        },
        {
          "internalType": "string",
          "name": "_cid",
          "type": "string"
        }
      ],
      "name": "revealGroundTruth",
      "outputs": [],
      "stateMutability": "nonpayable",
      "type": "function"
    },
    {
      "inputs": [
        {
          "internalType": "uint256",
          "name": "_taskId",
          "type": "uint256"
        },
        {
          "internalType": "string",
          "name": "_cid",
          "type": "string"
        }
      ],
      "name": "revealSolution",
      "outputs": [],
      "stateMutability": "nonpayable",
      "type": "function"
    },
    {
      "inputs": [
        {
          "internalType": "uint256",
          "name": "",
          "type": "uint256"
        },
        {
          "internalType": "address",
          "name": "",
          "type": "address"
        }
      ],
      "name": "revealedGroundTruths",
      "outputs": [
        {
          "internalType": "string",
          "name": "",
          "type": "string"
        }
      ],
      "stateMutability": "view",
      "type": "function"
    },
    {
      "inputs": [
        {
          "internalType": "uint256",
          "name": "",
          "type": "uint256"
        },
        {
          "internalType": "address",
          "name": "",
          "type": "address"
        }
      ],
      "name": "revealedSolutions",
      "outputs": [
        {
          "internalType": "string",
          "name": "",
          "type": "string"
        }
      ],
      "stateMutability": "view",
      "type": "function"
    },
    {
      "inputs": [
        {
          "internalType": "uint256",
          "name": "",
          "type": "uint256"
        }
      ],
      "name": "rewardsProcessed",
      "outputs": [
        {
          "internalType": "bool",
          "name": "",
          "type": "bool"
        }
      ],
      "stateMutability": "view",
      "type": "function"
    },
    {
      "inputs": [
        {
          "internalType": "address",
          "name": "_project",
          "type": "address"
        }
      ],
      "name": "setProjectContract",
      "outputs": [],
      "stateMutability": "nonpayable",
      "type": "function"
    },
    {
      "inputs": [],
      "name": "staking",
      "outputs": [
        {
          "internalType": "contract ParticipantStaking",
          "name": "",
          "type": "address"
        }
      ],
      "stateMutability": "view",
      "type": "function"
    },
    {
      "inputs": [
        {
          "internalType": "uint256",
          "name": "_taskId",
          "type": "uint256"
        },
        {
          "internalType": "address",
          "name": "_solver",
          "type": "address"
        },
        {
          "internalType": "bool",
          "name": "_isCorrect",
          "type": "bool"
        },
        {
          "internalType": "uint256",
          "name": "_score",
          "type": "uint256"
        },
        {
          "internalType": "string",
          "name": "_reportCid",
          "type": "string"
        }
      ],
      "name": "submitVerification",
      "outputs": [],
      "stateMutability": "nonpayable",
      "type": "function"
    },
    {
      "inputs": [
        {
          "internalType": "uint256",
          "name": "_taskId",
          "type": "uint256"
        },
        {
          "internalType": "address",
          "name": "_solver",
          "type": "address"
        },
        {
          "internalType": "bool",
          "name": "_isCorrect",
          "type": "bool"
        },
        {
          "internalType": "uint256",
          "name": "_score",
          "type": "uint256"
        },
        {
          "internalType": "string",
          "name": "_reportCid",
          "type": "string"
        }
      ],
      "name": "submitVote",
      "outputs": [],
      "stateMutability": "nonpayable",
      "type": "function"
    },
    {
      "inputs": [],
      "name": "taskContract",
      "outputs": [
        {
          "internalType": "contract TaskContract",
          "name": "",
          "type": "address"
        }
      ],
      "stateMutability": "view",
      "type": "function"
    },
    {
      "inputs": [
        {
          "internalType": "uint256",
          "name": "",
          "type": "uint256"
        },
        {
          "internalType": "address",
          "name": "",
          "type": "address"
        }
      ],
      "name": "verificationReports",
      "outputs": [
        {
          "internalType": "address",
          "name": "coordinator",
          "type": "address"
        },
        {
          "internalType": "bool",
          "name": "isCorrect",
          "type": "bool"
        },
        {
          "internalType": "uint256",
          "name": "score",
          "type": "uint256"
        },
        {
          "internalType": "bytes32",
          "name": "supportingDataHash",
          "type": "bytes32"
        },
        {
          "internalType": "uint256",
          "name": "verificationBlock",
          "type": "uint256"
        }
      ],
      "stateMutability": "view",
      "type": "function"
    },
    {
      "inputs": [
        {
          "internalType": "uint256",
          "name": "",
          "type": "uint256"
        },
        {
          "internalType": "address",
          "name": "",
          "type": "address"
        },
        {
          "internalType": "uint256",
          "name": "",
          "type": "uint256"
        }
      ],
      "name": "votes",
      "outputs": [
        {
          "internalType": "address",
          "name": "coordinator",
          "type": "address"
        },
        {
          "internalType": "bool",
          "name": "isCorrect",
          "type": "bool"
        },
        {
          "internalType": "uint256",
          "name": "score",
          "type": "uint256"
        },
        {
          "internalType": "uint256",
          "name": "stake",
          "type": "uint256"
        },
        {
          "internalType": "uint256",
          "name": "voteBlock",
          "type": "uint256"
        },
        {
          "internalType": "bytes32",
          "name": "reportHash",
          "type": "bytes32"
        }
      ],
      "stateMutability": "view",
      "type": "function"
    },
    {
      "inputs": [
        {
          "internalType": "uint256",
          "name": "",
          "type": "uint256"
        },
        {
          "internalType": "address",
          "name": "",
          "type": "address"
        }
      ],
      "name": "votingStartBlock",
      "outputs": [
        {
          "internalType": "uint256",
          "name": "",
          "type": "uint256"
        }
      ],
      "stateMutability": "view",
      "type": "function"
    }
  ],
  "bytecode": "0x60c0346200013257601f620031c238819003918201601f19168301916001600160401b03831184841017620001375780849260609460405283398101031262000132576200004d816200014d565b62000069604062000061602085016200014d565b93016200014d565b6001600160a01b0391821660805291811660a052600180546001600160a01b0319169190921617905560405161305f9081620001638239608051818181610315015281816104a1015281816104ff015281816105ac0152818161066b015281816106c001528181610acb015281816110c001528181611120015281816111d2015281816114b60152818161150a01528181611b67015281816125b501526128a9015260a0518181816102bd015281816113cf01528181611b0d01528181611c8101526124e80152f35b600080fd5b634e487b7160e01b600052604160045260246000fd5b51906001600160a01b0382168203620001325756fe60a080604052600436101561001357600080fd5b600060805260003560e01c90816304e393a4146129d45750806324848df6146129a157806326b885371461298257806326c965cd146128d85780633b70aebc14612891578063413a1f67146125805780634270267c146125365780634625541e146125175780634cf088d9146124d05780634dc5b7c01461242f5780635aa6e6751461240457806368197360146122a8578063684625d11461216f57806378310bca146120ce5780638169bb7314612084578063a05bc09a14612027578063a29dfff314612009578063ab42ca8414611ace578063aed89fed14611aa5578063b2599dd514610de5578063b62a75f214610dc6578063c2412d7314610d7c578063c356040814610a9c578063db8d61c214610282578063df5f7bb114610252578063e83b0572146101d9578063ed3e32f41461017f5763f597e9441461015857600080fd5b34610179576080518060031936011261017657602060405160028152f35b80fd5b60805180fd5b3461017957604036600319011261017957610198612a70565b6004356080515260026020526040608051209060018060a01b03166000526020526101d56101c96040600020612c2b565b60405191829182612cd1565b0390f35b346101795760403660031901126101795760a06101f4612a70565b600435608051526009602052604060805120600180841b038092166000526020526040600020805490600181015460ff60036002840154930154936040519581168652861c1615156020850152604084015260608301526080820152f35b34610179576040366003190112610179576020610278610270612a70565b600435612fb5565b6040519015158152f35b346101795761029036612b18565b604051630ac9218960e41b8152336004820152600360248201529394936020816044816001600160a01b037f0000000000000000000000000000000000000000000000000000000000000000165afa80156107105760805190610a61575b6102f89150612e44565b604051630496071960e21b815260048101879052610100816024817f00000000000000000000000000000000000000000000000000000000000000006001600160a01b03165afa9081156107105760805191610a40575b5060c0810151600c811015610a2857600414908115610a0e575b5061037390612e89565b8560805152600360205260406080512060018060a01b0385166000526020526103aa6103a3604060002054612b6b565b1515612ed5565b6103cf6020604051838194838301968737810160805183820152038084520182612c0a565b519020604051908160a08101106001600160401b0360a0840111176109f85760a0820160405233825284151560208301528260408301526060820152436080820152846080515260096020526080519060408220336000526020526003608060406000209260018060a01b038151166bffffffffffffffffffffffff60a01b85541617845561047c60208201511515859081549060ff60a01b90151560a01b169060ff60a01b1916179055565b6040810151600185015560608101516002850155015191015583156109f0576007905b7f00000000000000000000000000000000000000000000000000000000000000006001600160a01b03163b1561017657506040519063ab9b681160e01b825281806104f1608051938960048401612de0565b038160805160018060a01b037f0000000000000000000000000000000000000000000000000000000000000000165af18015610710576109db575b50837f5c68cdca6bc79311a6c96f19be0e6c54a152bedec623da520fcc181dab58493d6040518061056e33958883602090939291936040810194151581520152565b0390a38260805152600860205261058e60ff604060805120541615612f75565b604051630496071960e21b81526004810184905291610100836024817f00000000000000000000000000000000000000000000000000000000000000006001600160a01b03165afa92831561071057608051936109a8575b5060e0830151906064602060018060a01b0360805154166040519283809263ab6e518760e01b8252876004830152336024830152670de0b6b3a76400006044830152608051905af1908115610710576080519161096e575b50610921575b61071d575b50506080805183905260086020525160408120805460ff1916600117905590507f00000000000000000000000000000000000000000000000000000000000000006001600160a01b03163b15610176575060405163ab9b681160e01b815260048101919091526009602482015260805181604481837f00000000000000000000000000000000000000000000000000000000000000006001600160a01b03165af18015610710576106fb575b60805180f35b61070490612bc0565b60805180156106f55780fd5b6040513d608051823e3d90fd5b6080805154848201805160405163ab6e518760e01b8152600481018690526001600160a01b03878116602483015260448201929092529351919593926020928492606492849291165af18015610710578691608051916108e0575b50936107dc9461088d575b5050608051546040858101805160609097018051925163ab6e518760e01b815260048101969096526001600160a01b03978816602487015260448601929092529095939490936020935085921690829081906064820190565b0391608051905af1801561071057849260805191610851575b5015610649575191516040805191825260208201819052600e908201526d141c9bdc1bdcd95c94995dd85c9960921b60608201526001600160a01b039092169160008051602061300a83398151915290608090a3818181610649565b9250506020823d602011610885575b8161086d60209383612c0a565b810103126101795761087f8492612e37565b856107f5565b3d9150610860565b516040805191825260208201819052600c908201526b14dbdb1d995c94995dd85c9960a21b60608201526001600160a01b03929092169160008051602061300a83398151915290608090a3848481610783565b9150506020813d602011610919575b816108fc60209383612c0a565b81010312610179576107dc936109128792612e37565b9094610778565b3d91506108ef565b604051670de0b6b3a7640000815260406020820152600e60408201526d436f6f7264696e61746f7246656560901b60608201528560008051602061300a83398151915260803393a3610644565b90506020813d6020116109a0575b8161098960209383612c0a565b810103126101795761099a90612e37565b8661063e565b3d915061097c565b6109cd9193506101003d610100116109d4575b6109c58183612c0a565b810190612d2e565b91846105e6565b503d6109bb565b6109e490612bc0565b608051801561052c5780fd5b60089061049f565b634e487b7160e01b600052604160045260246000fd5b60c091500151600c811015610a2857600514610373610369565b634e487b7160e01b6080515260216004526024608051fd5b610a5b91506101003d610100116109d4576109c58183612c0a565b8761034f565b506020813d602011610a94575b81610a7b60209383612c0a565b8101031261017957610a8f6102f891612e37565b6102ee565b3d9150610a6e565b3461017957610aaa36612ab3565b604051630496071960e21b8152600481018490529192916001600160a01b037f000000000000000000000000000000000000000000000000000000000000000081169161010091908281602481875afa9283156107105760805193610d5d575b50506040820151163303610d2957610b51604051916020838180950190878a8337610b4583828a810160805183820152038084520182612c0a565b51902091015114612da5565b83608051526002815260805190604082203360005281526040600020916001600160401b038511610d1257508390610b898354612b6b565b601f8111610cbd575b5060805190601f8311600114610c55575060805191610c4a575b508360011b906000198560031b1c19161790555b803b15610179576040519063ab9b681160e01b8252836004830152600560248301528160448160805180945af1801561071057610c35575b50610c2c7f823b506add56db5122c2285a4ac807f90eee3d7ba34d8f408b5982487ecb8e8f91604051918291339683612e0f565b0390a360805180f35b610c3e90612bc0565b6080518015610bf85780fd5b905085013586610bac565b8382526080518181209391601f19831691905b828210610ca057505010610c86575b5050600183811b019055610bc0565b860135600019600386901b60f8161c191690558580610c77565b80929350600185968293968d013581550195019301879291610c68565b9091508260805152608051828120601f870160051c810192848810610d08575b90601f88959493920160051c01915b828110610cfa575050610b92565b818155879450600101610cec565b9092508290610cdd565b634e487b7160e01b90526041600452608051602490fd5b60405162461bcd60e51b815260206004820152600c60248201526b2737ba10383937b837b9b2b960a11b6044820152606490fd5b610d74929350803d106109d4576109c58183612c0a565b908680610b0a565b3461017957604036600319011261017957610d95612a70565b6004356080515260036020526040608051209060018060a01b03166000526020526101d56101c96040600020612c2b565b3461017957608051806003193601126101765760206040516103848152f35b3461017957604036600319011261017957610dfe612a70565b60043560805152600560205260406080512060018060a01b03821660005260205260406000209060ff600683015416611a6c57600435608051526006602052608051916040832060018060a01b0383166000526020526040600020549260043590526004602052608051926040842060018060a01b03841660005260205260406000209360648201809211611081575043118015611a60575b15611a25578254600281106119e057608051928392849285805b8281106119515750608051908690811561194957610ecf9250612f48565b905b60805191829183915b8a8284106117a057505060805193915050811561179857610efb9250612f48565b945b6004358255600180830180546001600160a81b0319166001600160a01b038616179187901c861160a01b60ff60a01b1691909117905585600283015584600383015583600483015560058201556006600160ff198284015416179101556080515b85548110156110a657610f718187612ae6565b50546001600160a01b031690610f878188612ae6565b5060ff8660011c8611915460a01c161515149180608051526007602052608051604081209084600014611098576001600160401b03670de0b6b3a76400005b169180549561038492838881020488036110815750606484810204840361106b576103e8611020604094611051997fbbf1df4feb244f23530cf75e562a9d524c08ad411ed404815e5773e6c4c5047a976064029102612f19565b049182815581600182016110348154612f26565b9055611056575b60034391015582519182526020820152a2612f26565b610f5e565b600281016110648154612f26565b905561103b565b634e487b7160e01b600052601160045260246000fd5b634e487b7160e01b90526011600452608051602490fd5b6001600160401b0381610fc6565b509390916080518160011c8411600014611790576007905b7f00000000000000000000000000000000000000000000000000000000000000006001600160a01b03163b1561017657506040519063ab9b681160e01b825281806111126080519360043560048401612de0565b038160805160018060a01b037f0000000000000000000000000000000000000000000000000000000000000000165af180156107105761177b575b5060408051600183901c85118152602081018690526001600160a01b03871691600435917fb21de302a3e3a5fae97494b27cd248568142fd0181573ab91277b8ad6620b9e69190a36004356080515260086020526111b460ff604060805120541615612f75565b604051630496071960e21b81526004803590820152610100816024817f00000000000000000000000000000000000000000000000000000000000000006001600160a01b03165afa908115610710576080519161175a575b5060e0810151956080515b84548110156114825761122a8186612ae6565b50546001600160a01b0316906112408187612ae6565b505460a01c60ff161515600186901c8811036113bb57816080515260076020526080519160408320546101f49081810291818304149015171561106b57670de0b6b3a76400008091046103e80193846103e8116110815750808481020484036113a3576080515460405163ab6e518760e01b8152600481018d90526001600160a01b0384811660248301526103e8969093029590950460448601819052916020918691168180606481010391608051905af18060805191611366575b61130e9550611313575b505050612f26565b611217565b61131e575b80611306565b60405190815260406020820152600e60408201526d436f6f7264696e61746f7246656560901b606082015260008051602061300a833981519152608060043592a38980611318565b90506020853d60201161139b575b8161138160209383612c0a565b810103126101795761139561130e95612e37565b906112fc565b3d9150611374565b634e487b7160e01b6080515260116004526024608051fd5b90600a60026113ca8489612ae6565b5001547f00000000000000000000000000000000000000000000000000000000000000006001600160a01b0316919004813b1561017957604051926333c59f7160e11b84526004840152602483015260606044830152601760648301527f566f74656420616761696e737420636f6e73656e73757300000000000000000060848301528160a48160805180945af180156107105761146d575b5061130e90612f26565b61147690612bc0565b60805180156114635780fd5b50858588939460011c10611544575b505060808051600435905260086020525160408120805460ff191660011790559150507f00000000000000000000000000000000000000000000000000000000000000006001600160a01b03163b156101765760405163ab9b681160e01b815260048035908201526009602482015260805181604481837f00000000000000000000000000000000000000000000000000000000000000006001600160a01b03165af18015610710576106fb5760805180f35b6115546064916080860151612f35565b608080515460405163ab6e518760e01b8152600481018790526001600160a01b0386811660248301529490930460448401819052915191936020928492606492849291165af1608051918161171e575b506116be575b505060808051546040858101805160609097018051925163ab6e518760e01b815260048101979097526001600160a01b03978816602488015260448701929092529251909592949350602092849260649284929091165af16080519181611682575b50611618575b80611491565b611623575b80611612565b60018060a01b03905116905160008051602061300a833981519152604051806116786004359482608091815260406020820152600e60408201526d141c9bdc1bdcd95c94995dd85c9960921b60608201520190565b0390a3808061161d565b9091506020813d6020116116b6575b8161169e60209383612c0a565b81010312610179576116af90612e37565b908461160c565b3d9150611691565b6116c9575b806115aa565b6040805191825260208201819052600c908201526b14dbdb1d995c94995dd85c9960a21b60608201526001600160a01b0391909116906004359060008051602061300a83398151915290608090a382806116c3565b9091506020813d602011611752575b8161173a60209383612c0a565b810103126101795761174b90612e37565b90866115a4565b3d915061172d565b61177591506101003d610100116109d4576109c58183612c0a565b8661120c565b61178490612bc0565b608051801561114d5780fd5b6008906110be565b505094610efd565b90919293999460026117c18660016117b88287612ae6565b50015494612ae6565b50015483831192831561193a576117d88582612f68565b60805180871561193157506127109182810292818404149015171561108157508561180291612f48565b935b6107d08095116000146119115760805190156118bd575084848102048414851517156113a3576118a46118b0938f8461189e916118aa956118598d6118538d6127106118b69e82020490612f19565b93612ae6565b5060018060a01b03905416906040519081528260208201527fb8ad55529ccf22775d8d1dec27e80671d9a6d3b339c333ddd0f4a617645c0391604060043592a3612f35565b90612f19565b97612f26565b9b612f19565b93612f26565b9190610eda565b85858196939496020482148615171561108157506118a46118b0938f8661189e916118b698966118598d8c6127106118aa9a8202046080519181811160001461190a576118539250612f68565b5050611853565b506118b693506118b09261189e83999e9961192b93612f35565b96612f19565b91505093611804565b6119448186612f68565b6117d8565b505090610ed1565b909561196c906002611963848c612ae6565b50015490612f19565b958860ff61197a8483612ae6565b505460a01c166119bf575b6119ba9161189e8260026119ab8760016119a2826119b499612ae6565b50015493612ae6565b50015490612f35565b91612f26565b610eb1565b6119d66119ba92976002611963866119b495612ae6565b9691505088611985565b60405162461bcd60e51b815260206004820152601e60248201527f496e73756666696369656e7420636f6f7264696e61746f7220766f74657300006044820152606490fd5b60405162461bcd60e51b815260206004820152601360248201527210d85b9b9bdd08199a5b985b1a5e99481e595d606a1b6044820152606490fd5b50600283541015610e97565b60405162461bcd60e51b8152602060048201526011602482015270105b1c9958591e48199a5b985b1a5e9959607a1b6044820152606490fd5b34610179576080518060031936011261017657546040516001600160a01b039091168152602090f35b3461017957611adc36612b18565b604051630ac9218960e41b815233600482015260036024820152949593949092906020816044816001600160a01b037f0000000000000000000000000000000000000000000000000000000000000000165afa80156107105760805190611fce575b611b489150612e44565b604051630496071960e21b8152600481018590526101009081816024817f00000000000000000000000000000000000000000000000000000000000000006001600160a01b03165afa9081156107105760c09260805192611fb1575b5050018051600c811015610a28576004148015611f9a575b611bc69150612e89565b8360805152600360205260406080512060018060a01b038716600052602052611bf66103a3604060002054612b6b565b8360805152600660205260406080512060018060a01b0387166000526020526040600020548015611f6057606481018091116113a3574311611f255783608051526004602052608051926040842060018060a01b038816600052602052604060002093928454935b848110611ec757506040516303d3b32360e51b81523360048201526080816024817f00000000000000000000000000000000000000000000000000000000000000006001600160a01b03165afa9081156107105760805191611e56575b50606081015115611e1e575191611ced6020604051838194838301968737810160805183820152038084520182612c0a565b5190209260405193611cfe85612bd3565b33855260208501918815158352604086019685885260608701948552608087019143835260a0880193845268010000000000000000811015611e0657611d4991600182018155612ae6565b949094611def579551845493516001600160a81b03199094166001600160a01b03919091161792151560a01b60ff60a01b169290921783557f82971d61aad387586e399ac079fc34f4a4302a529b45aebb54eaf879c4abb35295611de6956004939151600186015551600285015551600384015551910155604080519515158652602086019190915233956001600160a01b031694918291820190565b0390a460805180f35b634e487b7160e01b60805152602460805180600452fd5b634e487b7160e01b6080515260416004526024608051fd5b60405162461bcd60e51b815260206004820152601060248201526f5374616b65206e6f742061637469766560801b6044820152606490fd5b90506080813d608011611ebf575b81611e7160809383612c0a565b810103126101795760405190611e8682612ba5565b805182526020810151600781101561017957611eb49160609160208501526040810151604085015201612e37565b606082015289611cbb565b3d9150611e64565b611ed18187612ae6565b50546001600160a01b03163314611ef057611eeb90612f26565b611c5e565b60405162461bcd60e51b815260206004820152600d60248201526c105b1c9958591e481d9bdd1959609a1b6044820152606490fd5b60405162461bcd60e51b8152602060048201526013602482015272159bdd1a5b99c81c195c9a5bd908195b991959606a1b6044820152606490fd5b60405162461bcd60e51b8152602060048201526012602482015271159bdd1a5b99c81b9bdd081cdd185c9d195960721b6044820152606490fd5b5051600c811015610a28576005611bc69114611bbc565b611fc79250803d106109d4576109c58183612c0a565b8880611ba4565b506020813d602011612001575b81611fe860209383612c0a565b8101031261017957611ffc611b4891612e37565b611b3e565b3d9150611fdb565b34610179576080518060031936011261017657602060405160648152f35b34610179576020366003190112610179576001600160a01b03612048612a5a565b16608051526007602052608060408151208054906001810154906003600282015491015491604051938452602084015260408301526060820152f35b346101795760403660031901126101795761209d612a70565b6004356080515260046020526040608051209060018060a01b03166000526020526020604060002054604051908152f35b34610179576060366003190112610179576120e7612a70565b604435906004356080515260046020526080516040812060018060a01b038093166000526020526040600020908154841015610176575060c09261212a91612ae6565b50805490600181015460028201549060ff6004600385015494015494604051968116875260a01c161515602086015260408501526060840152608083015260a0820152f35b346101795760403660031901126101795761010061218b612a70565b60405161219781612bee565b6080518152608051602082015260805160408201526080516060820152608051608082015260805160a082015260805160c082015260e060805191015260043560805152600560205260406080512060018060a01b0380921660005260205260406000206040519061220882612bee565b8054928383526001820154906020840191818116835260ff604086019160a01c1615158152600284015490606086019182526003850154926080870193845260048601549460a0880195865260e060ff600660058a01549960c08c019a8b52015416980197151588526040519889525116602088015251151560408701525160608601525160808501525160a08401525160c083015251151560e0820152f35b34610179576040366003190112610179576122c1612a70565b600435608051526020600481526080516040812060018060a01b0380941660005282526040600020908154906001600160401b038211610d125750916040519260056123118383831b0186612c0a565b81855282850180946080515260805184812090915b8483106123a45750505050506040519281840190828552518091526040840192916080515b8281106123585785850386f35b83518051881686528083015115158684015260408082015190870152606080820151908701526080808201519087015260a0908101519086015260c0909401939281019260010161234b565b838660019260409a989a516123b881612bd3565b85548d8116825260ff60a091821c161515848301528587015460408301526002870154606083015260038701546080830152600487015490820152815201920192019190969496612326565b346101795760805180600319360112610176576001546040516001600160a01b039091168152602090f35b346101795760403660031901126101795761010061244b612a70565b60043560805152600560205260406080512060018060a01b038092166000526020526040600020908154916001810154600282015460038301549060ff600485015493816006600588015497015416966040519889528116602089015260a01c16151560408701526060860152608085015260a084015260c0830152151560e0820152f35b346101795760805180600319360112610176576040517f00000000000000000000000000000000000000000000000000000000000000006001600160a01b03168152602090f35b3461017957608051806003193601126101765760206040516107d08152f35b346101795760403660031901126101795761254f612a70565b6004356080515260066020526040608051209060018060a01b03166000526020526020604060002054604051908152f35b346101795761258e36612ab3565b6040516355f0e22160e01b8152600481018490523360248201529192916001600160a01b037f00000000000000000000000000000000000000000000000000000000000000008116929091608081604481875afa908115610710576080519161282b575b5060209233908483015116036127f65761263690604051848101908489833761262b868287810160805183820152038084520182612c0a565b519020905114612da5565b8360805152600382526080516040812090339052825260805160408120906001600160401b038311610d12575061266d8154612b6b565b601f81116127ad575b5081608051601f8211600114612747576080519161273c575b508260011b906000198460031b1c19161790555b823b15610179576040519263ab9b681160e01b8452846004850152600460248501528360448160805180945af1918215610710577fbdb6749b106aafd4fbca0b6615f7ebb37361fbb650924e946c97b20e475d20ad93610c2c9361272d575b5084608051526006815260406080512090336000525243604060002055604051918291339683612e0f565b61273690612bc0565b86612702565b90508601358761268f565b82815260805185812092508490601f198216905b878282106127945750501061277a575b5050600182811b0190556126a3565b870135600019600385901b60f8161c19169055868061276b565b8b8501358655600190950194938401938793500161275b565b8160805152608051848120601f850160051c8101928686106127ec575b601f0160051c01915b8281106127e1575050612676565b8181556001016127d3565b90925082906127ca565b60405162461bcd60e51b815260048101849052600d60248201526c27379039bab136b4b9b9b4b7b760991b6044820152606490fd5b90506080813d608011612889575b8161284660809383612c0a565b810103126101795760606040519161285d83612ba5565b8051835261286d60208201612d1a565b60208401526040810151604084015201516060820152866125f2565b3d9150612839565b346101795760805180600319360112610176576040517f00000000000000000000000000000000000000000000000000000000000000006001600160a01b03168152602090f35b34610179576020366003190112610179576128f1612a5a565b6040516128fd81612ba5565b608051815260805160208201526080516040820152606060805191015260018060a01b03166080515260076020526080604081512060405161293e81612ba5565b815491828252600181015460208301908152606060036002840154936040860194855201549301928352604051938452516020840152516040830152516060820152f35b3461017957608051806003193601126101765760206040516105dc8152f35b3461017957602036600319011261017957600435608051526008602052602060ff60406080512054166040519015158152f35b34612a55576020366003190112612a55576129ed612a5a565b60015490916001600160a01b039182163303612a22575060805191166bffffffffffffffffffffffff60a01b82541617815580f35b62461bcd60e51b815260206004820152600e60248201526d4e6f7420676f7665726e616e636560901b6044820152606490fd5b600080fd5b600435906001600160a01b0382168203612a5557565b602435906001600160a01b0382168203612a5557565b9181601f84011215612a55578235916001600160401b038311612a555760208381860195010111612a5557565b906040600319830112612a555760043591602435906001600160401b038211612a5557612ae291600401612a86565b9091565b8054821015612b02576000526005602060002091020190600090565b634e487b7160e01b600052603260045260246000fd5b60a0600319820112612a5557600435916024356001600160a01b0381168103612a5557916044358015158103612a55579160643591608435906001600160401b038211612a5557612ae291600401612a86565b90600182811c92168015612b9b575b6020831014612b8557565b634e487b7160e01b600052602260045260246000fd5b91607f1691612b7a565b608081019081106001600160401b038211176109f857604052565b6001600160401b0381116109f857604052565b60c081019081106001600160401b038211176109f857604052565b61010081019081106001600160401b038211176109f857604052565b90601f801991011681019081106001600160401b038211176109f857604052565b60405190816000825492612c3e84612b6b565b908184526001948581169081600014612cae5750600114612c6b575b5050612c6892500382612c0a565b90565b9093915060005260209081600020936000915b818310612c96575050612c6893508201013880612c5a565b85548784018501529485019486945091830191612c7e565b915050612c6894506020925060ff191682840152151560051b8201013880612c5a565b6020808252825181830181905290939260005b828110612d0657505060409293506000838284010152601f8019910116010190565b818101860151848201604001528501612ce4565b51906001600160a01b0382168203612a5557565b9081610100910312612a555760405190612d4782612bee565b8051825260208101516020830152612d6160408201612d1a565b6040830152606081015160608301526080810151608083015260a081015160a083015260c081015190600c821015612a555760e09160c0840152015160e082015290565b15612dac57565b60405162461bcd60e51b815260206004820152600c60248201526b086928840dad2e6dac2e8c6d60a31b6044820152606490fd5b90815260408101929190600c821015612df95760200152565b634e487b7160e01b600052602160045260246000fd5b90918060409360208452816020850152848401376000828201840152601f01601f1916010190565b51908115158203612a5557565b15612e4b57565b60405162461bcd60e51b81526020600482015260166024820152752737ba1030b1ba34bb329021b7b7b93234b730ba37b960511b6044820152606490fd5b15612e9057565b60405162461bcd60e51b815260206004820152601a60248201527f4e6f7420726561647920666f7220766572696669636174696f6e0000000000006044820152606490fd5b15612edc57565b60405162461bcd60e51b815260206004820152601560248201527414dbdb1d5d1a5bdb881b9bdd081c995d99585b1959605a1b6044820152606490fd5b9190820180921161106b57565b600019811461106b5760010190565b8181029291811591840414171561106b57565b8115612f52570490565b634e487b7160e01b600052601260045260246000fd5b9190820391821161106b57565b15612f7c57565b60405162461bcd60e51b8152602060048201526011602482015270105b1c9958591e481c1c9bd8d95cdcd959607a1b6044820152606490fd5b9060009182526006602052604082209060018060a01b0316825260205260408120549081156130045760648201809211612ff0575043111590565b634e487b7160e01b81526011600452602490fd5b90509056fea4ac4f52503c1a3d8fbfecbf4e407e779e161fb7ecbe9fb795087963514e07c5a2646970667358221220daec2e6e67020cc0703de1d2c1c94cf40df7f14de4ad196a5940870f59baa19964736f6c63430008140033",
  "linkReferences": {},
  "deployedLinkReferences": {}
}