{
  "_format": "hh-sol-artifact-1",
  "contractName": "Project",
  "sourceName": "contracts/core/Project.sol",
  "abi": [
    {
      "inputs": [
        {
          "internalType": "address",
          "name": "_atnToken",
          "type": "address"
        },
        {
          "internalType": "address",
          "name": "_governance",
          "type": "address"
        }
      ],
      "stateMutability": "nonpayable",
      "type": "constructor"
    },
    {
      "inputs": [
        {
          "internalType": "address",
          "name": "owner",
          "type": "address"
        }
      ],
      "name": "OwnableInvalidOwner",
      "type": "error"
    },
    {
      "inputs": [
        {
          "internalType": "address",
          "name": "account",
          "type": "address"
        }
      ],
      "name": "OwnableUnauthorizedAccount",
      "type": "error"
    },
    {
      "anonymous": false,
      "inputs": [
        {
          "indexed": true,
          "internalType": "uint256",
          "name": "projectId",
          "type": "uint256"
        },
        {
          "indexed": false,
          "internalType": "uint256",
          "name": "price",
          "type": "uint256"
        }
      ],
      "name": "InferencePriceSet",
      "type": "event"
    },
    {
      "anonymous": false,
      "inputs": [
        {
          "indexed": true,
          "internalType": "uint256",
          "name": "projectId",
          "type": "uint256"
        },
        {
          "indexed": true,
          "internalType": "address",
          "name": "user",
          "type": "address"
        },
        {
          "indexed": false,
          "internalType": "uint256",
          "name": "requestId",
          "type": "uint256"
        },
        {
          "indexed": false,
          "internalType": "string",
          "name": "inputCid",
          "type": "string"
        },
        {
          "indexed": false,
          "internalType": "uint256",
          "name": "fee",
          "type": "uint256"
        }
      ],
      "name": "InferenceRequested",
      "type": "event"
    },
    {
      "anonymous": false,
      "inputs": [
        {
          "indexed": true,
          "internalType": "uint256",
          "name": "projectId",
          "type": "uint256"
        },
        {
          "indexed": false,
          "internalType": "string",
          "name": "weightsCid",
          "type": "string"
        }
      ],
      "name": "MatureModelUpdated",
      "type": "event"
    },
    {
      "anonymous": false,
      "inputs": [
        {
          "indexed": true,
          "internalType": "address",
          "name": "previousOwner",
          "type": "address"
        },
        {
          "indexed": true,
          "internalType": "address",
          "name": "newOwner",
          "type": "address"
        }
      ],
      "name": "OwnershipTransferred",
      "type": "event"
    },
    {
      "anonymous": false,
      "inputs": [
        {
          "indexed": true,
          "internalType": "uint256",
          "name": "projectId",
          "type": "uint256"
        },
        {
          "indexed": true,
          "internalType": "address",
          "name": "founder",
          "type": "address"
        },
        {
          "indexed": false,
          "internalType": "string",
          "name": "name",
          "type": "string"
        },
        {
          "indexed": false,
          "internalType": "address",
          "name": "projectToken",
          "type": "address"
        }
      ],
      "name": "ProjectCreated",
      "type": "event"
    },
    {
      "anonymous": false,
      "inputs": [
        {
          "indexed": true,
          "internalType": "uint256",
          "name": "projectId",
          "type": "uint256"
        },
        {
          "indexed": true,
          "internalType": "address",
          "name": "funder",
          "type": "address"
        },
        {
          "indexed": false,
          "internalType": "uint256",
          "name": "atnAmount",
          "type": "uint256"
        },
        {
          "indexed": false,
          "internalType": "uint256",
          "name": "ptsIssued",
          "type": "uint256"
        }
      ],
      "name": "ProjectFunded",
      "type": "event"
    },
    {
      "anonymous": false,
      "inputs": [
        {
          "indexed": true,
          "internalType": "uint256",
          "name": "projectId",
          "type": "uint256"
        },
        {
          "indexed": false,
          "internalType": "enum AutonetLib.ProjectStatus",
          "name": "newStatus",
          "type": "uint8"
        }
      ],
      "name": "ProjectStatusChanged",
      "type": "event"
    },
    {
      "anonymous": false,
      "inputs": [
        {
          "indexed": true,
          "internalType": "uint256",
          "name": "projectId",
          "type": "uint256"
        },
        {
          "indexed": true,
          "internalType": "address",
          "name": "shareholder",
          "type": "address"
        },
        {
          "indexed": false,
          "internalType": "uint256",
          "name": "amount",
          "type": "uint256"
        }
      ],
      "name": "RevenueWithdrawn",
      "type": "event"
    },
    {
      "anonymous": false,
      "inputs": [
        {
          "indexed": true,
          "internalType": "uint256",
          "name": "projectId",
          "type": "uint256"
        },
        {
          "indexed": false,
          "internalType": "uint256",
          "name": "amount",
          "type": "uint256"
        }
      ],
      "name": "TaskBudgetAllocated",
      "type": "event"
    },
    {
      "inputs": [
        {
          "internalType": "uint256",
          "name": "_projectId",
          "type": "uint256"
        },
        {
          "internalType": "uint256",
          "name": "_amount",
          "type": "uint256"
        }
      ],
      "name": "allocateTaskBudget",
      "outputs": [],
      "stateMutability": "nonpayable",
      "type": "function"
    },
    {
      "inputs": [],
      "name": "atnToken",
      "outputs": [
        {
          "internalType": "contract ATNToken",
          "name": "",
          "type": "address"
        }
      ],
      "stateMutability": "view",
      "type": "function"
    },
    {
      "inputs": [
        {
          "internalType": "string",
          "name": "_name",
          "type": "string"
        },
        {
          "internalType": "string",
          "name": "_descriptionCid",
          "type": "string"
        },
        {
          "internalType": "uint256",
          "name": "_fundingGoalATN",
          "type": "uint256"
        },
        {
          "internalType": "uint256",
          "name": "_initialBudgetATN",
          "type": "uint256"
        },
        {
          "internalType": "uint256",
          "name": "_founderPTAmount",
          "type": "uint256"
        },
        {
          "internalType": "string",
          "name": "_ptName",
          "type": "string"
        },
        {
          "internalType": "string",
          "name": "_ptSymbol",
          "type": "string"
        }
      ],
      "name": "createProject",
      "outputs": [
        {
          "internalType": "uint256",
          "name": "projectId",
          "type": "uint256"
        }
      ],
      "stateMutability": "nonpayable",
      "type": "function"
    },
    {
      "inputs": [
        {
          "internalType": "uint256",
          "name": "_projectId",
          "type": "uint256"
        },
        {
          "internalType": "address",
          "name": "_recipient",
          "type": "address"
        },
        {
          "internalType": "uint256",
          "name": "_amount",
          "type": "uint256"
        }
      ],
      "name": "disburseFromBudget",
      "outputs": [
        {
          "internalType": "bool",
          "name": "",
          "type": "bool"
        }
      ],
      "stateMutability": "nonpayable",
      "type": "function"
    },
    {
      "inputs": [
        {
          "internalType": "uint256",
          "name": "",
          "type": "uint256"
        },
        {
          "internalType": "uint256",
          "name": "",
          "type": "uint256"
        }
      ],
      "name": "discountTiers",
      "outputs": [
        {
          "internalType": "uint256",
          "name": "ptThreshold",
          "type": "uint256"
        },
        {
          "internalType": "uint256",
          "name": "discountPermille",
          "type": "uint256"
        }
      ],
      "stateMutability": "view",
      "type": "function"
    },
    {
      "inputs": [
        {
          "internalType": "address",
          "name": "",
          "type": "address"
        },
        {
          "internalType": "uint256",
          "name": "",
          "type": "uint256"
        }
      ],
      "name": "founderProjects",
      "outputs": [
        {
          "internalType": "uint256",
          "name": "",
          "type": "uint256"
        }
      ],
      "stateMutability": "view",
      "type": "function"
    },
    {
      "inputs": [
        {
          "internalType": "uint256",
          "name": "_projectId",
          "type": "uint256"
        },
        {
          "internalType": "uint256",
          "name": "_atnAmount",
          "type": "uint256"
        },
        {
          "internalType": "uint256",
          "name": "_expectedPTs",
          "type": "uint256"
        }
      ],
      "name": "fundProject",
      "outputs": [],
      "stateMutability": "nonpayable",
      "type": "function"
    },
    {
      "inputs": [
        {
          "internalType": "uint256",
          "name": "_projectId",
          "type": "uint256"
        },
        {
          "internalType": "address",
          "name": "_user",
          "type": "address"
        }
      ],
      "name": "getEffectivePrice",
      "outputs": [
        {
          "internalType": "uint256",
          "name": "",
          "type": "uint256"
        }
      ],
      "stateMutability": "view",
      "type": "function"
    },
    {
      "inputs": [
        {
          "internalType": "uint256",
          "name": "_projectId",
          "type": "uint256"
        }
      ],
      "name": "getProjectToken",
      "outputs": [
        {
          "internalType": "address",
          "name": "",
          "type": "address"
        }
      ],
      "stateMutability": "view",
      "type": "function"
    },
    {
      "inputs": [],
      "name": "governance",
      "outputs": [
        {
          "internalType": "address",
          "name": "",
          "type": "address"
        }
      ],
      "stateMutability": "view",
      "type": "function"
    },
    {
      "inputs": [],
      "name": "nextInferenceRequestId",
      "outputs": [
        {
          "internalType": "uint256",
          "name": "",
          "type": "uint256"
        }
      ],
      "stateMutability": "view",
      "type": "function"
    },
    {
      "inputs": [],
      "name": "nextProjectId",
      "outputs": [
        {
          "internalType": "uint256",
          "name": "",
          "type": "uint256"
        }
      ],
      "stateMutability": "view",
      "type": "function"
    },
    {
      "inputs": [],
      "name": "owner",
      "outputs": [
        {
          "internalType": "address",
          "name": "",
          "type": "address"
        }
      ],
      "stateMutability": "view",
      "type": "function"
    },
    {
      "inputs": [
        {
          "internalType": "uint256",
          "name": "",
          "type": "uint256"
        }
      ],
      "name": "projects",
      "outputs": [
        {
          "internalType": "uint256",
          "name": "id",
          "type": "uint256"
        },
        {
          "internalType": "string",
          "name": "name",
          "type": "string"
        },
        {
          "internalType": "string",
          "name": "descriptionCid",
          "type": "string"
        },
        {
          "internalType": "address",
          "name": "founder",
          "type": "address"
        },
        {
          "internalType": "enum AutonetLib.ProjectStatus",
          "name": "status",
          "type": "uint8"
        },
        {
          "internalType": "uint256",
          "name": "creationTime",
          "type": "uint256"
        },
        {
          "internalType": "contract ProjectToken",
          "name": "projectToken",
          "type": "address"
        },
        {
          "internalType": "uint256",
          "name": "totalPTsIssued",
          "type": "uint256"
        },
        {
          "internalType": "uint256",
          "name": "fundingGoalATN",
          "type": "uint256"
        },
        {
          "internalType": "uint256",
          "name": "currentFundingATN",
          "type": "uint256"
        },
        {
          "internalType": "uint256",
          "name": "taskRewardBudgetATN",
          "type": "uint256"
        },
        {
          "internalType": "string",
          "name": "matureModelWeightsCid",
          "type": "string"
        },
        {
          "internalType": "uint256",
          "name": "atnPricePerInference",
          "type": "uint256"
        },
        {
          "internalType": "address",
          "name": "inferenceFeeRecipient",
          "type": "address"
        }
      ],
      "stateMutability": "view",
      "type": "function"
    },
    {
      "inputs": [],
      "name": "renounceOwnership",
      "outputs": [],
      "stateMutability": "nonpayable",
      "type": "function"
    },
    {
      "inputs": [
        {
          "internalType": "uint256",
          "name": "_projectId",
          "type": "uint256"
        },
        {
          "internalType": "string",
          "name": "_inputCid",
          "type": "string"
        }
      ],
      "name": "requestInference",
      "outputs": [
        {
          "internalType": "uint256",
          "name": "requestId",
          "type": "uint256"
        }
      ],
      "stateMutability": "nonpayable",
      "type": "function"
    },
    {
      "inputs": [
        {
          "internalType": "uint256",
          "name": "_projectId",
          "type": "uint256"
        },
        {
          "components": [
            {
              "internalType": "uint256",
              "name": "ptThreshold",
              "type": "uint256"
            },
            {
              "internalType": "uint256",
              "name": "discountPermille",
              "type": "uint256"
            }
          ],
          "internalType": "struct AutonetLib.DiscountTier[]",
          "name": "_tiers",
          "type": "tuple[]"
        }
      ],
      "name": "setDiscountTiers",
      "outputs": [],
      "stateMutability": "nonpayable",
      "type": "function"
    },
    {
      "inputs": [
        {
          "internalType": "address",
          "name": "_newGovernance",
          "type": "address"
        }
      ],
      "name": "setGovernance",
      "outputs": [],
      "stateMutability": "nonpayable",
      "type": "function"
    },
    {
      "inputs": [
        {
          "internalType": "uint256",
          "name": "_projectId",
          "type": "uint256"
        },
        {
          "internalType": "string",
          "name": "_weightsCid",
          "type": "string"
        },
        {
          "internalType": "uint256",
          "name": "_price",
          "type": "uint256"
        }
      ],
      "name": "setMatureModel",
      "outputs": [],
      "stateMutability": "nonpayable",
      "type": "function"
    },
    {
      "inputs": [
        {
          "internalType": "address",
          "name": "newOwner",
          "type": "address"
        }
      ],
      "name": "transferOwnership",
      "outputs": [],
      "stateMutability": "nonpayable",
      "type": "function"
    },
    {
      "inputs": [
        {
          "internalType": "uint256",
          "name": "_projectId",
          "type": "uint256"
        },
        {
          "internalType": "enum AutonetLib.ProjectStatus",
          "name": "_newStatus",
          "type": "uint8"
        }
      ],
      "name": "updateStatus",
      "outputs": [],
      "stateMutability": "nonpayable",
      "type": "function"
    },
    {
      "inputs": [
        {
          "internalType": "uint256",
          "name": "_projectId",
          "type": "uint256"
        }
      ],
      "name": "withdrawRevenue",
      "outputs": [],
      "stateMutability": "nonpayable",
      "type": "function"
    },
    {
      "inputs": [
        {
          "internalType": "uint256",
          "name": "",
          "type": "uint256"
        },
        {
          "internalType": "address",
          "name": "",
          "type": "address"
        }
      ],
      "name": "withdrawnRevenue",
      "outputs": [
        {
          "internalType": "uint256",
          "name": "",
          "type": "uint256"
        }
      ],
      "stateMutability": "view",
      "type": "function"
    }
  ],
  "bytecode": "0x60a0346200011057601f6200310138819003918201601f19168301916001600160401b038311848410176200011557808492604094855283398101031262000110576200005a602062000052836200012b565b92016200012b565b3315620000f75760008054336001600160a01b0319808316821784556040519590946001600160a01b03949093859391908416907f8be0079c531659141344cd1fd0a4f28419497f9722a3daafe3b4186f6b6457e09080a360016002551660805216906001541617600155612fc090816200014182396080518181816105000152818161067801528181610917015281816114a701526118f80152f35b604051631e4fbdf760e01b815260006004820152602490fd5b600080fd5b634e487b7160e01b600052604160045260246000fd5b51906001600160a01b0382168203620001105756fe608060405260043610156200001357600080fd5b6000803560e01c80630ceff2041462001847578063107046bd146200171f57806318162a9c14620016ff57806324cfd98d14620015f357806330b3787714620013c057806332d0009d14620013785780633a1b3d31146200129f578063513dc2ea1462000d3a578063588f666f1462000ad85780635a4759d214620008825780635aa6e6751462000857578063715018a614620007f9578063817ab0cf14620007ad5780638da5cb5b1462000784578063ab033ea91462000739578063ab6e518714620005c1578063c25578ac1462000564578063ce0b08fb146200052f578063e8852afd14620004e8578063e935b7b114620004c8578063f0a101371462000490578063f2fde38b14620003f95763fe131ab0146200013257600080fd5b34620003f6576060366003190112620003f6576001600160401b0390600435602435838111620003f2576200016c90369060040162001d94565b604435828452600390602092828452620001ba60018060a01b03808560408a2001541633148015620003e4575b620001a49062001f69565b8688528486528460408920015416151562001ebc565b8486528284526040862096600a8801908251908111620003d057620001e0825462001bd7565b601f811162000387575b5085601f8211600114620002c357967f719a2db37994b4af2103552cf2fb30f352023c8bc4b753d4cb680f66b14cd83a620002a37feed8a2a1c87eeaab000113539a2ccdc1fed37c38ad3c57da403a59f72bd0b96895888c9d8b9787879f9860008051602062002f6b8339815191529f899d9a91620002b7575b508160011b9160001990861b1c19161790555b600b810187905501805460ff60a01b1916600360a01b1790556040518681529182918783019062001d12565b0390a2604051908152a2604051908152a280f35b90508501513862000264565b82895286892090601f1983168a5b8181106200036f57507feed8a2a1c87eeaab000113539a2ccdc1fed37c38ad3c57da403a59f72bd0b96895888b9c9d8b9760018860008051602062002f6b8339815191529f9c99987f719a2db37994b4af2103552cf2fb30f352023c8bc4b753d4cb680f66b14cd83a988e9a620002a3991062000356575b5050811b01905562000277565b87015160001983881b60f8161c19169055388062000349565b91928960018192868a015181550194019201620002d1565b828952868920601f830160051c810191888410620003c5575b601f0160051c01905b818110620003b85750620001ea565b60008155600101620003a9565b9091508190620003a0565b634e487b7160e01b88526041600452602488fd5b506001548116331462000199565b8280fd5b80fd5b5034620003f6576020366003190112620003f6576200041762001e06565b6200042162001e69565b6001600160a01b039081169081156200047757600054826bffffffffffffffffffffffff60a01b821617600055167f8be0079c531659141344cd1fd0a4f28419497f9722a3daafe3b4186f6b6457e0600080a380f35b604051631e4fbdf760e01b815260048101849052602490fd5b5034620003f6576020366003190112620003f6576020906004358152600382526005604060018060a01b039220015416604051908152f35b5034620003f65780600319360112620003f6576020600254604051908152f35b5034620003f65780600319360112620003f6576040517f00000000000000000000000000000000000000000000000000000000000000006001600160a01b03168152602090f35b5034620003f6576040366003190112620003f65760206200055c6200055362001def565b60043562001fd8565b604051908152f35b5034620003f6576040366003190112620003f6576200058262001e06565b6001600160a01b0316815260066020526040812080546024359290831015620003f6576020620005b3848462001e50565b90546040519160031b1c8152f35b5034620003f6576060366003190112620003f657600435620005e262001def565b90604435908084526020926003845260018060a01b03916200060f83600360408920015416151562001ebc565b855260038452600960408620018054848110620006fe57918593916200063b8662000674979562001fca565b905560405163a9059cbb60e01b81526001600160a01b039091166004820152602481019290925290928391908290879082906044820190565b03927f0000000000000000000000000000000000000000000000000000000000000000165af1908115620006f357620006b6929391620006bf575b5062001f1c565b60405160018152f35b620006e49150833d8511620006eb575b620006db818362001c3e565b81019062001f02565b38620006af565b503d620006cf565b6040513d85823e3d90fd5b60405162461bcd60e51b8152600481018790526013602482015272125b9cdd59999a58da595b9d08189d5919d95d606a1b6044820152606490fd5b5034620003f6576020366003190112620003f6576200075762001e06565b6200076162001e69565b60018060a01b03166bffffffffffffffffffffffff60a01b600154161760015580f35b5034620003f65780600319360112620003f657546040516001600160a01b039091168152602090f35b5034620003f657620007bf3662001d78565b91908152600460205260408120908154831015620003f6576040620007e5848462001e1d565b506001815491015482519182526020820152f35b5034620003f65780600319360112620003f6576200081662001e69565b600080546001600160a01b0319811682556001600160a01b03167f8be0079c531659141344cd1fd0a4f28419497f9722a3daafe3b4186f6b6457e08280a380f35b5034620003f65780600319360112620003f6576001546040516001600160a01b039091168152602090f35b5034620003f6576060366003190112620003f6576004356024356044358284526020906003825260018060a01b0390620008c782600360408920015416151562001ebc565b848652600383526040862091600383019460ff865460a01c16600681101562000ac45762000a88576040516323b872dd60e01b81523360048201523060248201526044810182905285816064818c7f000000000000000000000000000000000000000000000000000000000000000088165af1801562000a7d5762000954918a9162000a62575062001f1c565b8760088501926200096783855462001f5b565b8455600586015416803b1562000a5e576040516340c10f1960e01b8152336004820152602481018690529082908290604490829084905af1801562000a535762000a37575b505060079260068501620009c282825462001f5b565b905560405191825285820152867f2c26a9d48bfcf6dc8a28b936f0aa3b166a0119134df865f480007cc6f1a9b19760403393a354910154111562000a04578380f35b815460ff60a01b1916600160a01b179091556040516001815260008051602062002f6b8339815191529190a23880808380f35b62000a429062001c14565b62000a4f578738620009ac565b8780fd5b6040513d84823e3d90fd5b5080fd5b620006e49150873d8911620006eb57620006db818362001c3e565b6040513d8b823e3d90fd5b60405162461bcd60e51b81526004810186905260146024820152734e6f7420696e2066756e64696e6720706861736560601b6044820152606490fd5b634e487b7160e01b89526021600452602489fd5b5034620003f6576040366003190112620003f65760043560249182356001600160401b0390818111620003f25736602382011215620003f25780600401359082821162000d27576040519060209260059462000b398583881b018562001c3e565b818452888585019260061b8401019236841162000a4f578901915b83831062000cd35750505085855250600380835260408520015462000bab906001600160a01b039081163314801562000cc5575b62000b939062001f69565b86865260038452600360408720015416151562001ebc565b84845260048252604084208054908581558162000c71575b5050835b815181101562000c6d578585526004835260408520825182101562000c5a578382861b84010151908054600160401b81101562000c475762000c1190600192838201815562001e1d565b92909262000c34578051835585015191015562000c2e9062001e96565b62000bc7565b634e487b7160e01b885260048890528988fd5b634e487b7160e01b885260416004528988fd5b634e487b7160e01b865260326004528786fd5b8480f35b6001600160ff1b038216820362000cb257855282852090600190811b8201915b82811062000ca0575062000bc3565b60008082558282015560020162000c91565b634e487b7160e01b865260116004528786fd5b506001548116331462000b88565b60408336031262000a4f576040519060408201908282108483111762000d12576040928892845285358152828601358382015281520192019162000b54565b8b634e487b7160e01b60005260416004526000fd5b634e487b7160e01b845260416004528584fd5b5034620003f65760e0366003190112620003f6576004356001600160401b03811162000a5e5762000d7090369060040162001d94565b906024356001600160401b03811162000a5e5762000d9390369060040162001d94565b60a4356001600160401b038111620003f25762000db590369060040162001d94565b9160c4356001600160401b03811162000a5e5762000dd890369060040162001d94565b6002549362000de78562001e96565b60025560443560643511620012645760405191610e0c91828401928484106001600160401b0385111762001250579162000e3762000e46928695946200215f873960608552606085019062001d12565b90838203602085015262001d12565b90604030910152039082f091821562001243578382526003602052604082209084825585516001600160401b0381116200116b5762000e89600184015462001bd7565b601f8111620011fa575b50806020601f82116001146200118b5785916200117f575b508160011b916000199060031b1c19161760018301555b8051906001600160401b0382116200116b57819062000ee5600285015462001bd7565b601f811162001116575b50602090601f8311600114620010a75785926200109b575b50508160011b916000199060031b1c19161760028201555b6003810180546001600160a81b0319163360ff60a01b19161790554260048201556005810180546001600160a01b03199081166001600160a01b0390951694851790915560443560078301556064356009830155600c8201805490911630179055608435908162001034575b5050338152600660205260408120805491600160401b83101562001020575060209462000fe1837f1846f69aa129d4d2ff2571d6357d5df660cfe55735967c4b882a40c9cca1aaec936001889601815562001e50565b81549060031b9085821b91600019901b19161790556200100d6040519160408352604083019062001d12565b93868201528033940390a3604051908152f35b634e487b7160e01b81526041600452602490fd5b833b15620003f2576040516340c10f1960e01b815233600482015260248101839052838160448183895af18015620010905762001079575b5060060155388062000f8b565b92620010886006929462001c14565b92906200106c565b6040513d86823e3d90fd5b01519050388062000f07565b600285018652602086209250601f198416865b818110620010fd5750908460019594939210620010e3575b505050811b01600282015562000f1f565b015160001960f88460031b161c19169055388080620010d2565b92936020600181928786015181550195019301620010ba565b90915060028401855260208520601f840160051c81016020851062001163575b90849392915b601f830160051c820181106200115457505062000eef565b8781558594506001016200113c565b508062001136565b634e487b7160e01b84526041600452602484fd5b90508701513862000eab565b91506001840185526020852085925b601f1983168410620011e1576001935082601f19811610620011c7575b5050811b01600183015562000ec2565b89015160001960f88460031b161c191690553880620011b7565b898101518255602093840193600190920191016200119a565b60018401855260208520601f830160051c8101602084106200123b575b601f830160051c820181106200122f57505062000e93565b86815560010162001217565b508062001217565b50604051903d90823e3d90fd5b634e487b7160e01b86526041600452602486fd5b60405162461bcd60e51b8152602060048201526013602482015272109d5919d95d08195e18d959591cc819dbd85b606a1b6044820152606490fd5b5034620003f6576040366003190112620003f6576004356024356006811015620003f2576001546001600160a01b039081163303620013425760008051602062002f6b833981519152916200130860209285875260038452600360408820015416151562001ebc565b83855260038083526040808720909101805460ff60a01b191660a084901b60ff60a01b1617905551906200133e90829062001d54565ba280f35b60405162461bcd60e51b815260206004820152600e60248201526d4e6f7420676f7665726e616e636560901b6044820152606490fd5b5034620003f6576040366003190112620003f65760406020916200139b62001def565b6004358252600584528282206001600160a01b03909116825283522054604051908152f35b5034620003f6576040366003190112620003f6576004356024356001600160401b038111620003f257620013f990369060040162001d94565b908083526020926003845260018060a01b036200142181600360408520015416151562001ebc565b82825260038552604082209060ff600383015460a01c166006811015620015df57600303620015ab5785600c94939282620014a39362001462338862001fd8565b97909201546040516323b872dd60e01b815233600482015292166001600160a01b031660248301526044820187905290928391908290869082906064820190565b03927f0000000000000000000000000000000000000000000000000000000000000000165af19182156200159f57916200157d575b501562001542577fd0160108bfe6a52c758ef533d93adfe7183af273e28ba2b982455088eeadbf6c600754936200150f8562001e96565b6007556200152e60405191868352606088840152606083019062001d12565b9360408201528033940390a3604051908152f35b60405162461bcd60e51b8152600481018590526013602482015272119959481d1c985b9cd9995c8819985a5b1959606a1b6044820152606490fd5b620015989150853d8711620006eb57620006db818362001c3e565b38620014d8565b604051903d90823e3d90fd5b60405162461bcd60e51b815260048101879052600c60248201526b139bdd0819195c1b1bde595960a21b6044820152606490fd5b634e487b7160e01b84526021600452602484fd5b5034620003f657620016053662001d78565b81835260036020526200165060018060a01b038060036040872001541633148015620016f1575b620016379062001f69565b8385526003602052600360408620015416151562001ebc565b8183526003602052604083206009600882015491019182549162001675828462001f5b565b11620016b7577f37310361c7b58cdab38c0fa50d871d79ac288cad80469142521dfab48b87db7492620016ab8260209462001f5b565b9055604051908152a280f35b60405162461bcd60e51b8152602060048201526012602482015271496e73756666696369656e742066756e647360701b6044820152606490fd5b50600154811633146200162c565b5034620003f65780600319360112620003f6576020600754604051908152f35b5034620003f6576020366003190112620003f65760043581526003602052604090208054620017516001830162001c60565b91620017606002820162001c60565b60038201546004830154600584015460068501546007860154600887015460098801546001600160a01b03959094919391861690620017a2600a8b0162001c60565b9787600b8c01549b600c015416996040519d8e9d8e528d6101c09081602082015201620017cf9162001d12565b8d810360408f0152620017e29162001d12565b97811660608d015260808c019060a01c60ff1690620018019162001d54565b60a08b015260c08a015260e0890152610100880152610120870152610140860152848103610160860152620018369162001d12565b916101808401526101a08301520390f35b5034620003f65760208060031936011262000a5e5760043580835260038083526040842001546001600160a01b039062001885908216151562001ebc565b81845260038352604084209060ff600383015460a01c16600681101562001bc35760030362001b85576006820154801562001b5057816005840154166040519286846024816370a0823160e01b958682523360048301525afa93841562001ad957889462001b1b575b50831562001ae4577f000000000000000000000000000000000000000000000000000000000000000016936040519182523060048301528682602481885afa91821562001ad957889262001aa3575b50600801548082111562001a9957620019569162001fca565b905b670de0b6b3a764000092838102908104840362001a8557906200197e9291049062001fb6565b04828552600584526040852033865284526040852054908181111562001a4a5790620019aa9162001fca565b928285526005815260408520338652815260408520620019cc85825462001f5b565b905560405163a9059cbb60e01b8152336004820152602481018590529181908390604490829089905af191821562001a3f577f841fbab03327efe47fb7d133055c9aa87df38ff76b5919d1c190e0067c5e34b39262001a33918791620006bf575062001f1c565b6040519384523393a380f35b6040513d87823e3d90fd5b60405162461bcd60e51b81526004810186905260136024820152724e6f7468696e6720746f20776974686472617760681b6044820152606490fd5b634e487b7160e01b88526011600452602488fd5b5050859062001958565b9091508681813d831162001ad1575b62001abe818362001c3e565b8101031262000a4f57519060086200193d565b503d62001ab2565b6040513d8a823e3d90fd5b60405162461bcd60e51b815260048101889052600f60248201526e2737ba103090282a103437b63232b960891b6044820152606490fd5b9093508681813d831162001b48575b62001b36818362001c3e565b8101031262000a4f57519238620018ee565b503d62001b2a565b60405162461bcd60e51b815260048101869052600d60248201526c139bc814151cc81a5cdcdd5959609a1b6044820152606490fd5b60405162461bcd60e51b81526004810185905260166024820152754e6f742067656e65726174696e6720726576656e756560501b6044820152606490fd5b634e487b7160e01b86526021600452602486fd5b90600182811c9216801562001c09575b602083101462001bf357565b634e487b7160e01b600052602260045260246000fd5b91607f169162001be7565b6001600160401b03811162001c2857604052565b634e487b7160e01b600052604160045260246000fd5b90601f801991011681019081106001600160401b0382111762001c2857604052565b906040519182600082549262001c768462001bd7565b90818452600194858116908160001462001ced575060011462001ca6575b505062001ca49250038362001c3e565b565b9093915060005260209081600020936000915b81831062001cd457505062001ca49350820101388062001c94565b8554888401850152948501948794509183019162001cb9565b91505062001ca494506020925060ff191682840152151560051b820101388062001c94565b919082519283825260005b84811062001d3f575050826000602080949584010152601f8019910116010190565b60208183018101518483018201520162001d1d565b90600682101562001d625752565b634e487b7160e01b600052602160045260246000fd5b604090600319011262001d8f576004359060243590565b600080fd5b81601f8201121562001d8f578035906001600160401b03821162001c28576040519262001dcc601f8401601f19166020018562001c3e565b8284526020838301011162001d8f57816000926020809301838601378301015290565b602435906001600160a01b038216820362001d8f57565b600435906001600160a01b038216820362001d8f57565b805482101562001e3a5760005260206000209060011b0190600090565b634e487b7160e01b600052603260045260246000fd5b805482101562001e3a5760005260206000200190600090565b6000546001600160a01b0316330362001e7e57565b60405163118cdaa760e01b8152336004820152602490fd5b600019811462001ea65760010190565b634e487b7160e01b600052601160045260246000fd5b1562001ec457565b60405162461bcd60e51b8152602060048201526016602482015275141c9bda9958dd08191bd95cc81b9bdd08195e1a5cdd60521b6044820152606490fd5b9081602091031262001d8f5751801515810362001d8f5790565b1562001f2457565b60405162461bcd60e51b815260206004820152600f60248201526e151c985b9cd9995c8819985a5b1959608a1b6044820152606490fd5b9190820180921162001ea657565b1562001f7157565b60405162461bcd60e51b815260206004820152601960248201527f4e6f7420666f756e646572206f7220676f7665726e616e6365000000000000006044820152606490fd5b8181029291811591840414171562001ea657565b9190820391821162001ea657565b6000908082526020926003845260408320908460018060a01b036024816005860154169360405194859384926370a0823160e01b84521660048301525afa9081156200109057849162002127575b5083928452600485526040842084918154925b838110620020be57505050506103e893848311620020875750600b015490830391838311620020735750906200206f9162001fb6565b0490565b634e487b7160e01b81526011600452602490fd5b6064906040519062461bcd60e51b82526004820152601060248201526f125b9d985b1a5908191a5cd8dbdd5b9d60821b6044820152fd5b620020ca818462001e1d565b5054821015806200210d575b620020ed575b620020e79062001e96565b62002039565b9450620020e7600162002101878562001e1d565b500154959050620020dc565b508560016200211d838662001e1d565b50015411620020d6565b90508481813d831162002156575b62002141818362001c3e565b810103126200215257513862002026565b8380fd5b503d6200213556fe608060405234620003945762000e0c803803806200001d8162000399565b9283398101606082820312620003945781516001600160401b0391908281116200039457816200004f918501620003bf565b6020918285015184811162000394576040916200006e918701620003bf565b9401516001600160a01b039485821694918590036200039457825182811162000294576003918254916001958684811c9416801562000389575b8885101462000373578190601f948581116200031d575b508890858311600114620002b657600092620002aa575b505060001982861b1c191690861b1783555b8051938411620002945760049586548681811c9116801562000289575b82821014620002745783811162000229575b5080928511600114620001bb5750938394918492600095620001af575b50501b92600019911b1c19161781555b8115620001975750600580546001600160a01b03198116831790915560405192167f8be0079c531659141344cd1fd0a4f28419497f9722a3daafe3b4186f6b6457e0600080a36109da9081620004328239f35b602490600060405191631e4fbdf760e01b8352820152fd5b01519350388062000134565b92919084601f1981168860005285600020956000905b898383106200020e5750505010620001f3575b50505050811b01815562000144565b01519060f884600019921b161c1916905538808080620001e4565b858701518955909701969485019488935090810190620001d1565b87600052816000208480880160051c8201928489106200026a575b0160051c019087905b8281106200025d57505062000117565b600081550187906200024d565b9250819262000244565b602288634e487b7160e01b6000525260246000fd5b90607f169062000105565b634e487b7160e01b600052604160045260246000fd5b015190503880620000d6565b90889350601f19831691876000528a6000209260005b8c828210620003065750508411620002ed575b505050811b018355620000e8565b015160001983881b60f8161c19169055388080620002df565b8385015186558c97909501949384019301620002cc565b90915085600052886000208580850160051c8201928b861062000369575b918a91869594930160051c01915b82811062000359575050620000bf565b600081558594508a910162000349565b925081926200033b565b634e487b7160e01b600052602260045260246000fd5b93607f1693620000a8565b600080fd5b6040519190601f01601f191682016001600160401b038111838210176200029457604052565b919080601f84011215620003945782516001600160401b0381116200029457602090620003f5601f8201601f1916830162000399565b92818452828287010111620003945760005b8181106200041d57508260009394955001015290565b85810183015184820184015282016200040756fe6080604081815260048036101561001557600080fd5b600092833560e01c90816306fdde031461068c57508063095ea7b3146105e357806318160ddd146105c457806323b872dd146104d1578063313ce567146104b557806340c10f191461040657806342966c68146103e857806370a08231146103b1578063715018a61461035457806379cc6790146103215780638da5cb5b146102f857806395d89b41146101d8578063a9059cbb146101a7578063dd62ed3e1461015a5763f2fde38b146100c857600080fd5b34610156576020366003190112610156576100e16107ca565b906100ea6107fb565b6001600160a01b03918216928315610140575050600554826bffffffffffffffffffffffff60a01b821617600555167f8be0079c531659141344cd1fd0a4f28419497f9722a3daafe3b4186f6b6457e08380a380f35b51631e4fbdf760e01b8152908101849052602490fd5b8280fd5b5050346101a357806003193601126101a357806020926101786107ca565b6101806107e5565b6001600160a01b0391821683526001865283832091168252845220549051908152f35b5080fd5b5050346101a357806003193601126101a3576020906101d16101c76107ca565b6024359033610827565b5160018152f35b509190346101a357816003193601126101a357805190828454600181811c908083169283156102ee575b60209384841081146102db578388529081156102bf575060011461026a575b505050829003601f01601f191682019267ffffffffffffffff8411838510176102575750829182610253925282610781565b0390f35b634e487b7160e01b815260418552602490fd5b8787529192508591837f8a35acfbc15ff81a39ae7d344fd709f28e8600b4aa8c65c6b64bfe7fe36bd19b5b8385106102ab5750505050830101388080610221565b805488860183015293019284908201610295565b60ff1916878501525050151560051b8401019050388080610221565b634e487b7160e01b895260228a52602489fd5b91607f1691610202565b5050346101a357816003193601126101a35760055490516001600160a01b039091168152602090f35b5050346101a3573660031901126103515761034e61033d6107ca565b6103456107fb565b60243590610905565b80f35b80fd5b833461035157806003193601126103515761036d6107fb565b600580546001600160a01b0319811690915581906001600160a01b03167f8be0079c531659141344cd1fd0a4f28419497f9722a3daafe3b4186f6b6457e08280a380f35b5050346101a35760203660031901126101a35760209181906001600160a01b036103d96107ca565b16815280845220549051908152f35b8382346101a35760203660031901126101a35761034e903533610905565b5090346101565780600319360112610156576104206107ca565b906024359161042d6107fb565b6001600160a01b03169283156104a0576002549083820180921161048d575084927fddf252ad1be2c89b69c2b068fc378daa952ba7f163c4a11628f55a4df523b3ef9260209260025585855284835280852082815401905551908152a380f35b634e487b7160e01b865260119052602485fd5b84602492519163ec442f0560e01b8352820152fd5b5050346101a357816003193601126101a3576020905160128152f35b508234610351576060366003190112610351576104ec6107ca565b6104f46107e5565b916044359360018060a01b038316808352600160205286832033845260205286832054916000198310610530575b6020886101d1898989610827565b86831061059857811561058157331561056a575082526001602090815286832033845281529186902090859003905582906101d187610522565b8751634a1406b160e11b8152908101849052602490fd5b875163e602df0560e01b8152908101849052602490fd5b8751637dc7a0d960e11b8152339181019182526020820193909352604081018790528291506060010390fd5b5050346101a357816003193601126101a3576020906002549051908152f35b50346101565781600319360112610156576105fc6107ca565b602435903315610675576001600160a01b031691821561065e57508083602095338152600187528181208582528752205582519081527f8c5be1e5ebec7d5bd14f71427d1e84f3dd0314c0f7b2291e5b200ac8c7c3b925843392a35160018152f35b8351634a1406b160e11b8152908101859052602490fd5b835163e602df0560e01b8152808401869052602490fd5b849150833461015657826003193601126101565782600354600181811c90808316928315610777575b60209384841081146102db5783885290811561075b575060011461070557505050829003601f01601f191682019267ffffffffffffffff8411838510176102575750829182610253925282610781565b600387529192508591837fc2575a0e9e593c00f959f8c92f12db2869c3395a3b0502d05e2516446f71f85b5b8385106107475750505050830101858080610221565b805488860183015293019284908201610731565b60ff1916878501525050151560051b8401019050858080610221565b91607f16916106b5565b6020808252825181830181905290939260005b8281106107b657505060409293506000838284010152601f8019910116010190565b818101860151848201604001528501610794565b600435906001600160a01b03821682036107e057565b600080fd5b602435906001600160a01b03821682036107e057565b6005546001600160a01b0316330361080f57565b60405163118cdaa760e01b8152336004820152602490fd5b916001600160a01b038084169283156108ec57169283156108d357600090838252816020526040822054908382106108a1575091604082827fddf252ad1be2c89b69c2b068fc378daa952ba7f163c4a11628f55a4df523b3ef958760209652828652038282205586815220818154019055604051908152a3565b60405163391434e360e21b81526001600160a01b03919091166004820152602481019190915260448101839052606490fd5b60405163ec442f0560e01b815260006004820152602490fd5b604051634b637e8f60e11b815260006004820152602490fd5b906001600160a01b0382169081156108ec57600092828452836020526040842054908282106109725750817fddf252ad1be2c89b69c2b068fc378daa952ba7f163c4a11628f55a4df523b3ef926020928587528684520360408620558060025403600255604051908152a3565b60405163391434e360e21b81526001600160a01b03919091166004820152602481019190915260448101829052606490fdfea2646970667358221220815e1d25b8b639e5a2b69b5ff04f6eab6b7058e97f402b0c81e03b3536a54d4364736f6c6343000814003335872be4c2085eaf9ca9a10d056eefec79968f825846792411ede75f331e9392a264697066735822122079d33a8da4ca883c9493bc593390e279dfe83e5414338f99888ae2ead49256f164736f6c63430008140033",
  "linkReferences": {},
  "deployedLinkReferences": {}
}