{
  "_format": "hh-sol-artifact-1",
  "contractName": "Project",
  "sourceName": "contracts/core/Project.sol",
  "abi": [
    {
      "inputs": [
        {
          "internalType": "address",
          "name": "_atnToken",
          "type": "address"
        },
        {
          "internalType": "address",
          "name": "_governance",
          "type": "address"
        }
      ],
      "stateMutability": "nonpayable",
      "type": "constructor"
    },
    {
      "inputs": [
        {
          "internalType": "address",
          "name": "owner",
          "type": "address"
        }
      ],
      "name": "OwnableInvalidOwner",
      "type": "error"
    },
    {
      "inputs": [
        {
          "internalType": "address",
          "name": "account",
          "type": "address"
        }
      ],
      "name": "OwnableUnauthorizedAccount",
      "type": "error"
    },
    {
      "anonymous": false,
      "inputs": [
        {
          "indexed": true,
          "internalType": "address",
          "name": "disburser",
          "type": "address"
        },
        {
          "indexed": false,
          "internalType": "bool",
          "name": "authorized",
          "type": "bool"
        }
      ],
      "name": "DisburserAuthorized",
      "type": "event"
    },
    {
      "anonymous": false,
      "inputs": [
        {
          "indexed": true,
          "internalType": "uint256",
          "name": "projectId",
          "type": "uint256"
        },
        {
          "indexed": false,
          "internalType": "uint256",
          "name": "price",
          "type": "uint256"
        }
      ],
      "name": "InferencePriceSet",
      "type": "event"
    },
    {
      "anonymous": false,
      "inputs": [
        {
          "indexed": true,
          "internalType": "uint256",
          "name": "projectId",
          "type": "uint256"
        },
        {
          "indexed": true,
          "internalType": "address",
          "name": "user",
          "type": "address"
        },
        {
          "indexed": false,
          "internalType": "uint256",
          "name": "requestId",
          "type": "uint256"
        },
        {
          "indexed": false,
          "internalType": "string",
          "name": "inputCid",
          "type": "string"
        },
        {
          "indexed": false,
          "internalType": "uint256",
          "name": "fee",
          "type": "uint256"
        }
      ],
      "name": "InferenceRequested",
      "type": "event"
    },
    {
      "anonymous": false,
      "inputs": [
        {
          "indexed": true,
          "internalType": "uint256",
          "name": "projectId",
          "type": "uint256"
        },
        {
          "indexed": false,
          "internalType": "string",
          "name": "weightsCid",
          "type": "string"
        }
      ],
      "name": "MatureModelUpdated",
      "type": "event"
    },
    {
      "anonymous": false,
      "inputs": [
        {
          "indexed": true,
          "internalType": "address",
          "name": "setter",
          "type": "address"
        },
        {
          "indexed": false,
          "internalType": "bool",
          "name": "authorized",
          "type": "bool"
        }
      ],
      "name": "ModelSetterAuthorized",
      "type": "event"
    },
    {
      "anonymous": false,
      "inputs": [
        {
          "indexed": true,
          "internalType": "address",
          "name": "previousOwner",
          "type": "address"
        },
        {
          "indexed": true,
          "internalType": "address",
          "name": "newOwner",
          "type": "address"
        }
      ],
      "name": "OwnershipTransferred",
      "type": "event"
    },
    {
      "anonymous": false,
      "inputs": [
        {
          "indexed": true,
          "internalType": "uint256",
          "name": "projectId",
          "type": "uint256"
        },
        {
          "indexed": true,
          "internalType": "address",
          "name": "founder",
          "type": "address"
        },
        {
          "indexed": false,
          "internalType": "string",
          "name": "name",
          "type": "string"
        },
        {
          "indexed": false,
          "internalType": "address",
          "name": "projectToken",
          "type": "address"
        }
      ],
      "name": "ProjectCreated",
      "type": "event"
    },
    {
      "anonymous": false,
      "inputs": [
        {
          "indexed": true,
          "internalType": "uint256",
          "name": "projectId",
          "type": "uint256"
        },
        {
          "indexed": true,
          "internalType": "address",
          "name": "funder",
          "type": "address"
        },
        {
          "indexed": false,
          "internalType": "uint256",
          "name": "atnAmount",
          "type": "uint256"
        },
        {
          "indexed": false,
          "internalType": "uint256",
          "name": "ptsIssued",
          "type": "uint256"
        }
      ],
      "name": "ProjectFunded",
      "type": "event"
    },
    {
      "anonymous": false,
      "inputs": [
        {
          "indexed": true,
          "internalType": "uint256",
          "name": "projectId",
          "type": "uint256"
        },
        {
          "indexed": false,
          "internalType": "enum AutonetLib.ProjectStatus",
          "name": "newStatus",
          "type": "uint8"
        }
      ],
      "name": "ProjectStatusChanged",
      "type": "event"
    },
    {
      "anonymous": false,
      "inputs": [
        {
          "indexed": true,
          "internalType": "uint256",
          "name": "projectId",
          "type": "uint256"
        },
        {
          "indexed": true,
          "internalType": "address",
          "name": "shareholder",
          "type": "address"
        },
        {
          "indexed": false,
          "internalType": "uint256",
          "name": "amount",
          "type": "uint256"
        }
      ],
      "name": "RevenueWithdrawn",
      "type": "event"
    },
    {
      "anonymous": false,
      "inputs": [
        {
          "indexed": true,
          "internalType": "uint256",
          "name": "projectId",
          "type": "uint256"
        },
        {
          "indexed": false,
          "internalType": "uint256",
          "name": "amount",
          "type": "uint256"
        }
      ],
      "name": "TaskBudgetAllocated",
      "type": "event"
    },
    {
      "inputs": [
        {
          "internalType": "uint256",
          "name": "_projectId",
          "type": "uint256"
        },
        {
          "internalType": "uint256",
          "name": "_amount",
          "type": "uint256"
        }
      ],
      "name": "allocateTaskBudget",
      "outputs": [],
      "stateMutability": "nonpayable",
      "type": "function"
    },
    {
      "inputs": [],
      "name": "atnToken",
      "outputs": [
        {
          "internalType": "contract ATNToken",
          "name": "",
          "type": "address"
        }
      ],
      "stateMutability": "view",
      "type": "function"
    },
    {
      "inputs": [
        {
          "internalType": "address",
          "name": "",
          "type": "address"
        }
      ],
      "name": "authorizedDisbursers",
      "outputs": [
        {
          "internalType": "bool",
          "name": "",
          "type": "bool"
        }
      ],
      "stateMutability": "view",
      "type": "function"
    },
    {
      "inputs": [
        {
          "internalType": "address",
          "name": "",
          "type": "address"
        }
      ],
      "name": "authorizedModelSetters",
      "outputs": [
        {
          "internalType": "bool",
          "name": "",
          "type": "bool"
        }
      ],
      "stateMutability": "view",
      "type": "function"
    },
    {
      "inputs": [
        {
          "internalType": "string",
          "name": "_name",
          "type": "string"
        },
        {
          "internalType": "string",
          "name": "_descriptionCid",
          "type": "string"
        },
        {
          "internalType": "uint256",
          "name": "_fundingGoalATN",
          "type": "uint256"
        },
        {
          "internalType": "uint256",
          "name": "_initialBudgetATN",
          "type": "uint256"
        },
        {
          "internalType": "uint256",
          "name": "_founderPTAmount",
          "type": "uint256"
        },
        {
          "internalType": "string",
          "name": "_ptName",
          "type": "string"
        },
        {
          "internalType": "string",
          "name": "_ptSymbol",
          "type": "string"
        }
      ],
      "name": "createProject",
      "outputs": [
        {
          "internalType": "uint256",
          "name": "projectId",
          "type": "uint256"
        }
      ],
      "stateMutability": "nonpayable",
      "type": "function"
    },
    {
      "inputs": [
        {
          "internalType": "uint256",
          "name": "_projectId",
          "type": "uint256"
        },
        {
          "internalType": "address",
          "name": "_recipient",
          "type": "address"
        },
        {
          "internalType": "uint256",
          "name": "_amount",
          "type": "uint256"
        }
      ],
      "name": "disburseFromBudget",
      "outputs": [
        {
          "internalType": "bool",
          "name": "",
          "type": "bool"
        }
      ],
      "stateMutability": "nonpayable",
      "type": "function"
    },
    {
      "inputs": [
        {
          "internalType": "uint256",
          "name": "",
          "type": "uint256"
        },
        {
          "internalType": "uint256",
          "name": "",
          "type": "uint256"
        }
      ],
      "name": "discountTiers",
      "outputs": [
        {
          "internalType": "uint256",
          "name": "ptThreshold",
          "type": "uint256"
        },
        {
          "internalType": "uint256",
          "name": "discountPermille",
          "type": "uint256"
        }
      ],
      "stateMutability": "view",
      "type": "function"
    },
    {
      "inputs": [
        {
          "internalType": "address",
          "name": "",
          "type": "address"
        },
        {
          "internalType": "uint256",
          "name": "",
          "type": "uint256"
        }
      ],
      "name": "founderProjects",
      "outputs": [
        {
          "internalType": "uint256",
          "name": "",
          "type": "uint256"
        }
      ],
      "stateMutability": "view",
      "type": "function"
    },
    {
      "inputs": [
        {
          "internalType": "uint256",
          "name": "_projectId",
          "type": "uint256"
        },
        {
          "internalType": "uint256",
          "name": "_atnAmount",
          "type": "uint256"
        },
        {
          "internalType": "uint256",
          "name": "_expectedPTs",
          "type": "uint256"
        }
      ],
      "name": "fundProject",
      "outputs": [],
      "stateMutability": "nonpayable",
      "type": "function"
    },
    {
      "inputs": [
        {
          "internalType": "uint256",
          "name": "_projectId",
          "type": "uint256"
        },
        {
          "internalType": "address",
          "name": "_user",
          "type": "address"
        }
      ],
      "name": "getEffectivePrice",
      "outputs": [
        {
          "internalType": "uint256",
          "name": "",
          "type": "uint256"
        }
      ],
      "stateMutability": "view",
      "type": "function"
    },
    {
      "inputs": [
        {
          "internalType": "uint256",
          "name": "_projectId",
          "type": "uint256"
        }
      ],
      "name": "getMatureModel",
      "outputs": [
        {
          "internalType": "string",
          "name": "weightsCid",
          "type": "string"
        },
        {
          "internalType": "uint256",
          "name": "price",
          "type": "uint256"
        }
      ],
      "stateMutability": "view",
      "type": "function"
    },
    {
      "inputs": [
        {
          "internalType": "uint256",
          "name": "_projectId",
          "type": "uint256"
        }
      ],
      "name": "getProjectToken",
      "outputs": [
        {
          "internalType": "address",
          "name": "",
          "type": "address"
        }
      ],
      "stateMutability": "view",
      "type": "function"
    },
    {
      "inputs": [],
      "name": "governance",
      "outputs": [
        {
          "internalType": "address",
          "name": "",
          "type": "address"
        }
      ],
      "stateMutability": "view",
      "type": "function"
    },
    {
      "inputs": [],
      "name": "nextInferenceRequestId",
      "outputs": [
        {
          "internalType": "uint256",
          "name": "",
          "type": "uint256"
        }
      ],
      "stateMutability": "view",
      "type": "function"
    },
    {
      "inputs": [],
      "name": "nextProjectId",
      "outputs": [
        {
          "internalType": "uint256",
          "name": "",
          "type": "uint256"
        }
      ],
      "stateMutability": "view",
      "type": "function"
    },
    {
      "inputs": [],
      "name": "owner",
      "outputs": [
        {
          "internalType": "address",
          "name": "",
          "type": "address"
        }
      ],
      "stateMutability": "view",
      "type": "function"
    },
    {
      "inputs": [
        {
          "internalType": "uint256",
          "name": "",
          "type": "uint256"
        }
      ],
      "name": "projects",
      "outputs": [
        {
          "internalType": "uint256",
          "name": "id",
          "type": "uint256"
        },
        {
          "internalType": "string",
          "name": "name",
          "type": "string"
        },
        {
          "internalType": "string",
          "name": "descriptionCid",
          "type": "string"
        },
        {
          "internalType": "address",
          "name": "founder",
          "type": "address"
        },
        {
          "internalType": "enum AutonetLib.ProjectStatus",
          "name": "status",
          "type": "uint8"
        },
        {
          "internalType": "uint256",
          "name": "creationTime",
          "type": "uint256"
        },
        {
          "internalType": "contract ProjectToken",
          "name": "projectToken",
          "type": "address"
        },
        {
          "internalType": "uint256",
          "name": "totalPTsIssued",
          "type": "uint256"
        },
        {
          "internalType": "uint256",
          "name": "fundingGoalATN",
          "type": "uint256"
        },
        {
          "internalType": "uint256",
          "name": "currentFundingATN",
          "type": "uint256"
        },
        {
          "internalType": "uint256",
          "name": "taskRewardBudgetATN",
          "type": "uint256"
        },
        {
          "internalType": "string",
          "name": "matureModelWeightsCid",
          "type": "string"
        },
        {
          "internalType": "uint256",
          "name": "atnPricePerInference",
          "type": "uint256"
        },
        {
          "internalType": "address",
          "name": "inferenceFeeRecipient",
          "type": "address"
        }
      ],
      "stateMutability": "view",
      "type": "function"
    },
    {
      "inputs": [],
      "name": "renounceOwnership",
      "outputs": [],
      "stateMutability": "nonpayable",
      "type": "function"
    },
    {
      "inputs": [
        {
          "internalType": "uint256",
          "name": "_projectId",
          "type": "uint256"
        },
        {
          "internalType": "string",
          "name": "_inputCid",
          "type": "string"
        }
      ],
      "name": "requestInference",
      "outputs": [
        {
          "internalType": "uint256",
          "name": "requestId",
          "type": "uint256"
        }
      ],
      "stateMutability": "nonpayable",
      "type": "function"
    },
    {
      "inputs": [
        {
          "internalType": "address",
          "name": "_disburser",
          "type": "address"
        },
        {
          "internalType": "bool",
          "name": "_authorized",
          "type": "bool"
        }
      ],
      "name": "setAuthorizedDisburser",
      "outputs": [],
      "stateMutability": "nonpayable",
      "type": "function"
    },
    {
      "inputs": [
        {
          "internalType": "address",
          "name": "_setter",
          "type": "address"
        },
        {
          "internalType": "bool",
          "name": "_authorized",
          "type": "bool"
        }
      ],
      "name": "setAuthorizedModelSetter",
      "outputs": [],
      "stateMutability": "nonpayable",
      "type": "function"
    },
    {
      "inputs": [
        {
          "internalType": "uint256",
          "name": "_projectId",
          "type": "uint256"
        },
        {
          "components": [
            {
              "internalType": "uint256",
              "name": "ptThreshold",
              "type": "uint256"
            },
            {
              "internalType": "uint256",
              "name": "discountPermille",
              "type": "uint256"
            }
          ],
          "internalType": "struct AutonetLib.DiscountTier[]",
          "name": "_tiers",
          "type": "tuple[]"
        }
      ],
      "name": "setDiscountTiers",
      "outputs": [],
      "stateMutability": "nonpayable",
      "type": "function"
    },
    {
      "inputs": [
        {
          "internalType": "address",
          "name": "_newGovernance",
          "type": "address"
        }
      ],
      "name": "setGovernance",
      "outputs": [],
      "stateMutability": "nonpayable",
      "type": "function"
    },
    {
      "inputs": [
        {
          "internalType": "uint256",
          "name": "_projectId",
          "type": "uint256"
        },
        {
          "internalType": "string",
          "name": "_weightsCid",
          "type": "string"
        },
        {
          "internalType": "uint256",
          "name": "_price",
          "type": "uint256"
        }
      ],
      "name": "setMatureModel",
      "outputs": [],
      "stateMutability": "nonpayable",
      "type": "function"
    },
    {
      "inputs": [
        {
          "internalType": "address",
          "name": "newOwner",
          "type": "address"
        }
      ],
      "name": "transferOwnership",
      "outputs": [],
      "stateMutability": "nonpayable",
      "type": "function"
    },
    {
      "inputs": [
        {
          "internalType": "uint256",
          "name": "_projectId",
          "type": "uint256"
        },
        {
          "internalType": "enum AutonetLib.ProjectStatus",
          "name": "_newStatus",
          "type": "uint8"
        }
      ],
      "name": "updateStatus",
      "outputs": [],
      "stateMutability": "nonpayable",
      "type": "function"
    },
    {
      "inputs": [
        {
          "internalType": "uint256",
          "name": "_projectId",
          "type": "uint256"
        }
      ],
      "name": "withdrawRevenue",
      "outputs": [],
      "stateMutability": "nonpayable",
      "type": "function"
    },
    {
      "inputs": [
        {
          "internalType": "uint256",
          "name": "",
          "type": "uint256"
        },
        {
          "internalType": "address",
          "name": "",
          "type": "address"
        }
      ],
      "name": "withdrawnRevenue",
      "outputs": [
        {
          "internalType": "uint256",
          "name": "",
          "type": "uint256"
        }
      ],
      "stateMutability": "view",
      "type": "function"
    }
  ],
  "bytecode": "0x60a0346200011057601f6200342f38819003918201601f19168301916001600160401b038311848410176200011557808492604094855283398101031262000110576200005a602062000052836200012b565b92016200012b565b3315620000f75760008054336001600160a01b0319808316821784556040519590946001600160a01b03949093859391908416907f8be0079c531659141344cd1fd0a4f28419497f9722a3daafe3b4186f6b6457e09080a3600160045516608052169060015416176001556132ee90816200014182396080518181816105a2015281816107fc01528181610b8a015281816116e70152611bb20152f35b604051631e4fbdf760e01b815260006004820152602490fd5b600080fd5b634e487b7160e01b600052604160045260246000fd5b51906001600160a01b0382168203620001105756fe608060405260043610156200001357600080fd5b6000803560e01c80630ceff2041462001b005780630e19b0121462001a8a578063107046bd146200196257806318162a9c146200194257806324cfd98d146200183357806330b37877146200160057806332d0009d14620015b85780633a1b3d311462001514578063513dc2ea1462000faf578063588f666f1462000d4b5780635a4759d21462000af55780635aa6e6751462000aca578063715018a61462000a6c578063817ab0cf1462000a205780638cf640d814620009dd5780638da5cb5b14620009b45780639da7fcb8146200095b578063ab033ea91462000910578063ab6e51871462000728578063c25578ac14620006cb578063ce0b08fb1462000696578063cfc765281462000614578063dd40dfa114620005d1578063e8852afd146200058a578063e935b7b1146200056a578063f0a101371462000532578063f2fde38b146200049b5763fe131ab0146200016e57600080fd5b346200049857606036600319011262000498576001600160401b03906004356024358381116200049457620001a8903690600401620020ae565b604435908284526020916005835260018060a01b0391600392620001d6818560408a200154161515620021e6565b85875260058552808460408920015416331490811562000485575b50801562000470575b156200042b57848652600584526040862096600a8801908251908111620004175762000227825462001ef6565b601f8111620003ce575b5085601f82116001146200030a57967f719a2db37994b4af2103552cf2fb30f352023c8bc4b753d4cb680f66b14cd83a620002ea7feed8a2a1c87eeaab000113539a2ccdc1fed37c38ad3c57da403a59f72bd0b96895888c9d8b9787879f98600080516020620032998339815191529f899d9a91620002fe575b508160011b9160001990861b1c19161790555b600b810187905501805460ff60a01b1916600360a01b1790556040518681529182918783019062002031565b0390a2604051908152a2604051908152a280f35b905085015138620002ab565b82895286892090601f1983168a5b818110620003b657507feed8a2a1c87eeaab000113539a2ccdc1fed37c38ad3c57da403a59f72bd0b96895888b9c9d8b97600188600080516020620032998339815191529f9c99987f719a2db37994b4af2103552cf2fb30f352023c8bc4b753d4cb680f66b14cd83a988e9a620002ea99106200039d575b5050811b019055620002be565b87015160001983881b60f8161c19169055388062000390565b91928960018192868a01518155019401920162000318565b828952868920601f830160051c8101918884106200040c575b601f0160051c01905b818110620003ff575062000231565b60008155600101620003f0565b9091508190620003e7565b634e487b7160e01b88526041600452602488fd5b60405162461bcd60e51b815260048101859052601b60248201527f4e6f7420617574686f72697a656420746f20736574206d6f64656c00000000006044820152606490fd5b5033865282845260ff604087205416620001fa565b905060015416331438620001f1565b8280fd5b80fd5b5034620004985760203660031901126200049857620004b962001ead565b620004c362002155565b6001600160a01b039081169081156200051957600054826bffffffffffffffffffffffff60a01b821617600055167f8be0079c531659141344cd1fd0a4f28419497f9722a3daafe3b4186f6b6457e0600080a380f35b604051631e4fbdf760e01b815260048101849052602490fd5b50346200049857602036600319011262000498576020906004358152600582526005604060018060a01b039220015416604051908152f35b503462000498578060031936011262000498576020600454604051908152f35b503462000498578060031936011262000498576040517f00000000000000000000000000000000000000000000000000000000000000006001600160a01b03168152602090f35b503462000498576020366003190112620004985760209060ff906040906001600160a01b036200060062001ead565b168152600284522054166040519015158152f35b5034620004985760207f58c7884e772c37cb414868829c9c8fa93daf36a1e6d15abfa77b9d7a84eeb05d620006493662001ec4565b6001549093916001600160a01b039162000667908316331462002182565b1692838552600382526200068a81604087209060ff801983541691151516179055565b6040519015158152a280f35b50346200049857604036600319011262000498576020620006c3620006ba62001e91565b60043562002302565b604051908152f35b5034620004985760403660031901126200049857620006e962001ead565b6001600160a01b0316815260086020526040812080546024359290831015620004985760206200071a84846200213c565b90546040519160031b1c8152f35b50346200049857606036600319011262000498576004356200074962001e91565b90604435908084526020926005845260018060a01b039162000776836003604089200154161515620021e6565b3386526002855260ff604087205416801562000902575b15620008bd57855260058452600960408620018054848110620008825791859391620007bf86620007f89795620022f4565b905560405163a9059cbb60e01b81526001600160a01b039091166004820152602481019290925290928391908290879082906044820190565b03927f0000000000000000000000000000000000000000000000000000000000000000165af190811562000877576200083a92939162000843575b5062002246565b60405160018152f35b620008689150833d85116200086f575b6200085f818362001f5d565b8101906200222c565b3862000833565b503d62000853565b6040513d85823e3d90fd5b60405162461bcd60e51b8152600481018790526013602482015272125b9cdd59999a58da595b9d08189d5919d95d606a1b6044820152606490fd5b60405162461bcd60e51b815260048101869052601a60248201527f4e6f7420617574686f72697a656420746f2064697362757273650000000000006044820152606490fd5b50826001541633146200078d565b50346200049857602036600319011262000498576200092e62001ead565b6200093862002155565b60018060a01b03166bffffffffffffffffffffffff60a01b600154161760015580f35b50346200049857602036600319011262000498576040620009aa91600435815260056020522062000994600a600b830154920162001f7f565b9060405192839260408452604084019062002031565b9060208301520390f35b50346200049857806003193601126200049857546040516001600160a01b039091168152602090f35b503462000498576020366003190112620004985760209060ff906040906001600160a01b0362000a0c62001ead565b168152600384522054166040519015158152f35b5034620004985762000a323662002097565b919081526006602052604081209081548310156200049857604062000a58848462002109565b506001815491015482519182526020820152f35b5034620004985780600319360112620004985762000a8962002155565b600080546001600160a01b0319811682556001600160a01b03167f8be0079c531659141344cd1fd0a4f28419497f9722a3daafe3b4186f6b6457e08280a380f35b503462000498578060031936011262000498576001546040516001600160a01b039091168152602090f35b50346200049857606036600319011262000498576004356024356044358284526020906005825260018060a01b039062000b3a826003604089200154161515620021e6565b848652600583526040862091600383019460ff865460a01c16600681101562000d375762000cfb576040516323b872dd60e01b81523360048201523060248201526044810182905285816064818c7f000000000000000000000000000000000000000000000000000000000000000088165af1801562000cf05762000bc7918a9162000cd5575062002246565b87600885019262000bda83855462002285565b8455600586015416803b1562000cd1576040516340c10f1960e01b8152336004820152602481018690529082908290604490829084905af1801562000cc65762000caa575b50506007926006850162000c3582825462002285565b905560405191825285820152867f2c26a9d48bfcf6dc8a28b936f0aa3b166a0119134df865f480007cc6f1a9b19760403393a354910154111562000c77578380f35b815460ff60a01b1916600160a01b1790915560405160018152600080516020620032998339815191529190a23880808380f35b62000cb59062001f33565b62000cc257873862000c1f565b8780fd5b6040513d84823e3d90fd5b5080fd5b620008689150873d89116200086f576200085f818362001f5d565b6040513d8b823e3d90fd5b60405162461bcd60e51b81526004810186905260146024820152734e6f7420696e2066756e64696e6720706861736560601b6044820152606490fd5b634e487b7160e01b89526021600452602489fd5b503462000498576040366003190112620004985760043560249182356001600160401b03908181116200049457366023820112156200049457806004013582811162000f9c576040519060209260059462000dab8584881b018562001f5d565b8284528484019089600694851b8401019236841162000f98578a01915b83831062000f445750505086865250838352604085206003015462000e1e906001600160a01b039081163314801562000f36575b62000e079062002293565b8787528585526003604088200154161515620021e6565b858552808352604085208054908681558162000ee2575b5050845b825181101562000ede5786865281845260408620835182101562000ecb578482871b85010151908054600160401b81101562000eb85762000e8290600192838201815562002109565b92909262000ea5578051835586015191015562000e9f90620021c0565b62000e39565b634e487b7160e01b895260048990528a89fd5b634e487b7160e01b895260416004528a89fd5b634e487b7160e01b875260326004528887fd5b8580f35b6001600160ff1b038216820362000f2357865283862090600190811b8201915b82811062000f11575062000e35565b60008082558282015560020162000f02565b634e487b7160e01b875260116004528887fd5b506001548116331462000dfc565b60408336031262000f98576040519060408201908282108483111762000f83576040928992845285358152828601358382015281520192019162000dc8565b8c634e487b7160e01b60005260416004526000fd5b8880fd5b634e487b7160e01b845260416004528584fd5b5034620004985760e036600319011262000498576004356001600160401b03811162000cd15762000fe5903690600401620020ae565b906024356001600160401b03811162000cd15762001008903690600401620020ae565b60a4356001600160401b03811162000494576200102a903690600401620020ae565b9160c4356001600160401b03811162000cd1576200104d903690600401620020ae565b600454936200105c85620021c0565b60045560443560643511620014d95760405191610e0c91828401928484106001600160401b03851117620014c55791620010ac620010bb928695946200248d873960608552606085019062002031565b90838203602085015262002031565b90604030910152039082f0918215620014b8578382526005602052604082209084825585516001600160401b038111620013e057620010fe600184015462001ef6565b601f81116200146f575b50806020601f821160011462001400578591620013f4575b508160011b916000199060031b1c19161760018301555b8051906001600160401b038211620013e05781906200115a600285015462001ef6565b601f81116200138b575b50602090601f83116001146200131c57859262001310575b50508160011b916000199060031b1c19161760028201555b6003810180546001600160a81b0319163360ff60a01b19161790554260048201556005810180546001600160a01b03199081166001600160a01b0390951694851790915560443560078301556064356009830155600c82018054909116301790556084359081620012a9575b5050338152600860205260408120805491600160401b83101562001295575060209462001256837f1846f69aa129d4d2ff2571d6357d5df660cfe55735967c4b882a40c9cca1aaec93600188960181556200213c565b81549060031b9085821b91600019901b1916179055620012826040519160408352604083019062002031565b93868201528033940390a3604051908152f35b634e487b7160e01b81526041600452602490fd5b833b1562000494576040516340c10f1960e01b815233600482015260248101839052838160448183895af180156200130557620012ee575b5060060155388062001200565b92620012fd6006929462001f33565b9290620012e1565b6040513d86823e3d90fd5b0151905038806200117c565b600285018652602086209250601f198416865b81811062001372575090846001959493921062001358575b505050811b01600282015562001194565b015160001960f88460031b161c1916905538808062001347565b929360206001819287860151815501950193016200132f565b90915060028401855260208520601f840160051c810160208510620013d8575b90849392915b601f830160051c82018110620013c957505062001164565b878155859450600101620013b1565b5080620013ab565b634e487b7160e01b84526041600452602484fd5b90508701513862001120565b91506001840185526020852085925b601f198316841062001456576001935082601f198116106200143c575b5050811b01600183015562001137565b89015160001960f88460031b161c1916905538806200142c565b898101518255602093840193600190920191016200140f565b60018401855260208520601f830160051c810160208410620014b0575b601f830160051c82018110620014a457505062001108565b8681556001016200148c565b50806200148c565b50604051903d90823e3d90fd5b634e487b7160e01b86526041600452602486fd5b60405162461bcd60e51b8152602060048201526013602482015272109d5919d95d08195e18d959591cc819dbd85b606a1b6044820152606490fd5b503462000498576040366003190112620004985760043560243560068110156200049457602060008051602062003299833981519152916200157f60018060a01b03620015678160015416331462002182565b858752600584526003604088200154161515620021e6565b838552600582526040808620600301805460ff60a01b191660a084901b60ff60a01b161790555190620015b490829062002073565ba280f35b50346200049857604036600319011262000498576040602091620015db62001e91565b6004358252600784528282206001600160a01b03909116825283522054604051908152f35b50346200049857604036600319011262000498576004356024356001600160401b038111620004945762001639903690600401620020ae565b908083526020926005845260018060a01b0362001661816003604085200154161515620021e6565b82825260058552604082209060ff600383015460a01c1660068110156200181f57600303620017eb5785600c94939282620016e393620016a2338862002302565b97909201546040516323b872dd60e01b815233600482015292166001600160a01b031660248301526044820187905290928391908290869082906064820190565b03927f0000000000000000000000000000000000000000000000000000000000000000165af1918215620017df5791620017bd575b501562001782577fd0160108bfe6a52c758ef533d93adfe7183af273e28ba2b982455088eeadbf6c600954936200174f85620021c0565b6009556200176e60405191868352606088840152606083019062002031565b9360408201528033940390a3604051908152f35b60405162461bcd60e51b8152600481018590526013602482015272119959481d1c985b9cd9995c8819985a5b1959606a1b6044820152606490fd5b620017d89150853d87116200086f576200085f818362001f5d565b3862001718565b604051903d90823e3d90fd5b60405162461bcd60e51b815260048101879052600c60248201526b139bdd0819195c1b1bde595960a21b6044820152606490fd5b634e487b7160e01b84526021600452602484fd5b50346200049857620018453662002097565b8183526005602052604083206003015462001893906001600160a01b039081163314801562001934575b6200187a9062002293565b83855260056020526003604086200154161515620021e6565b81835260056020526040832060096008820154910191825491620018b8828462002285565b11620018fa577f37310361c7b58cdab38c0fa50d871d79ac288cad80469142521dfab48b87db7492620018ee8260209462002285565b9055604051908152a280f35b60405162461bcd60e51b8152602060048201526012602482015271496e73756666696369656e742066756e647360701b6044820152606490fd5b50600154811633146200186f565b503462000498578060031936011262000498576020600954604051908152f35b503462000498576020366003190112620004985760043581526005602052604090208054620019946001830162001f7f565b91620019a36002820162001f7f565b60038201546004830154600584015460068501546007860154600887015460098801546001600160a01b03959094919391861690620019e5600a8b0162001f7f565b9787600b8c01549b600c015416996040519d8e9d8e528d6101c0908160208201520162001a129162002031565b8d810360408f015262001a259162002031565b97811660608d015260808c019060a01c60ff169062001a449162002073565b60a08b015260c08a015260e089015261010088015261012087015261014086015284810361016086015262001a799162002031565b916101808401526101a08301520390f35b5034620004985760207f84cd2a315525a2a229bbce108956aad0f7e18d4bea2b74b0494d68acca56e4e662001abf3662001ec4565b6001549093916001600160a01b039162001add908316331462002182565b1692838552600282526200068a81604087209060ff801983541691151516179055565b5034620004985760208060031936011262000cd1576004358083526005825260408320600301546001600160a01b039062001b3f9082161515620021e6565b81845260058352604084209060ff600383015460a01c16600681101562001e7d5760030362001e3f576006820154801562001e0a57816005840154166040519286846024816370a0823160e01b958682523360048301525afa93841562001d9357889462001dd5575b50831562001d9e577f000000000000000000000000000000000000000000000000000000000000000016936040519182523060048301528682602481885afa91821562001d9357889262001d5d575b50600801548082111562001d535762001c1091620022f4565b905b670de0b6b3a764000092838102908104840362001d3f579062001c3892910490620022e0565b04828552600784526040852033865284526040852054908181111562001d04579062001c6491620022f4565b92828552600781526040852033865281526040852062001c8685825462002285565b905560405163a9059cbb60e01b8152336004820152602481018590529181908390604490829089905af191821562001cf9577f841fbab03327efe47fb7d133055c9aa87df38ff76b5919d1c190e0067c5e34b39262001ced91879162000843575062002246565b6040519384523393a380f35b6040513d87823e3d90fd5b60405162461bcd60e51b81526004810186905260136024820152724e6f7468696e6720746f20776974686472617760681b6044820152606490fd5b634e487b7160e01b88526011600452602488fd5b5050859062001c12565b9091508681813d831162001d8b575b62001d78818362001f5d565b8101031262000cc2575190600862001bf7565b503d62001d6c565b6040513d8a823e3d90fd5b60405162461bcd60e51b815260048101889052600f60248201526e2737ba103090282a103437b63232b960891b6044820152606490fd5b9093508681813d831162001e02575b62001df0818362001f5d565b8101031262000cc25751923862001ba8565b503d62001de4565b60405162461bcd60e51b815260048101869052600d60248201526c139bc814151cc81a5cdcdd5959609a1b6044820152606490fd5b60405162461bcd60e51b81526004810185905260166024820152754e6f742067656e65726174696e6720726576656e756560501b6044820152606490fd5b634e487b7160e01b86526021600452602486fd5b602435906001600160a01b038216820362001ea857565b600080fd5b600435906001600160a01b038216820362001ea857565b604090600319011262001ea8576004356001600160a01b038116810362001ea85790602435801515810362001ea85790565b90600182811c9216801562001f28575b602083101462001f1257565b634e487b7160e01b600052602260045260246000fd5b91607f169162001f06565b6001600160401b03811162001f4757604052565b634e487b7160e01b600052604160045260246000fd5b90601f801991011681019081106001600160401b0382111762001f4757604052565b906040519182600082549262001f958462001ef6565b9081845260019485811690816000146200200c575060011462001fc5575b505062001fc39250038362001f5d565b565b9093915060005260209081600020936000915b81831062001ff357505062001fc39350820101388062001fb3565b8554888401850152948501948794509183019162001fd8565b91505062001fc394506020925060ff191682840152151560051b820101388062001fb3565b919082519283825260005b8481106200205e575050826000602080949584010152601f8019910116010190565b6020818301810151848301820152016200203c565b906006821015620020815752565b634e487b7160e01b600052602160045260246000fd5b604090600319011262001ea8576004359060243590565b81601f8201121562001ea8578035906001600160401b03821162001f475760405192620020e6601f8401601f19166020018562001f5d565b8284526020838301011162001ea857816000926020809301838601378301015290565b8054821015620021265760005260206000209060011b0190600090565b634e487b7160e01b600052603260045260246000fd5b8054821015620021265760005260206000200190600090565b6000546001600160a01b031633036200216a57565b60405163118cdaa760e01b8152336004820152602490fd5b156200218a57565b60405162461bcd60e51b815260206004820152600e60248201526d4e6f7420676f7665726e616e636560901b6044820152606490fd5b6000198114620021d05760010190565b634e487b7160e01b600052601160045260246000fd5b15620021ee57565b60405162461bcd60e51b8152602060048201526016602482015275141c9bda9958dd08191bd95cc81b9bdd08195e1a5cdd60521b6044820152606490fd5b9081602091031262001ea85751801515810362001ea85790565b156200224e57565b60405162461bcd60e51b815260206004820152600f60248201526e151c985b9cd9995c8819985a5b1959608a1b6044820152606490fd5b91908201809211620021d057565b156200229b57565b60405162461bcd60e51b815260206004820152601960248201527f4e6f7420666f756e646572206f7220676f7665726e616e6365000000000000006044820152606490fd5b81810292918115918404141715620021d057565b91908203918211620021d057565b60008181526005602081815260408084209283015490516370a0823160e01b81526001600160a01b0396871660048201529195939493869183916024918391165afa9081156200130557849162002455575b5083928452600685526040842084918154925b838110620023ec57505050506103e893848311620023b55750600b015490830391838311620023a15750906200239d91620022e0565b0490565b634e487b7160e01b81526011600452602490fd5b6064906040519062461bcd60e51b82526004820152601060248201526f125b9d985b1a5908191a5cd8dbdd5b9d60821b6044820152fd5b620023f8818462002109565b5054821015806200243b575b6200241b575b6200241590620021c0565b62002367565b94506200241560016200242f878562002109565b5001549590506200240a565b508560016200244b838662002109565b5001541162002404565b90508481813d831162002484575b6200246f818362001f5d565b810103126200248057513862002354565b8380fd5b503d6200246356fe608060405234620003945762000e0c803803806200001d8162000399565b9283398101606082820312620003945781516001600160401b0391908281116200039457816200004f918501620003bf565b6020918285015184811162000394576040916200006e918701620003bf565b9401516001600160a01b039485821694918590036200039457825182811162000294576003918254916001958684811c9416801562000389575b8885101462000373578190601f948581116200031d575b508890858311600114620002b657600092620002aa575b505060001982861b1c191690861b1783555b8051938411620002945760049586548681811c9116801562000289575b82821014620002745783811162000229575b5080928511600114620001bb5750938394918492600095620001af575b50501b92600019911b1c19161781555b8115620001975750600580546001600160a01b03198116831790915560405192167f8be0079c531659141344cd1fd0a4f28419497f9722a3daafe3b4186f6b6457e0600080a36109da9081620004328239f35b602490600060405191631e4fbdf760e01b8352820152fd5b01519350388062000134565b92919084601f1981168860005285600020956000905b898383106200020e5750505010620001f3575b50505050811b01815562000144565b01519060f884600019921b161c1916905538808080620001e4565b858701518955909701969485019488935090810190620001d1565b87600052816000208480880160051c8201928489106200026a575b0160051c019087905b8281106200025d57505062000117565b600081550187906200024d565b9250819262000244565b602288634e487b7160e01b6000525260246000fd5b90607f169062000105565b634e487b7160e01b600052604160045260246000fd5b015190503880620000d6565b90889350601f19831691876000528a6000209260005b8c828210620003065750508411620002ed575b505050811b018355620000e8565b015160001983881b60f8161c19169055388080620002df565b8385015186558c97909501949384019301620002cc565b90915085600052886000208580850160051c8201928b861062000369575b918a91869594930160051c01915b82811062000359575050620000bf565b600081558594508a910162000349565b925081926200033b565b634e487b7160e01b600052602260045260246000fd5b93607f1693620000a8565b600080fd5b6040519190601f01601f191682016001600160401b038111838210176200029457604052565b919080601f84011215620003945782516001600160401b0381116200029457602090620003f5601f8201601f1916830162000399565b92818452828287010111620003945760005b8181106200041d57508260009394955001015290565b85810183015184820184015282016200040756fe6080604081815260048036101561001557600080fd5b600092833560e01c90816306fdde031461068c57508063095ea7b3146105e357806318160ddd146105c457806323b872dd146104d1578063313ce567146104b557806340c10f191461040657806342966c68146103e857806370a08231146103b1578063715018a61461035457806379cc6790146103215780638da5cb5b146102f857806395d89b41146101d8578063a9059cbb146101a7578063dd62ed3e1461015a5763f2fde38b146100c857600080fd5b34610156576020366003190112610156576100e16107ca565b906100ea6107fb565b6001600160a01b03918216928315610140575050600554826bffffffffffffffffffffffff60a01b821617600555167f8be0079c531659141344cd1fd0a4f28419497f9722a3daafe3b4186f6b6457e08380a380f35b51631e4fbdf760e01b8152908101849052602490fd5b8280fd5b5050346101a357806003193601126101a357806020926101786107ca565b6101806107e5565b6001600160a01b0391821683526001865283832091168252845220549051908152f35b5080fd5b5050346101a357806003193601126101a3576020906101d16101c76107ca565b6024359033610827565b5160018152f35b509190346101a357816003193601126101a357805190828454600181811c908083169283156102ee575b60209384841081146102db578388529081156102bf575060011461026a575b505050829003601f01601f191682019267ffffffffffffffff8411838510176102575750829182610253925282610781565b0390f35b634e487b7160e01b815260418552602490fd5b8787529192508591837f8a35acfbc15ff81a39ae7d344fd709f28e8600b4aa8c65c6b64bfe7fe36bd19b5b8385106102ab5750505050830101388080610221565b805488860183015293019284908201610295565b60ff1916878501525050151560051b8401019050388080610221565b634e487b7160e01b895260228a52602489fd5b91607f1691610202565b5050346101a357816003193601126101a35760055490516001600160a01b039091168152602090f35b5050346101a3573660031901126103515761034e61033d6107ca565b6103456107fb565b60243590610905565b80f35b80fd5b833461035157806003193601126103515761036d6107fb565b600580546001600160a01b0319811690915581906001600160a01b03167f8be0079c531659141344cd1fd0a4f28419497f9722a3daafe3b4186f6b6457e08280a380f35b5050346101a35760203660031901126101a35760209181906001600160a01b036103d96107ca565b16815280845220549051908152f35b8382346101a35760203660031901126101a35761034e903533610905565b5090346101565780600319360112610156576104206107ca565b906024359161042d6107fb565b6001600160a01b03169283156104a0576002549083820180921161048d575084927fddf252ad1be2c89b69c2b068fc378daa952ba7f163c4a11628f55a4df523b3ef9260209260025585855284835280852082815401905551908152a380f35b634e487b7160e01b865260119052602485fd5b84602492519163ec442f0560e01b8352820152fd5b5050346101a357816003193601126101a3576020905160128152f35b508234610351576060366003190112610351576104ec6107ca565b6104f46107e5565b916044359360018060a01b038316808352600160205286832033845260205286832054916000198310610530575b6020886101d1898989610827565b86831061059857811561058157331561056a575082526001602090815286832033845281529186902090859003905582906101d187610522565b8751634a1406b160e11b8152908101849052602490fd5b875163e602df0560e01b8152908101849052602490fd5b8751637dc7a0d960e11b8152339181019182526020820193909352604081018790528291506060010390fd5b5050346101a357816003193601126101a3576020906002549051908152f35b50346101565781600319360112610156576105fc6107ca565b602435903315610675576001600160a01b031691821561065e57508083602095338152600187528181208582528752205582519081527f8c5be1e5ebec7d5bd14f71427d1e84f3dd0314c0f7b2291e5b200ac8c7c3b925843392a35160018152f35b8351634a1406b160e11b8152908101859052602490fd5b835163e602df0560e01b8152808401869052602490fd5b849150833461015657826003193601126101565782600354600181811c90808316928315610777575b60209384841081146102db5783885290811561075b575060011461070557505050829003601f01601f191682019267ffffffffffffffff8411838510176102575750829182610253925282610781565b600387529192508591837fc2575a0e9e593c00f959f8c92f12db2869c3395a3b0502d05e2516446f71f85b5b8385106107475750505050830101858080610221565b805488860183015293019284908201610731565b60ff1916878501525050151560051b8401019050858080610221565b91607f16916106b5565b6020808252825181830181905290939260005b8281106107b657505060409293506000838284010152601f8019910116010190565b818101860151848201604001528501610794565b600435906001600160a01b03821682036107e057565b600080fd5b602435906001600160a01b03821682036107e057565b6005546001600160a01b0316330361080f57565b60405163118cdaa760e01b8152336004820152602490fd5b916001600160a01b038084169283156108ec57169283156108d357600090838252816020526040822054908382106108a1575091604082827fddf252ad1be2c89b69c2b068fc378daa952ba7f163c4a11628f55a4df523b3ef958760209652828652038282205586815220818154019055604051908152a3565b60405163391434e360e21b81526001600160a01b03919091166004820152602481019190915260448101839052606490fd5b60405163ec442f0560e01b815260006004820152602490fd5b604051634b637e8f60e11b815260006004820152602490fd5b906001600160a01b0382169081156108ec57600092828452836020526040842054908282106109725750817fddf252ad1be2c89b69c2b068fc378daa952ba7f163c4a11628f55a4df523b3ef926020928587528684520360408620558060025403600255604051908152a3565b60405163391434e360e21b81526001600160a01b03919091166004820152602481019190915260448101829052606490fdfea2646970667358221220815e1d25b8b639e5a2b69b5ff04f6eab6b7058e97f402b0c81e03b3536a54d4364736f6c6343000814003335872be4c2085eaf9ca9a10d056eefec79968f825846792411ede75f331e9392a26469706673582212201f43a111e752065f4ee5a1f1250bcb436c7bd154ae55a218ffbd15d23d4f041a64736f6c63430008140033",
  "linkReferences": {},
  "deployedLinkReferences": {}
}