{
  "_format": "hh-sol-artifact-1",
  "contractName": "ATNToken",
  "sourceName": "contracts/tokens/ATNToken.sol",
  "abi": [
    {
      "inputs": [
        {
          "internalType": "address",
          "name": "_initialHolder",
          "type": "address"
        },
        {
          "internalType": "uint256",
          "name": "_initialSupply",
          "type": "uint256"
        }
      ],
      "stateMutability": "nonpayable",
      "type": "constructor"
    },
    {
      "inputs": [],
      "name": "CheckpointUnorderedInsertion",
      "type": "error"
    },
    {
      "inputs": [],
      "name": "ECDSAInvalidSignature",
      "type": "error"
    },
    {
      "inputs": [
        {
          "internalType": "uint256",
          "name": "length",
          "type": "uint256"
        }
      ],
      "name": "ECDSAInvalidSignatureLength",
      "type": "error"
    },
    {
      "inputs": [
        {
          "internalType": "bytes32",
          "name": "s",
          "type": "bytes32"
        }
      ],
      "name": "ECDSAInvalidSignatureS",
      "type": "error"
    },
    {
      "inputs": [
        {
          "internalType": "uint256",
          "name": "increasedSupply",
          "type": "uint256"
        },
        {
          "internalType": "uint256",
          "name": "cap",
          "type": "uint256"
        }
      ],
      "name": "ERC20ExceededSafeSupply",
      "type": "error"
    },
    {
      "inputs": [
        {
          "internalType": "address",
          "name": "spender",
          "type": "address"
        },
        {
          "internalType": "uint256",
          "name": "allowance",
          "type": "uint256"
        },
        {
          "internalType": "uint256",
          "name": "needed",
          "type": "uint256"
        }
      ],
      "name": "ERC20InsufficientAllowance",
      "type": "error"
    },
    {
      "inputs": [
        {
          "internalType": "address",
          "name": "sender",
          "type": "address"
        },
        {
          "internalType": "uint256",
          "name": "balance",
          "type": "uint256"
        },
        {
          "internalType": "uint256",
          "name": "needed",
          "type": "uint256"
        }
      ],
      "name": "ERC20InsufficientBalance",
      "type": "error"
    },
    {
      "inputs": [
        {
          "internalType": "address",
          "name": "approver",
          "type": "address"
        }
      ],
      "name": "ERC20InvalidApprover",
      "type": "error"
    },
    {
      "inputs": [
        {
          "internalType": "address",
          "name": "receiver",
          "type": "address"
        }
      ],
      "name": "ERC20InvalidReceiver",
      "type": "error"
    },
    {
      "inputs": [
        {
          "internalType": "address",
          "name": "sender",
          "type": "address"
        }
      ],
      "name": "ERC20InvalidSender",
      "type": "error"
    },
    {
      "inputs": [
        {
          "internalType": "address",
          "name": "spender",
          "type": "address"
        }
      ],
      "name": "ERC20InvalidSpender",
      "type": "error"
    },
    {
      "inputs": [
        {
          "internalType": "uint256",
          "name": "deadline",
          "type": "uint256"
        }
      ],
      "name": "ERC2612ExpiredSignature",
      "type": "error"
    },
    {
      "inputs": [
        {
          "internalType": "address",
          "name": "signer",
          "type": "address"
        },
        {
          "internalType": "address",
          "name": "owner",
          "type": "address"
        }
      ],
      "name": "ERC2612InvalidSigner",
      "type": "error"
    },
    {
      "inputs": [
        {
          "internalType": "uint256",
          "name": "timepoint",
          "type": "uint256"
        },
        {
          "internalType": "uint48",
          "name": "clock",
          "type": "uint48"
        }
      ],
      "name": "ERC5805FutureLookup",
      "type": "error"
    },
    {
      "inputs": [],
      "name": "ERC6372InconsistentClock",
      "type": "error"
    },
    {
      "inputs": [
        {
          "internalType": "address",
          "name": "account",
          "type": "address"
        },
        {
          "internalType": "uint256",
          "name": "currentNonce",
          "type": "uint256"
        }
      ],
      "name": "InvalidAccountNonce",
      "type": "error"
    },
    {
      "inputs": [],
      "name": "InvalidShortString",
      "type": "error"
    },
    {
      "inputs": [
        {
          "internalType": "uint8",
          "name": "bits",
          "type": "uint8"
        },
        {
          "internalType": "uint256",
          "name": "value",
          "type": "uint256"
        }
      ],
      "name": "SafeCastOverflowedUintDowncast",
      "type": "error"
    },
    {
      "inputs": [
        {
          "internalType": "string",
          "name": "str",
          "type": "string"
        }
      ],
      "name": "StringTooLong",
      "type": "error"
    },
    {
      "inputs": [
        {
          "internalType": "uint256",
          "name": "expiry",
          "type": "uint256"
        }
      ],
      "name": "VotesExpiredSignature",
      "type": "error"
    },
    {
      "anonymous": false,
      "inputs": [
        {
          "indexed": true,
          "internalType": "address",
          "name": "owner",
          "type": "address"
        },
        {
          "indexed": true,
          "internalType": "address",
          "name": "spender",
          "type": "address"
        },
        {
          "indexed": false,
          "internalType": "uint256",
          "name": "value",
          "type": "uint256"
        }
      ],
      "name": "Approval",
      "type": "event"
    },
    {
      "anonymous": false,
      "inputs": [
        {
          "indexed": true,
          "internalType": "address",
          "name": "newDaoAddress",
          "type": "address"
        }
      ],
      "name": "DaoAddressChanged",
      "type": "event"
    },
    {
      "anonymous": false,
      "inputs": [
        {
          "indexed": true,
          "internalType": "address",
          "name": "delegator",
          "type": "address"
        },
        {
          "indexed": true,
          "internalType": "address",
          "name": "fromDelegate",
          "type": "address"
        },
        {
          "indexed": true,
          "internalType": "address",
          "name": "toDelegate",
          "type": "address"
        }
      ],
      "name": "DelegateChanged",
      "type": "event"
    },
    {
      "anonymous": false,
      "inputs": [
        {
          "indexed": true,
          "internalType": "address",
          "name": "delegate",
          "type": "address"
        },
        {
          "indexed": false,
          "internalType": "uint256",
          "name": "previousVotes",
          "type": "uint256"
        },
        {
          "indexed": false,
          "internalType": "uint256",
          "name": "newVotes",
          "type": "uint256"
        }
      ],
      "name": "DelegateVotesChanged",
      "type": "event"
    },
    {
      "anonymous": false,
      "inputs": [],
      "name": "EIP712DomainChanged",
      "type": "event"
    },
    {
      "anonymous": false,
      "inputs": [
        {
          "indexed": true,
          "internalType": "address",
          "name": "from",
          "type": "address"
        },
        {
          "indexed": true,
          "internalType": "address",
          "name": "to",
          "type": "address"
        },
        {
          "indexed": false,
          "internalType": "uint256",
          "name": "value",
          "type": "uint256"
        }
      ],
      "name": "Transfer",
      "type": "event"
    },
    {
      "inputs": [],
      "name": "CLOCK_MODE",
      "outputs": [
        {
          "internalType": "string",
          "name": "",
          "type": "string"
        }
      ],
      "stateMutability": "view",
      "type": "function"
    },
    {
      "inputs": [],
      "name": "DOMAIN_SEPARATOR",
      "outputs": [
        {
          "internalType": "bytes32",
          "name": "",
          "type": "bytes32"
        }
      ],
      "stateMutability": "view",
      "type": "function"
    },
    {
      "inputs": [
        {
          "internalType": "address",
          "name": "owner",
          "type": "address"
        },
        {
          "internalType": "address",
          "name": "spender",
          "type": "address"
        }
      ],
      "name": "allowance",
      "outputs": [
        {
          "internalType": "uint256",
          "name": "",
          "type": "uint256"
        }
      ],
      "stateMutability": "view",
      "type": "function"
    },
    {
      "inputs": [
        {
          "internalType": "address",
          "name": "spender",
          "type": "address"
        },
        {
          "internalType": "uint256",
          "name": "value",
          "type": "uint256"
        }
      ],
      "name": "approve",
      "outputs": [
        {
          "internalType": "bool",
          "name": "",
          "type": "bool"
        }
      ],
      "stateMutability": "nonpayable",
      "type": "function"
    },
    {
      "inputs": [
        {
          "internalType": "address",
          "name": "account",
          "type": "address"
        }
      ],
      "name": "balanceOf",
      "outputs": [
        {
          "internalType": "uint256",
          "name": "",
          "type": "uint256"
        }
      ],
      "stateMutability": "view",
      "type": "function"
    },
    {
      "inputs": [
        {
          "internalType": "uint256",
          "name": "value",
          "type": "uint256"
        }
      ],
      "name": "burn",
      "outputs": [],
      "stateMutability": "nonpayable",
      "type": "function"
    },
    {
      "inputs": [
        {
          "internalType": "address",
          "name": "account",
          "type": "address"
        },
        {
          "internalType": "uint256",
          "name": "value",
          "type": "uint256"
        }
      ],
      "name": "burnFrom",
      "outputs": [],
      "stateMutability": "nonpayable",
      "type": "function"
    },
    {
      "inputs": [
        {
          "internalType": "address",
          "name": "account",
          "type": "address"
        },
        {
          "internalType": "uint32",
          "name": "pos",
          "type": "uint32"
        }
      ],
      "name": "checkpoints",
      "outputs": [
        {
          "components": [
            {
              "internalType": "uint48",
              "name": "_key",
              "type": "uint48"
            },
            {
              "internalType": "uint208",
              "name": "_value",
              "type": "uint208"
            }
          ],
          "internalType": "struct Checkpoints.Checkpoint208",
          "name": "",
          "type": "tuple"
        }
      ],
      "stateMutability": "view",
      "type": "function"
    },
    {
      "inputs": [],
      "name": "clock",
      "outputs": [
        {
          "internalType": "uint48",
          "name": "",
          "type": "uint48"
        }
      ],
      "stateMutability": "view",
      "type": "function"
    },
    {
      "inputs": [],
      "name": "daoAddress",
      "outputs": [
        {
          "internalType": "address",
          "name": "",
          "type": "address"
        }
      ],
      "stateMutability": "view",
      "type": "function"
    },
    {
      "inputs": [],
      "name": "decimals",
      "outputs": [
        {
          "internalType": "uint8",
          "name": "",
          "type": "uint8"
        }
      ],
      "stateMutability": "view",
      "type": "function"
    },
    {
      "inputs": [
        {
          "internalType": "address",
          "name": "delegatee",
          "type": "address"
        }
      ],
      "name": "delegate",
      "outputs": [],
      "stateMutability": "nonpayable",
      "type": "function"
    },
    {
      "inputs": [
        {
          "internalType": "address",
          "name": "delegatee",
          "type": "address"
        },
        {
          "internalType": "uint256",
          "name": "nonce",
          "type": "uint256"
        },
        {
          "internalType": "uint256",
          "name": "expiry",
          "type": "uint256"
        },
        {
          "internalType": "uint8",
          "name": "v",
          "type": "uint8"
        },
        {
          "internalType": "bytes32",
          "name": "r",
          "type": "bytes32"
        },
        {
          "internalType": "bytes32",
          "name": "s",
          "type": "bytes32"
        }
      ],
      "name": "delegateBySig",
      "outputs": [],
      "stateMutability": "nonpayable",
      "type": "function"
    },
    {
      "inputs": [
        {
          "internalType": "address",
          "name": "account",
          "type": "address"
        }
      ],
      "name": "delegates",
      "outputs": [
        {
          "internalType": "address",
          "name": "",
          "type": "address"
        }
      ],
      "stateMutability": "view",
      "type": "function"
    },
    {
      "inputs": [],
      "name": "eip712Domain",
      "outputs": [
        {
          "internalType": "bytes1",
          "name": "fields",
          "type": "bytes1"
        },
        {
          "internalType": "string",
          "name": "name",
          "type": "string"
        },
        {
          "internalType": "string",
          "name": "version",
          "type": "string"
        },
        {
          "internalType": "uint256",
          "name": "chainId",
          "type": "uint256"
        },
        {
          "internalType": "address",
          "name": "verifyingContract",
          "type": "address"
        },
        {
          "internalType": "bytes32",
          "name": "salt",
          "type": "bytes32"
        },
        {
          "internalType": "uint256[]",
          "name": "extensions",
          "type": "uint256[]"
        }
      ],
      "stateMutability": "view",
      "type": "function"
    },
    {
      "inputs": [
        {
          "internalType": "uint256",
          "name": "timepoint",
          "type": "uint256"
        }
      ],
      "name": "getPastTotalSupply",
      "outputs": [
        {
          "internalType": "uint256",
          "name": "",
          "type": "uint256"
        }
      ],
      "stateMutability": "view",
      "type": "function"
    },
    {
      "inputs": [
        {
          "internalType": "address",
          "name": "account",
          "type": "address"
        },
        {
          "internalType": "uint256",
          "name": "timepoint",
          "type": "uint256"
        }
      ],
      "name": "getPastVotes",
      "outputs": [
        {
          "internalType": "uint256",
          "name": "",
          "type": "uint256"
        }
      ],
      "stateMutability": "view",
      "type": "function"
    },
    {
      "inputs": [
        {
          "internalType": "address",
          "name": "account",
          "type": "address"
        }
      ],
      "name": "getVotes",
      "outputs": [
        {
          "internalType": "uint256",
          "name": "",
          "type": "uint256"
        }
      ],
      "stateMutability": "view",
      "type": "function"
    },
    {
      "inputs": [
        {
          "internalType": "address",
          "name": "to",
          "type": "address"
        },
        {
          "internalType": "uint256",
          "name": "amount",
          "type": "uint256"
        }
      ],
      "name": "mint",
      "outputs": [],
      "stateMutability": "nonpayable",
      "type": "function"
    },
    {
      "inputs": [],
      "name": "name",
      "outputs": [
        {
          "internalType": "string",
          "name": "",
          "type": "string"
        }
      ],
      "stateMutability": "view",
      "type": "function"
    },
    {
      "inputs": [
        {
          "internalType": "address",
          "name": "owner",
          "type": "address"
        }
      ],
      "name": "nonces",
      "outputs": [
        {
          "internalType": "uint256",
          "name": "",
          "type": "uint256"
        }
      ],
      "stateMutability": "view",
      "type": "function"
    },
    {
      "inputs": [
        {
          "internalType": "address",
          "name": "account",
          "type": "address"
        }
      ],
      "name": "numCheckpoints",
      "outputs": [
        {
          "internalType": "uint32",
          "name": "",
          "type": "uint32"
        }
      ],
      "stateMutability": "view",
      "type": "function"
    },
    {
      "inputs": [
        {
          "internalType": "address",
          "name": "owner",
          "type": "address"
        },
        {
          "internalType": "address",
          "name": "spender",
          "type": "address"
        },
        {
          "internalType": "uint256",
          "name": "value",
          "type": "uint256"
        },
        {
          "internalType": "uint256",
          "name": "deadline",
          "type": "uint256"
        },
        {
          "internalType": "uint8",
          "name": "v",
          "type": "uint8"
        },
        {
          "internalType": "bytes32",
          "name": "r",
          "type": "bytes32"
        },
        {
          "internalType": "bytes32",
          "name": "s",
          "type": "bytes32"
        }
      ],
      "name": "permit",
      "outputs": [],
      "stateMutability": "nonpayable",
      "type": "function"
    },
    {
      "inputs": [
        {
          "internalType": "address",
          "name": "_newDao",
          "type": "address"
        }
      ],
      "name": "setDaoAddress",
      "outputs": [],
      "stateMutability": "nonpayable",
      "type": "function"
    },
    {
      "inputs": [],
      "name": "symbol",
      "outputs": [
        {
          "internalType": "string",
          "name": "",
          "type": "string"
        }
      ],
      "stateMutability": "view",
      "type": "function"
    },
    {
      "inputs": [],
      "name": "totalSupply",
      "outputs": [
        {
          "internalType": "uint256",
          "name": "",
          "type": "uint256"
        }
      ],
      "stateMutability": "view",
      "type": "function"
    },
    {
      "inputs": [
        {
          "internalType": "address",
          "name": "to",
          "type": "address"
        },
        {
          "internalType": "uint256",
          "name": "value",
          "type": "uint256"
        }
      ],
      "name": "transfer",
      "outputs": [
        {
          "internalType": "bool",
          "name": "",
          "type": "bool"
        }
      ],
      "stateMutability": "nonpayable",
      "type": "function"
    },
    {
      "inputs": [
        {
          "internalType": "address",
          "name": "from",
          "type": "address"
        },
        {
          "internalType": "address",
          "name": "to",
          "type": "address"
        },
        {
          "internalType": "uint256",
          "name": "value",
          "type": "uint256"
        }
      ],
      "name": "transferFrom",
      "outputs": [
        {
          "internalType": "bool",
          "name": "",
          "type": "bool"
        }
      ],
      "stateMutability": "nonpayable",
      "type": "function"
    }
  ],
  "bytecode": "0x61016080604052346200009d5760406200335980380380916200002282620000b8565b8439126200009d57516001600160a01b03811681036200009d57610180516200004b91620001ee565b60405161225d9081620010bc823960805181611877015260a05181611932015260c05181611841015260e051816118c6015261010051816118ec01526101205181610885015261014051816108ae0152f35b600080fd5b634e487b7160e01b600052604160045260246000fd5b601f01601f1916610160908101906001600160401b03821190821017620000de57604052565b620000a2565b604081019081106001600160401b03821117620000de57604052565b604051906200010f82620000e4565b565b604051906200012082620000e4565b60038252565b604051906200013582620000e4565b60018252565b604051906200014a82620000e4565b600e82526d20baba37b737b6b0902a37b5b2b760911b6020830152565b156200016f57565b60405162461bcd60e51b815260206004820152601d60248201527f41544e546f6b656e3a207a65726f20696e697469616c20686f6c6465720000006044820152606490fd5b634e487b7160e01b600052601160045260246000fd5b90670de0b6b3a764000091828102928184041490151715620001e857565b620001b4565b919091620001fb6200013b565b92620002066200013b565b6200021062000111565b6020956220aa2760e91b878301526200022862000126565b603160f81b888201908152845190949193916001600160401b038211620000de5762000261826200025b600354620003e2565b6200041f565b8990601f8311600114620003415762000313979593836200030c9896946200010f9c9d94620002ae9460009262000335575b50508160011b916000199060031b1c19161760035562000583565b620002b98262000740565b61012052620002c88362000853565b61014052815191012060e052519020610100524660a052620002e962000a04565b6080523060c052620003066001600160a01b038516151562000167565b620001ca565b8262000676565b600b80546001600160a01b0319166001600160a01b0392909216919091179055565b01519050388062000293565b6003600052601f19831691907fc2575a0e9e593c00f959f8c92f12db2869c3395a3b0502d05e2516446f71f85b9260005b818110620003ca5750846200010f9c9d94620002ae94620003139c9a98946200030c9c9a9860019510620003b0575b505050811b0160035562000583565b015160001960f88460031b161c19169055388080620003a1565b92938d60018192878601518155019501930162000372565b90600182811c9216801562000414575b6020831014620003fe57565b634e487b7160e01b600052602260045260246000fd5b91607f1691620003f2565b601f81116200042c575050565b6000906003825260208220906020601f850160051c830194106200046d575b601f0160051c01915b8281106200046157505050565b81815560010162000454565b90925082906200044b565b601f811162000485575050565b6000906004825260208220906020601f850160051c83019410620004c6575b601f0160051c01915b828110620004ba57505050565b818155600101620004ad565b9092508290620004a4565b601f8111620004de575050565b6000906005825260208220906020601f850160051c830194106200051f575b601f0160051c01915b8281106200051357505050565b81815560010162000506565b9092508290620004fd565b601f811162000537575050565b6000906006825260208220906020601f850160051c8301941062000578575b601f0160051c01915b8281106200056c57505050565b8181556001016200055f565b909250829062000556565b80519091906001600160401b038111620000de57620005af81620005a9600454620003e2565b62000478565b602080601f8311600114620005ee5750819293600092620005e2575b50508160011b916000199060031b1c191617600455565b015190503880620005cb565b6004600052601f198316949091907f8a35acfbc15ff81a39ae7d344fd709f28e8600b4aa8c65c6b64bfe7fe36bd19b926000905b8782106200065d57505083600195961062000643575b505050811b01600455565b015160001960f88460031b161c1916905538808062000638565b8060018596829496860151815501950193019062000622565b91906001600160a01b03831680156200072757600254828101809111620001e8576002556001600160a01b038416600090815260208181526040808320805486019055518481527fddf252ad1be2c89b69c2b068fc378daa952ba7f163c4a11628f55a4df523b3ef9190a3600254926001600160d01b03841162000701576200010f92935062000a70565b604051630e58ae9360e11b8152600481018590526001600160d01b036024820152604490fd5b60405163ec442f0560e01b815260006004820152602490fd5b908151602080821060001462000761575050906200075e9062000987565b90565b6001600160401b038211620000de57620007888262000782600554620003e2565b620004d1565b80601f8311600114620007c85750819293600092620007bc575b50508160011b916000199060031b1c19161760055560ff90565b015190503880620007a2565b6005600052601f198316949091907f036b6384b5eca791c62761152d0c79bb0604c104a5fb6f4eb0703f3154bb3db0926000905b8782106200083a57505083600195961062000820575b505050811b0160055560ff90565b015160001960f88460031b161c1916905538808062000812565b80600185968294968601518155019501930190620007fc565b908151602080821060001462000871575050906200075e9062000987565b6001600160401b038211620000de57620008988262000892600654620003e2565b6200052a565b80601f8311600114620008d85750819293600092620008cc575b50508160011b916000199060031b1c19161760065560ff90565b015190503880620008b2565b6006600052601f198316949091907ff652222313e28459528d920b65115c16c04f3efc82aaedc97be59f3f377c0d3f926000905b8782106200094a57505083600195961062000930575b505050811b0160065560ff90565b015160001960f88460031b161c1916905538808062000922565b806001859682949686015181550195019301906200090c565b60208151910151906020811062000978575090565b6000199060200360031b1b1690565b601f815111620009a2576200099c8162000963565b90511790565b6040519063305a27a960e01b82528160208060048301528251908160248401526000935b828510620009ea575050604492506000838284010152601f80199101168101030190fd5b8481018201518686016044015293810193859350620009c6565b60e051610100516040519060208201927f8b73c3c69bb8fe3d512ecc4cf759cc79239f7b179b0ffacaa9a75d522b39400f8452604083015260608201524660808201523060a082015260a0815260c0810181811060018060401b03821117620000de5760405251902090565b9062000a7c8162000dac565b9165ffffffffffff80431162000b5a57600a5460008162000b2757505062000ab89062000aaf6200010f95600062001087565b90431662000ebe565b50506001600160a01b0390811690811562000b0a575b60086020527f5eff886ea0ce6ca488a3d6e336d6c0f75f46d19b42c06ce5ee98e42c96d256c75460009283526040909220548116911662000b79565b62000b1f62000b198462000dac565b62000cf7565b505062000ace565b600092919219958387810111620001e8576200010f9662000ab894602084600a62000aaf96522001015460301c62001087565b6040516306dfcc6560e41b815260306004820152436024820152604490fd5b6001600160a01b0380831693929190811690818514158062000ced575b62000ba3575b5050505050565b8162000c1f575b50508262000bbb575b808062000b9c565b6001600160a01b03166000908152600960205260409020600080516020620033398339815191529162000bfb9162000bf4909162000dac565b9062000d54565b604080516001600160d01b039384168152919092166020820152a238808062000bb3565b6001600160a01b0316600090815260096020526040902062000c418462000dac565b9065ffffffffffff9081431162000b5a57805460008162000cae5750509062000c8b9162000c8160008051602062003339833981519152946000620010a1565b9143169062000fba565b604080516001600160d01b039384168152919092166020820152a2388062000baa565b60009392919319948486810111620001e857600080516020620033398339815191529562000c8b956020848662000c8196522001015460301c620010a1565b5083151562000b96565b65ffffffffffff80431162000b5a57600a5460008162000d2857505062000aaf62000d24926000620010a1565b9091565b90926000198481810111620001e85762000d2494602084600a62000aaf96522001015460301c620010a1565b65ffffffffffff9081431162000b5a57805460008162000d8157505062000c8162000d2493600062001087565b90936000198581810111620001e85762000d24956020848662000c8196522001015460301c62001087565b6001600160d01b039081811162000dc1571690565b604490604051906306dfcc6560e41b825260d060048301526024820152fd5b600019810191908211620001e857565b600a549068010000000000000000821015620000de576001820180600a5582101562000e5257600a60005280516020919091015160301b65ffffffffffff191665ffffffffffff91909116176000805160206200331983398151915290910155565b634e487b7160e01b600052603260045260246000fd5b90815468010000000000000000811015620000de576001810180845581101562000e525760009283526020928390208251929093015160301b65ffffffffffff191665ffffffffffff9290921691909117910155565b600a54919291801562000f8b5762000eda62000ef39162000de0565b600a600052600080516020620033198339815191520190565b9081549165ffffffffffff9081841691831680831162000f795786920362000f3b5762000f3492509065ffffffffffff82549181199060301b169116179055565b60301c9190565b505062000f739062000f5e62000f5062000100565b65ffffffffffff9092168252565b6001600160d01b038516602082015262000df0565b62000f34565b604051632520601d60e01b8152600490fd5b5062000fb49062000f9f62000f5062000100565b6001600160d01b038416602082015262000df0565b60009190565b805492939280156200105d5762000fd562000fe29162000de0565b8260005260206000200190565b9182549265ffffffffffff9182851692811680841162000f795787930362001024575062000f3492509065ffffffffffff82549181199060301b169116179055565b91505062000f7391620010486200103a62000100565b65ffffffffffff9093168352565b6001600160d01b038616602083015262000e68565b509062000fb491620010726200103a62000100565b6001600160d01b038516602083015262000e68565b6001600160d01b0391821690821601908111620001e85790565b6001600160d01b0391821690821603908111620001e8579056fe6080604052600436101561001257600080fd5b60003560e01c806306fdde03146101d7578063095ea7b3146101d257806318160ddd146101cd5780632131c68c146101c857806323b872dd146101c3578063313ce567146101be5780633644e515146101b95780633a46b1a8146101b457806340c10f19146101af57806342966c68146101aa5780634bf5d7e9146101a5578063587cde1e146101a05780635c19a95c1461019b5780636fcfff451461019657806370a082311461019157806379cc67901461018c5780637ecebe001461018757806384b0196e146101825780638e539e8c1461017d57806391ddadf41461017857806395d89b41146101735780639a3cac6a1461016e5780639ab24eb014610169578063a9059cbb14610164578063c3cda5201461015f578063d505accf1461015a578063dd62ed3e146101555763f1127ed81461015057600080fd5b610ec1565b610e69565b610d35565b610c6c565b610c26565b610bdd565b610b04565b610a5d565b610a31565b610962565b61086a565b610830565b610800565b6107c7565b61075f565b61073d565b610702565b610670565b610653565b61051d565b610435565b610412565b6103f6565b6103be565b610395565b610377565b610346565b610230565b919082519283825260005b848110610208575050826000602080949584010152601f8019910116010190565b6020818301810151848301820152016101e7565b90602061022d9281815201906101dc565b90565b3461031557600080600319360112610312576040519080600354610253816112f1565b808552916001918083169081156102e8575060011461028d575b6102898561027d81870382610fff565b6040519182918261021c565b0390f35b9250600383527fc2575a0e9e593c00f959f8c92f12db2869c3395a3b0502d05e2516446f71f85b5b8284106102d057505050810160200161027d8261028961026d565b805460208587018101919091529093019281016102b5565b8695506102899693506020925061027d94915060ff191682840152151560051b820101929361026d565b80fd5b600080fd5b600435906001600160a01b038216820361031557565b602435906001600160a01b038216820361031557565b346103155760403660031901126103155761036c61036261031a565b6024359033611424565b602060405160018152f35b34610315576000366003190112610315576020600254604051908152f35b3461031557600036600319011261031557600b546040516001600160a01b039091168152602090f35b346103155760603660031901126103155761036c6103da61031a565b6103e2610330565b604435916103f18333836114d8565b61132b565b3461031557600036600319011261031557602060405160128152f35b3461031557600036600319011261031557602061042d61183e565b604051908152f35b34610315576040366003190112610315576001600160a01b0361045661031a565b16600090815260096020526040812090610471602435611030565b918054829381600581116104c3575b509060209461048f9284612076565b806104a95750505b6040516001600160d01b039091168152f35b916104b5849293611b96565b92815220015460301c610497565b946104cd86611be0565b86039586116105185760209561048f9385875265ffffffffffff80838a8a20015416908516106000146105065750915b91925094610480565b92915061051290611ba5565b906104fd565b6112db565b346103155760403660031901126103155761053661031a565b600b54602435906001600160a01b03908116330361060e57821680156105f55761056a61056583600254611bb3565b600255565b6001600160a01b038316600090815260208181526040808320805486019055518481527fddf252ad1be2c89b69c2b068fc378daa952ba7f163c4a11628f55a4df523b3ef9190a3600254916001600160d01b0383116105cf576105cd9250612123565b005b604051630e58ae9360e11b8152600481018490526001600160d01b036024820152604490fd5b60405163ec442f0560e01b815260006004820152602490fd5b60405162461bcd60e51b815260206004820152601b60248201527f41544e546f6b656e3a2063616c6c6572206973206e6f742044414f00000000006044820152606490fd5b34610315576020366003190112610315576105cd60043533611587565b346103155760003660031901126103155761068a43611b64565b65ffffffffffff8061069b43611b64565b169116036106f0576102896040516106b281610f8a565b601d81527f6d6f64653d626c6f636b6e756d6265722666726f6d3d64656661756c7400000060208201526040519182916020835260208301906101dc565b6040516301bfc1c560e61b8152600490fd5b346103155760203660031901126103155760206001600160a01b038061072661031a565b166000526008825260406000205416604051908152f35b34610315576020366003190112610315576105cd61075961031a565b33611071565b34610315576020366003190112610315576001600160a01b0361078061031a565b16600052600960205260406000205463ffffffff908181116107a85760209160405191168152f35b604490604051906306dfcc6560e41b8252602060048301526024820152fd5b3461031557602036600319011261031557602061042d6107e561031a565b6001600160a01b031660009081526020819052604090205490565b34610315576040366003190112610315576105cd61081c61031a565b6024359061082b8233836114d8565b611587565b34610315576020366003190112610315576001600160a01b0361085161031a565b1660005260076020526020604060002054604051908152f35b346103155760008060031936011261031257610914906108a97f000000000000000000000000000000000000000000000000000000000000000061197e565b6108d27f0000000000000000000000000000000000000000000000000000000000000000611a77565b91604051916108e083610fab565b818352604051948594600f60f81b865261090660209360e08589015260e08801906101dc565b9086820360408801526101dc565b904660608601523060808601528260a086015284820360c08601528080855193848152019401925b82811061094b57505050500390f35b83518552869550938101939281019260010161093c565b346103155760203660031901126103155761097e600435611030565b600a549060008291600584116109d6575b610999935061200d565b6000816109ae57505060405160008152602090f35b600a6109bb602093611b96565b9152600080516020612208833981519152015460301c610497565b91926109e181611be0565b81039081116105185761099993600a835265ffffffffffff808360008051602061220883398151915201541690851610600014610a1f57509161098f565b929150610a2b90611ba5565b9061098f565b34610315576000366003190112610315576020610a4d43611b64565b65ffffffffffff60405191168152f35b3461031557600080600319360112610312576040519080600454610a80816112f1565b808552916001918083169081156102e85750600114610aa9576102898561027d81870382610fff565b9250600483527f8a35acfbc15ff81a39ae7d344fd709f28e8600b4aa8c65c6b64bfe7fe36bd19b5b828410610aec57505050810160200161027d8261028961026d565b80546020858701810191909152909301928101610ad1565b3461031557602036600319011261031557610b1d61031a565b600b546001600160a01b039081163303610b8c57610b6590821691610b438315156120d7565b60018060a01b03166bffffffffffffffffffffffff60a01b600b541617600b55565b7fb5f93c8ed7df84870256f07ba228e09a30a9b6385a7737fe93d8cbb87e7dc770600080a2005b60405162461bcd60e51b815260206004820152602360248201527f41544e546f6b656e3a2063616c6c6572206973206e6f742063757272656e742060448201526244414f60e81b6064820152608490fd5b34610315576020366003190112610315576001600160a01b03610bfe61031a565b166000526009602052602060018060d01b03610c1d6040600020611d55565b16604051908152f35b346103155760403660031901126103155761036c610c4261031a565b602435903361132b565b6064359060ff8216820361031557565b6084359060ff8216820361031557565b346103155760c036600319011261031557610c8561031a565b60443590602435610c94610c4c565b834211610d1c57610d106105cd94610d17926040519060208201927fe48329057bfd03d55e49b547132e39cffd9c1820ad7b9d4c5307691425d15adf845260018060a01b0388166040840152866060840152608083015260808252610cf882610fc7565b610d0b60a4359360843593519020611958565b6116e9565b9182611693565b611071565b604051632341d78760e11b815260048101859052602490fd5b346103155760e036600319011261031557610d4e61031a565b610d56610330565b60443590606435610d65610c5c565b814211610e50576001600160a01b0385811660008181526007602090815260409182902080546001810190915582517f6e71edae12b1b97f4d1f60370fef10105fa2faae0126114a169c64845d6126c99281019283529283019390935292861660608201526080810187905260a081019190915260c080820194909452928352610e09929091610df660e083610fff565b610d0b60c4359360a43593519020611958565b6001600160a01b0384811690821603610e2657506105cd92611424565b6040516325c0072360e11b81526001600160a01b0391821660048201529084166024820152604490fd5b60405163313c898160e11b815260048101839052602490fd5b34610315576040366003190112610315576020610eb8610e8761031a565b610e8f610330565b6001600160a01b0391821660009081526001855260408082209290931681526020919091522090565b54604051908152f35b3461031557604036600319011261031557610eda61031a565b6024359063ffffffff821682036103155761028991610f2a91610efb61167a565b50610f0461167a565b506001600160a01b03166000908152600960205260409020610f2461167a565b50611d83565b5060405190610f3882610f8a565b5465ffffffffffff811680835260309190911c60209283019081526040805192835290516001600160d01b031692820192909252918291820190565b634e487b7160e01b600052604160045260246000fd5b6040810190811067ffffffffffffffff821117610fa657604052565b610f74565b6020810190811067ffffffffffffffff821117610fa657604052565b60a0810190811067ffffffffffffffff821117610fa657604052565b60c0810190811067ffffffffffffffff821117610fa657604052565b90601f8019910116810190811067ffffffffffffffff821117610fa657604052565b6040519061102e82610f8a565b565b65ffffffffffff61104043611b64565b1680821015611053575061022d90611b64565b6044925060405191637669fc0f60e11b835260048301526024820152fd5b6001600160a01b03818116600081815260086020526040812080548685166001600160a01b03198216811790925561102e969416946110ee9390928691907f3134e8a2e6d97e929a7e54011ea5485d7d196dd5f0ba4d4ef95803e8e3fc257f9080a46001600160a01b031660009081526020819052604090205490565b915b6001600160a01b03808316939291908116908185141580611239575b611118575b5050505050565b8161119d575b50508261112d575b8080611111565b6001600160a01b031660009081526009602052604090207fdec2bacdd2f05b59de34da9b523dff8be42e5e38e818c82fdb0bae774387a7249161117a916111749091611b31565b90611242565b604080516001600160d01b039384168152919092166020820152a2388080611126565b6001600160a01b031660009081526009602052604090206111bd84611b31565b6111c643611b64565b6001600160d01b039182806111da86611d55565b169116900392828411610518577fdec2bacdd2f05b59de34da9b523dff8be42e5e38e818c82fdb0bae774387a7249361122f9261121692611f51565b6040805192851683529316602082015291829190820190565b0390a2388061111e565b5083151561110c565b9061124c43611b64565b6001600160d01b0391828061126086611d55565b169116019182116105185761127492611f51565b9091565b61128143611b64565b906001600160d01b03908180611295611d0b565b169116019081116105185761127491611e68565b6112b243611b64565b906001600160d01b039081806112c6611d0b565b16911690039081116112db5761127491611e68565b634e487b7160e01b600052601160045260246000fd5b90600182811c92168015611321575b602083101461130b57565b634e487b7160e01b600052602260045260246000fd5b91607f1691611300565b6001600160a01b038082169493929190851561140b57821680156105f5576001600160a01b038216600090815260208190526040902054958487106113dc578461102e96970361138d8460018060a01b03166000526000602052604060002090565b556001600160a01b0384166000908152602081815260409182902080548801905590518681527fddf252ad1be2c89b69c2b068fc378daa952ba7f163c4a11628f55a4df523b3ef9190a361219c565b60405163391434e360e21b81526001600160a01b03841660048201526024810188905260448101869052606490fd5b604051634b637e8f60e11b815260006004820152602490fd5b6001600160a01b0380821692919083156114bf5782169384156114a6578061149c7f8c5be1e5ebec7d5bd14f71427d1e84f3dd0314c0f7b2291e5b200ac8c7c3b9259461148560209560018060a01b03166000526001602052604060002090565b9060018060a01b0316600052602052604060002090565b55604051908152a3565b604051634a1406b160e11b815260006004820152602490fd5b60405163e602df0560e01b815260006004820152602490fd5b6001600160a01b03818116600081815260016020908152604080832087861684529091529020549294939291906000198310611517575b505050505050565b84831061155857156114bf578216156114a65761154c9261148591039360018060a01b03166000526001602052604060002090565b5538808080808061150f565b604051637dc7a0d960e11b81526001600160a01b03851660048201526024810184905260448101869052606490fd5b91906001600160a01b03808416801561140b576001600160a01b038516600090815260208190526040902054948386106116495790602092916115e38561102e9798039160018060a01b03166000526000602052604060002090565b558360025403600255604051848152817fddf252ad1be2c89b69c2b068fc378daa952ba7f163c4a11628f55a4df523b3ef6000958693a361162b61162685611b31565b6112a9565b505082526008602052604081818420541692808052205416906110f0565b60405163391434e360e21b81526001600160a01b039190911660048201526024810186905260448101849052606490fd5b6040519061168782610f8a565b60006020838281520152565b6001600160a01b038116600090815260076020526040902080546001810190915590918190036116c1575050565b6040516301d4b62360e61b81526001600160a01b039092166004830152602482015260449150fd5b9161022d93916116f893611701565b909291926117b1565b91907f7fffffffffffffffffffffffffffffff5d576e7357a4501ddfe92f46681b20a0841161178557926020929160ff608095604051948552168484015260408301526060820152600092839182805260015afa156117795780516001600160a01b0381161561177057918190565b50809160019190565b604051903d90823e3d90fd5b50505060009160039190565b6004111561179b57565b634e487b7160e01b600052602160045260246000fd5b6117ba81611791565b806117c3575050565b6117cc81611791565b600181036117e65760405163f645eedf60e01b8152600490fd5b6117ef81611791565b600281036118105760405163fce698f760e01b815260048101839052602490fd5b8061181c600392611791565b146118245750565b6040516335e2f38360e21b81526004810191909152602490fd5b307f00000000000000000000000000000000000000000000000000000000000000006001600160a01b0316148061192f575b15611899577f000000000000000000000000000000000000000000000000000000000000000090565b60405160208101907f8b73c3c69bb8fe3d512ecc4cf759cc79239f7b179b0ffacaa9a75d522b39400f82527f000000000000000000000000000000000000000000000000000000000000000060408201527f000000000000000000000000000000000000000000000000000000000000000060608201524660808201523060a082015260a0815261192981610fe3565b51902090565b507f00000000000000000000000000000000000000000000000000000000000000004614611870565b60429061196361183e565b906040519161190160f01b8352600283015260228201522090565b60ff81146119bc5760ff811690601f82116119aa57604051916119a083610f8a565b8252602082015290565b604051632cd44ac360e21b8152600490fd5b506040516005548160006119cf836112f1565b80835292600190818116908115611a5557506001146119f6575b5061022d92500382610fff565b6005600090815291507f036b6384b5eca791c62761152d0c79bb0604c104a5fb6f4eb0703f3154bb3db05b848310611a3a575061022d9350508101602001386119e9565b81935090816020925483858901015201910190918492611a21565b90506020925061022d94915060ff191682840152151560051b820101386119e9565b60ff8114611a995760ff811690601f82116119aa57604051916119a083610f8a565b50604051600654816000611aac836112f1565b80835292600190818116908115611a555750600114611ad2575061022d92500382610fff565b6006600090815291507ff652222313e28459528d920b65115c16c04f3efc82aaedc97be59f3f377c0d3f5b848310611b16575061022d9350508101602001386119e9565b81935090816020925483858901015201910190918492611afd565b6001600160d01b0390818111611b45571690565b604490604051906306dfcc6560e41b825260d060048301526024820152fd5b65ffffffffffff90818111611b77571690565b604490604051906306dfcc6560e41b8252603060048301526024820152fd5b60001981019190821161051857565b906001820180921161051857565b9190820180921161051857565b8115611bca570490565b634e487b7160e01b600052601260045260246000fd5b600181111561022d57600181600160801b811015611cf9575b611ca1611c97611c8d611c83611c79611c6f611cad97600488600160401b611ca89a1015611cec575b640100000000811015611cdf575b62010000811015611cd2575b610100811015611cc6575b6010811015611cba575b1015611cb2575b60030260011c611c68818b611bc0565b0160011c90565b611c68818a611bc0565b611c688189611bc0565b611c688188611bc0565b611c688187611bc0565b611c688186611bc0565b8093611bc0565b821190565b900390565b60011b611c58565b811c9160021b91611c51565b60081c91811b91611c47565b60101c9160081b91611c3c565b60201c9160101b91611c30565b60401c9160201b91611c22565b50600160401b9050608082901c611bf9565b600a5460009080611d1d575050600090565b8060001981011161051857600a7fc65a7bb8d6351c1cf70c95a316cc6a92839c986682d98bc35f958f4883f9d2a79252015460301c90565b805460009181611d6757505050600090565b6000199282848101116105185760209181522001015460301c90565b8054821015611d9b5760005260206000200190600090565b634e487b7160e01b600052603260045260246000fd5b600a5490600160401b821015610fa6576001820180600a55821015611d9b57600a600052805160209091015160301b65ffffffffffff191665ffffffffffff919091161760008051602061220883398151915290910155565b8054600160401b811015610fa657611e2791600182018155611d83565b611e5257815160209092015160301b65ffffffffffff191665ffffffffffff92909216919091179055565b634e487b7160e01b600052600060045260246000fd5b600a549192918015611f2757611e80611e9891611b96565b600a6000526000805160206122088339815191520190565b9081549165ffffffffffff90818416918316808311611f1557869203611edd57611ed692509065ffffffffffff82549181199060301b169116179055565b60301c9190565b5050611f1090611efc611eee611021565b65ffffffffffff9092168252565b6001600160d01b0385166020820152611db1565b611ed6565b604051632520601d60e01b8152600490fd5b50611f4b90611f37611eee611021565b6001600160d01b0384166020820152611db1565b60009190565b80549293928015611fe857611f68611f7591611b96565b8260005260206000200190565b9182549265ffffffffffff91828516928116808411611f1557879303611fb45750611ed692509065ffffffffffff82549181199060301b169116179055565b915050611f1091611fd4611fc6611021565b65ffffffffffff9093168352565b6001600160d01b0386166020830152611e0a565b5090611f4b91611ff9611fc6611021565b6001600160d01b0385166020830152611e0a565b905b82811061201b57505090565b90918082169080831860011c820180921161051857600a60005265ffffffffffff8083600080516020612208833981519152015416908516106000146120645750915b9061200f565b92915061207090611ba5565b9061205e565b91905b8382106120865750505090565b9091928083169080841860011c82018092116105185760008581526020902082015465ffffffffffff90811690841610156120c55750925b9190612079565b9392506120d190611ba5565b916120be565b156120de57565b60405162461bcd60e51b815260206004820152601960248201527f41544e546f6b656e3a206e65772044414f206973207a65726f000000000000006044820152606490fd5b9061102e9161213961213483611b31565b611278565b50506001600160a01b03908116908115612189575b60086020527f5eff886ea0ce6ca488a3d6e336d6c0f75f46d19b42c06ce5ee98e42c96d256c7546000928352604090922054811691166110f0565b61219561162684611b31565b505061214e565b61102e92916001600160a01b039182169190819083156121f4575b169182156121e1575b600052600860205280604060002054169160005260406000205416906110f0565b6121ed61162685611b31565b50506121c0565b61220061213486611b31565b50506121b756fec65a7bb8d6351c1cf70c95a316cc6a92839c986682d98bc35f958f4883f9d2a8a2646970667358221220fa6ac19a55addbd8422f629b141730d2231088e1d965b43afaa7d499bd93cbf064736f6c63430008140033c65a7bb8d6351c1cf70c95a316cc6a92839c986682d98bc35f958f4883f9d2a8dec2bacdd2f05b59de34da9b523dff8be42e5e38e818c82fdb0bae774387a724",
  "linkReferences": {},
  "deployedLinkReferences": {}
}