{
  "_format": "hh-sol-artifact-1",
  "contractName": "TaskContract",
  "sourceName": "contracts/core/TaskContract.sol",
  "abi": [
    {
      "inputs": [
        {
          "internalType": "address",
          "name": "_staking",
          "type": "address"
        },
        {
          "internalType": "address",
          "name": "_governance",
          "type": "address"
        }
      ],
      "stateMutability": "nonpayable",
      "type": "constructor"
    },
    {
      "anonymous": false,
      "inputs": [
        {
          "indexed": true,
          "internalType": "uint256",
          "name": "taskId",
          "type": "uint256"
        },
        {
          "indexed": true,
          "internalType": "address",
          "name": "solver",
          "type": "address"
        },
        {
          "indexed": false,
          "internalType": "uint256",
          "name": "stepNumber",
          "type": "uint256"
        },
        {
          "indexed": false,
          "internalType": "bytes32",
          "name": "weightsHash",
          "type": "bytes32"
        }
      ],
      "name": "CheckpointSubmitted",
      "type": "event"
    },
    {
      "anonymous": false,
      "inputs": [
        {
          "indexed": true,
          "internalType": "uint256",
          "name": "taskId",
          "type": "uint256"
        },
        {
          "indexed": true,
          "internalType": "address",
          "name": "solver",
          "type": "address"
        },
        {
          "indexed": false,
          "internalType": "bytes32",
          "name": "solutionHash",
          "type": "bytes32"
        }
      ],
      "name": "SolutionCommitted",
      "type": "event"
    },
    {
      "anonymous": false,
      "inputs": [
        {
          "indexed": true,
          "internalType": "uint256",
          "name": "taskId",
          "type": "uint256"
        }
      ],
      "name": "TaskActivated",
      "type": "event"
    },
    {
      "anonymous": false,
      "inputs": [
        {
          "indexed": true,
          "internalType": "uint256",
          "name": "taskId",
          "type": "uint256"
        },
        {
          "indexed": true,
          "internalType": "uint256",
          "name": "projectId",
          "type": "uint256"
        },
        {
          "indexed": true,
          "internalType": "address",
          "name": "proposer",
          "type": "address"
        },
        {
          "indexed": false,
          "internalType": "bytes32",
          "name": "specHash",
          "type": "bytes32"
        },
        {
          "indexed": false,
          "internalType": "bytes32",
          "name": "groundTruthHash",
          "type": "bytes32"
        }
      ],
      "name": "TaskProposed",
      "type": "event"
    },
    {
      "anonymous": false,
      "inputs": [
        {
          "indexed": true,
          "internalType": "uint256",
          "name": "taskId",
          "type": "uint256"
        },
        {
          "indexed": false,
          "internalType": "enum AutonetLib.TaskStatus",
          "name": "newStatus",
          "type": "uint8"
        }
      ],
      "name": "TaskStatusUpdated",
      "type": "event"
    },
    {
      "inputs": [
        {
          "internalType": "uint256",
          "name": "_taskId",
          "type": "uint256"
        }
      ],
      "name": "activateTask",
      "outputs": [],
      "stateMutability": "nonpayable",
      "type": "function"
    },
    {
      "inputs": [
        {
          "internalType": "uint256",
          "name": "",
          "type": "uint256"
        },
        {
          "internalType": "address",
          "name": "",
          "type": "address"
        }
      ],
      "name": "checkpointFrequency",
      "outputs": [
        {
          "internalType": "uint256",
          "name": "",
          "type": "uint256"
        }
      ],
      "stateMutability": "view",
      "type": "function"
    },
    {
      "inputs": [
        {
          "internalType": "uint256",
          "name": "",
          "type": "uint256"
        },
        {
          "internalType": "address",
          "name": "",
          "type": "address"
        },
        {
          "internalType": "uint256",
          "name": "",
          "type": "uint256"
        }
      ],
      "name": "checkpoints",
      "outputs": [
        {
          "internalType": "uint256",
          "name": "stepNumber",
          "type": "uint256"
        },
        {
          "internalType": "bytes32",
          "name": "weightsHash",
          "type": "bytes32"
        },
        {
          "internalType": "bytes32",
          "name": "dataIndicesHash",
          "type": "bytes32"
        },
        {
          "internalType": "bytes32",
          "name": "randomSeed",
          "type": "bytes32"
        },
        {
          "internalType": "uint256",
          "name": "timestamp",
          "type": "uint256"
        }
      ],
      "stateMutability": "view",
      "type": "function"
    },
    {
      "inputs": [
        {
          "internalType": "uint256",
          "name": "_taskId",
          "type": "uint256"
        },
        {
          "internalType": "bytes32",
          "name": "_solutionHash",
          "type": "bytes32"
        }
      ],
      "name": "commitSolution",
      "outputs": [],
      "stateMutability": "nonpayable",
      "type": "function"
    },
    {
      "inputs": [
        {
          "internalType": "uint256",
          "name": "_taskId",
          "type": "uint256"
        },
        {
          "internalType": "address",
          "name": "_solver",
          "type": "address"
        },
        {
          "internalType": "uint256",
          "name": "_targetStep",
          "type": "uint256"
        }
      ],
      "name": "findCheckpointAtStep",
      "outputs": [
        {
          "internalType": "uint256",
          "name": "checkpointIndex",
          "type": "uint256"
        }
      ],
      "stateMutability": "view",
      "type": "function"
    },
    {
      "inputs": [
        {
          "internalType": "uint256",
          "name": "_taskId",
          "type": "uint256"
        },
        {
          "internalType": "address",
          "name": "_solver",
          "type": "address"
        },
        {
          "internalType": "uint256",
          "name": "_index",
          "type": "uint256"
        }
      ],
      "name": "getCheckpoint",
      "outputs": [
        {
          "components": [
            {
              "internalType": "uint256",
              "name": "stepNumber",
              "type": "uint256"
            },
            {
              "internalType": "bytes32",
              "name": "weightsHash",
              "type": "bytes32"
            },
            {
              "internalType": "bytes32",
              "name": "dataIndicesHash",
              "type": "bytes32"
            },
            {
              "internalType": "bytes32",
              "name": "randomSeed",
              "type": "bytes32"
            },
            {
              "internalType": "uint256",
              "name": "timestamp",
              "type": "uint256"
            }
          ],
          "internalType": "struct AutonetLib.TrainingCheckpoint",
          "name": "",
          "type": "tuple"
        }
      ],
      "stateMutability": "view",
      "type": "function"
    },
    {
      "inputs": [
        {
          "internalType": "uint256",
          "name": "_taskId",
          "type": "uint256"
        },
        {
          "internalType": "address",
          "name": "_solver",
          "type": "address"
        }
      ],
      "name": "getCheckpointCount",
      "outputs": [
        {
          "internalType": "uint256",
          "name": "",
          "type": "uint256"
        }
      ],
      "stateMutability": "view",
      "type": "function"
    },
    {
      "inputs": [
        {
          "internalType": "uint256",
          "name": "_taskId",
          "type": "uint256"
        },
        {
          "internalType": "address",
          "name": "_solver",
          "type": "address"
        }
      ],
      "name": "getCheckpoints",
      "outputs": [
        {
          "components": [
            {
              "internalType": "uint256",
              "name": "stepNumber",
              "type": "uint256"
            },
            {
              "internalType": "bytes32",
              "name": "weightsHash",
              "type": "bytes32"
            },
            {
              "internalType": "bytes32",
              "name": "dataIndicesHash",
              "type": "bytes32"
            },
            {
              "internalType": "bytes32",
              "name": "randomSeed",
              "type": "bytes32"
            },
            {
              "internalType": "uint256",
              "name": "timestamp",
              "type": "uint256"
            }
          ],
          "internalType": "struct AutonetLib.TrainingCheckpoint[]",
          "name": "",
          "type": "tuple[]"
        }
      ],
      "stateMutability": "view",
      "type": "function"
    },
    {
      "inputs": [
        {
          "internalType": "uint256",
          "name": "_taskId",
          "type": "uint256"
        }
      ],
      "name": "getCommittedSolvers",
      "outputs": [
        {
          "internalType": "address[]",
          "name": "",
          "type": "address[]"
        }
      ],
      "stateMutability": "view",
      "type": "function"
    },
    {
      "inputs": [
        {
          "internalType": "uint256",
          "name": "_taskId",
          "type": "uint256"
        },
        {
          "internalType": "address",
          "name": "_solver",
          "type": "address"
        }
      ],
      "name": "getSubmission",
      "outputs": [
        {
          "components": [
            {
              "internalType": "bytes32",
              "name": "solutionHash",
              "type": "bytes32"
            },
            {
              "internalType": "address",
              "name": "solver",
              "type": "address"
            },
            {
              "internalType": "uint256",
              "name": "submissionBlock",
              "type": "uint256"
            },
            {
              "internalType": "uint256",
              "name": "score",
              "type": "uint256"
            }
          ],
          "internalType": "struct AutonetLib.SolverSubmission",
          "name": "",
          "type": "tuple"
        }
      ],
      "stateMutability": "view",
      "type": "function"
    },
    {
      "inputs": [
        {
          "internalType": "uint256",
          "name": "_taskId",
          "type": "uint256"
        }
      ],
      "name": "getTask",
      "outputs": [
        {
          "internalType": "uint256",
          "name": "id",
          "type": "uint256"
        },
        {
          "internalType": "uint256",
          "name": "projectId",
          "type": "uint256"
        },
        {
          "internalType": "address",
          "name": "proposer",
          "type": "address"
        },
        {
          "internalType": "enum AutonetLib.TaskStatus",
          "name": "status",
          "type": "uint8"
        },
        {
          "internalType": "uint256",
          "name": "solverReward",
          "type": "uint256"
        },
        {
          "internalType": "uint256",
          "name": "learnabilityReward",
          "type": "uint256"
        }
      ],
      "stateMutability": "view",
      "type": "function"
    },
    {
      "inputs": [
        {
          "internalType": "uint256",
          "name": "_taskId",
          "type": "uint256"
        }
      ],
      "name": "getTaskProposal",
      "outputs": [
        {
          "components": [
            {
              "internalType": "bytes32",
              "name": "specHash",
              "type": "bytes32"
            },
            {
              "internalType": "bytes32",
              "name": "groundTruthSolHash",
              "type": "bytes32"
            },
            {
              "internalType": "address",
              "name": "proposer",
              "type": "address"
            },
            {
              "internalType": "uint256",
              "name": "proposedLearnabilityReward",
              "type": "uint256"
            },
            {
              "internalType": "uint256",
              "name": "proposedSolverReward",
              "type": "uint256"
            },
            {
              "internalType": "uint256",
              "name": "creationBlock",
              "type": "uint256"
            },
            {
              "internalType": "enum AutonetLib.TaskStatus",
              "name": "status",
              "type": "uint8"
            },
            {
              "internalType": "uint256",
              "name": "projectId",
              "type": "uint256"
            }
          ],
          "internalType": "struct AutonetLib.TaskProposal",
          "name": "",
          "type": "tuple"
        }
      ],
      "stateMutability": "view",
      "type": "function"
    },
    {
      "inputs": [],
      "name": "governance",
      "outputs": [
        {
          "internalType": "address",
          "name": "",
          "type": "address"
        }
      ],
      "stateMutability": "view",
      "type": "function"
    },
    {
      "inputs": [],
      "name": "nextTaskId",
      "outputs": [
        {
          "internalType": "uint256",
          "name": "",
          "type": "uint256"
        }
      ],
      "stateMutability": "view",
      "type": "function"
    },
    {
      "inputs": [
        {
          "internalType": "uint256",
          "name": "_projectId",
          "type": "uint256"
        },
        {
          "internalType": "bytes32",
          "name": "_specHash",
          "type": "bytes32"
        },
        {
          "internalType": "bytes32",
          "name": "_groundTruthHash",
          "type": "bytes32"
        },
        {
          "internalType": "uint256",
          "name": "_learnabilityReward",
          "type": "uint256"
        },
        {
          "internalType": "uint256",
          "name": "_solverReward",
          "type": "uint256"
        }
      ],
      "name": "proposeTask",
      "outputs": [
        {
          "internalType": "uint256",
          "name": "taskId",
          "type": "uint256"
        }
      ],
      "stateMutability": "nonpayable",
      "type": "function"
    },
    {
      "inputs": [],
      "name": "resultsRewardsContract",
      "outputs": [
        {
          "internalType": "address",
          "name": "",
          "type": "address"
        }
      ],
      "stateMutability": "view",
      "type": "function"
    },
    {
      "inputs": [
        {
          "internalType": "uint256",
          "name": "_taskId",
          "type": "uint256"
        },
        {
          "internalType": "uint256",
          "name": "_frequency",
          "type": "uint256"
        }
      ],
      "name": "setCheckpointFrequency",
      "outputs": [],
      "stateMutability": "nonpayable",
      "type": "function"
    },
    {
      "inputs": [
        {
          "internalType": "address",
          "name": "_contract",
          "type": "address"
        }
      ],
      "name": "setResultsRewardsContract",
      "outputs": [],
      "stateMutability": "nonpayable",
      "type": "function"
    },
    {
      "inputs": [],
      "name": "staking",
      "outputs": [
        {
          "internalType": "contract ParticipantStaking",
          "name": "",
          "type": "address"
        }
      ],
      "stateMutability": "view",
      "type": "function"
    },
    {
      "inputs": [
        {
          "internalType": "uint256",
          "name": "",
          "type": "uint256"
        },
        {
          "internalType": "address",
          "name": "",
          "type": "address"
        }
      ],
      "name": "submissions",
      "outputs": [
        {
          "internalType": "bytes32",
          "name": "solutionHash",
          "type": "bytes32"
        },
        {
          "internalType": "address",
          "name": "solver",
          "type": "address"
        },
        {
          "internalType": "uint256",
          "name": "submissionBlock",
          "type": "uint256"
        },
        {
          "internalType": "uint256",
          "name": "score",
          "type": "uint256"
        }
      ],
      "stateMutability": "view",
      "type": "function"
    },
    {
      "inputs": [
        {
          "internalType": "uint256",
          "name": "_taskId",
          "type": "uint256"
        },
        {
          "internalType": "uint256",
          "name": "_stepNumber",
          "type": "uint256"
        },
        {
          "internalType": "bytes32",
          "name": "_weightsHash",
          "type": "bytes32"
        },
        {
          "internalType": "bytes32",
          "name": "_dataIndicesHash",
          "type": "bytes32"
        },
        {
          "internalType": "bytes32",
          "name": "_randomSeed",
          "type": "bytes32"
        }
      ],
      "name": "submitCheckpoint",
      "outputs": [],
      "stateMutability": "nonpayable",
      "type": "function"
    },
    {
      "inputs": [
        {
          "internalType": "uint256",
          "name": "_taskId",
          "type": "uint256"
        },
        {
          "internalType": "enum AutonetLib.TaskStatus",
          "name": "_newStatus",
          "type": "uint8"
        }
      ],
      "name": "updateTaskStatus",
      "outputs": [],
      "stateMutability": "nonpayable",
      "type": "function"
    }
  ],
  "bytecode": "0x60a0346100ae57601f61178438819003918201601f19168301916001600160401b038311848410176100b35780849260409485528339810103126100ae57610052602061004b836100c9565b92016100c9565b60016002556001600160a01b03918216608052600080546001600160a01b031916919092161790556040516116a690816100de82396080518181816106330152818161086b015281816109fc01528181610ada01526110b40152f35b600080fd5b634e487b7160e01b600052604160045260246000fd5b51906001600160a01b03821682036100ae5756fe6040608081526004908136101561001557600080fd5b600091823560e01c90816302cb134e146112fc578163061194b3146110555781630e4dbf5c14610ff2578163100b8ef114610e9f57816312581c6414610d6f5781631d65e77e14610cff5781633f9a29e914610a765781633fc2b70d14610a2b5781634cf088d9146109e757816353969aa11461081e57816355f0e221146107755781635aa6e6751461074d5781635c4461081461070b578163676b22f6146105da5781637d123327146105b15781638583e321146104895781638760e62214610393578163938105a1146102df5781639a8c3e9114610265578163ab9b68111461017c578163c5d28b2214610136575063fdc3d8d71461011557600080fd5b346101325781600319360112610132576020906002549051908152f35b5080fd5b90503461017857816003193601126101785760209282916101556113b6565b90358252600585528282206001600160a01b039091168252845220549051908152f35b8280fd5b90503461017857816003193601126101785780359160243591600c8310156102615783855260036020526101b482862054151561159a565b600154336001600160a01b0391821614908115610254575b501561022157507f9a4f521400d1b2f610a5c4845f80b4d79e3ec73d18e977ac9e0b0e6e741ec85f9161021d6020928587526003845260088188200160ff1981541660ff85161790555180926113fb565ba280f35b6020606492519162461bcd60e51b8352820152600e60248201526d139bdd08185d5d1a1bdc9a5e995960921b6044820152fd5b90508554163314386101cc565b8480fd5b9190503461017857610276366113d1565b9491825260056020528282209060018060a01b031682526020528181209081548510156102dc575060a0936102aa9161141e565b508054926001820154926002830154916003840154930154938151958652602086015284015260608301526080820152f35b80fd5b905082346102dc57602091826003193601126101325792919235815260038352600a82822001908251808584549182815201908194845286842090845b81811061037657505050816103329103826114f8565b83519485948186019282875251809352850193925b82811061035657505050500390f35b83516001600160a01b031685528695509381019392810192600101610347565b82546001600160a01b03168452928801926001928301920161031c565b905082346102dc576103a4366113d1565b9390918551916103b38361148d565b8483528460806020948286820152828a8201528260608201520152818552600583528685209360018060a01b0316938486528352868520548610156104505760a08761044e61041d6104178a848b8b8b8b835260058152838320918352522061141e565b50611634565b9151809260808091805184526020810151602085015260408101516040850152606081015160608501520151910152565bf35b865162461bcd60e51b81529081018390526013602482015272496e646578206f7574206f6620626f756e647360681b6044820152606490fd5b8284346102dc57816003193601126102dc576104a36113b6565b83358252600560208181528484206001600160a01b0390931684529182528383208054909591939167ffffffffffffffff821161059e575084959392919551926104f18383831b01856114f8565b8184528284018095885283882088915b8483106105785750505050508351938185019282865251809352840192945b82811061052d5784840385f35b9091928260a0826105696001948a5160808091805184526020810151602085015260408101516040850152606081015160608501520151910152565b01960191019492919094610520565b838660019261058b859d999a9b9d611634565b8152019201920191909896959498610501565b634e487b7160e01b835260419052602482fd5b50503461013257816003193601126101325760015490516001600160a01b039091168152602090f35b91905034610178578060031936011261017857813591602435928085526020916003835261060c84872054151561159a565b8351630ac9218960e41b8152338282019081526002602082015284908290819060400103817f00000000000000000000000000000000000000000000000000000000000000006001600160a01b03165afa90811561070157906106769188916106d4575b506115dc565b84156106915750845260068152818420903385525282205580f35b835162461bcd60e51b8152908101839052601a60248201527f4672657175656e6379206d75737420626520706f7369746976650000000000006044820152606490fd5b6106f49150853d87116106fa575b6106ec81836114f8565b81019061151a565b38610670565b503d6106e2565b85513d89823e3d90fd5b905034610178578160031936011261017857602092829161072a6113b6565b90358252600685528282206001600160a01b039091168252845220549051908152f35b505034610132578160031936011261013257905490516001600160a01b039091168152602090f35b91905034610178578060031936011261017857806080936107946113b6565b9381606084516107a3816114dc565b828152826020820152828682015201528035825260205281812060018060a01b03809516825260205220908051916107da836114dc565b805493848452806001830154166020850190815260606003600285015494868801958652015495019485528351958652511660208501525190830152516060820152f35b919050346101785760a0366003190112610178578051630ac9218960e41b8152338184015260016024828101919091526020936064359392813592359060448035916084359189908290817f00000000000000000000000000000000000000000000000000000000000000006001600160a01b03165afa9081156109dd578a916109c0575b501561098757859697988591600254998a966108be88611532565b60025587845260038d52848d8b8620958a8755826001880155888d51926108e4846114bf565b8b8452830152338d8301528460608301528560808301524360a083015260c082015260e001528660028501558560038501558301336001600160601b0360a01b825416179055600583015560068201554360078201556008810160ff1981541690556009015584519182528782015233937fee987e63d086494a55eb57e6a5917f30781eb48f5f7961b51ab319f2d5528ac391a461098182611557565b51908152f35b855162461bcd60e51b815280850189905260136024820152722737ba1030b1ba34bb3290283937b837b9b2b960691b6044820152606490fd5b6109d79150893d8b116106fa576106ec81836114f8565b386108a3565b87513d8c823e3d90fd5b505034610132578160031936011261013257517f00000000000000000000000000000000000000000000000000000000000000006001600160a01b03168152602090f35b83903461013257602036600319011261013257356001600160a01b038181169182900361017857610a60908354163314611450565b6001600160601b0360a01b600154161760015580f35b838334610132578060031936011261013257823560243591818452600390602091808352610aa882872054151561159a565b8151630ac9218960e41b815233888201908152600260208201526001600160a01b0392919085908290819003604001817f000000000000000000000000000000000000000000000000000000000000000087165afa908115610cf55790610b15918991610cd857506115dc565b84875280845282872091600883019260ff845416600c811015610cc5576001809103610c905785518489898e8a8f8f610b4d886114dc565b8752838701923384528288019443865260608901968388528352528d82822090338352522094518555878686019151166001600160601b0360a01b825416179055516002840155519101558990600a8b9301918254935b848110610c61575b5015610bef575b50505050907f45614c57f96e684bc8265a9c09437b5c859b36f68c6e563ae188e0188818f1d593929160ff19825416179055519384523393a380f35b600160401b831015610c4e577f45614c57f96e684bc8265a9c09437b5c859b36f68c6e563ae188e0188818f1d598999a9b50908291610c309301815561161c565b8192915490841b9133831b921b191617905587969594898080610bb3565b634e487b7160e01b8b5260418c5260248bfd5b85610c6c828661161c565b905490891b1c163314610c8757610c8290611532565b610ba4565b5050808d610bac565b855162461bcd60e51b8152808c01889052600f60248201526e5461736b206e6f742061637469766560881b6044820152606490fd5b634e487b7160e01b8a5260218b5260248afd5b610cef9150863d88116106fa576106ec81836114f8565b8a610670565b84513d8a823e3d90fd5b905034610178576020366003190112610178578160c09382358152600360205220610d6381549360018301549360018060a01b03908401541660ff6008850154169160056006860154950154958151978852602088015286015260608501906113fb565b608083015260a0820152f35b838334610132576020366003190112610132578160e08251610d90816114bf565b82815282602082015282848201528260608201528260808201528260a08201528260c0820152015282358252600360205280822091815192610dd1846114bf565b600281015484526003810154926020850193845260018060a01b0380878401541691808701928352600584015491606088019283526006850154936080890194855260078601549560a08a0196875260ff60088201541660c08b0198600c821015610e8c576101008c8c610e848d8d8d8d8d8d8d60098e8e895201549860e08b01998a5283519a518b525160208b01525116908801525160608701525160808601525160a08501525160c08401906113fb565b5160e0820152f35b634e487b7160e01b815260218d52602490fd5b83833461013257610eaf366113d1565b918452600560209081528385206001600160a01b03909216855252818320805493918415610fbe57908294915b828610610f58575050508215610f15576000198301928311610f02576020838351908152f35b634e487b7160e01b815260118452602490fd5b815162461bcd60e51b8152602081860152601f60248201527f4e6f20636865636b706f696e74206174206f72206265666f72652073746570006044820152606490fd5b909194858101808211610fab57600190811c9183610f76848761141e565b505411610fa357508101809111610f9057945b9190610edc565b634e487b7160e01b845260118752602484fd5b965050610f89565b634e487b7160e01b855260118852602485fd5b835162461bcd60e51b8152602081880152600e60248201526d4e6f20636865636b706f696e747360901b6044820152606490fd5b91905034610178578060031936011261017857806080936110116113b6565b938035825260205281812060018060a01b03809516825260205220805492600182015416916003600283015492015492815194855260208501528301526060820152f35b839150346101325760a0366003190112610132578035602493843592604435908386526020906003825261108d84882054151561159a565b8351630ac9218960e41b8152338282019081526002602082015283908290819060400103817f00000000000000000000000000000000000000000000000000000000000000006001600160a01b03165afa9081156112f257906110f69189916112db57506115dc565b8487526003825260ff6008858920015416600c8110156112c957600181149081156112be575b501561127e578487526005825283872033885282528387209081549182611201575b85519261114a8461148d565b888452848401868152878501906064358252606086019260843584526080870194428652600160401b8210156111ef579061118a9160018201815561141e565b9690966111de577f3e4b185c0dcfdd6f3b721ddbcd63029b95f3dd9a4cce1352f779633626fca6959a9b9c9d505186555160018601555160028501555160038401555191015582519586528501523393a380f35b634e487b7160e01b8d528c86528d8dfd5b634e487b7160e01b8e52604187528e8efd5b600019830183811161126c57611217908261141e565b5054881161113e57855162461bcd60e51b81528083018590526022818c01527f436865636b706f696e742073746570206d75737420626520696e6372656173696044820152616e6760f01b6064820152608490fd5b634e487b7160e01b8a52601183528a8afd5b601a8860649386519362461bcd60e51b85528401528201527f5461736b206e6f7420696e20747261696e696e672073746174650000000000006044820152fd5b60029150148961111c565b634e487b7160e01b8852602182528888fd5b610cef9150843d86116106fa576106ec81836114f8565b85513d8a823e3d90fd5b9050346101785760203660031901126101785780359161132660018060a01b038554163314611450565b828452600360205261133c81852054151561159a565b828452600360205260ff6008828620015416600c8110156113a357611368578361136584611557565b80f35b906020606492519162461bcd60e51b835282015260156024820152744e6f7420696e2070726f706f73656420737461746560581b6044820152fd5b634e487b7160e01b855260218352602485fd5b602435906001600160a01b03821682036113cc57565b600080fd5b60609060031901126113cc57600435906024356001600160a01b03811681036113cc579060443590565b90600c8210156114085752565b634e487b7160e01b600052602160045260246000fd5b805482101561143a576000526005602060002091020190600090565b634e487b7160e01b600052603260045260246000fd5b1561145757565b60405162461bcd60e51b815260206004820152600e60248201526d4e6f7420676f7665726e616e636560901b6044820152606490fd5b60a0810190811067ffffffffffffffff8211176114a957604052565b634e487b7160e01b600052604160045260246000fd5b610100810190811067ffffffffffffffff8211176114a957604052565b6080810190811067ffffffffffffffff8211176114a957604052565b90601f8019910116810190811067ffffffffffffffff8211176114a957604052565b908160209103126113cc575180151581036113cc5790565b60001981146115415760010190565b634e487b7160e01b600052601160045260246000fd5b8060005260036020526008604060002001600160ff198254161790557f502ad655bd00a3cace2d589a05427b86e754a01d459c646149ef0017b2deb9f1600080a2565b156115a157565b60405162461bcd60e51b815260206004820152601360248201527215185cdac8191bd95cc81b9bdd08195e1a5cdd606a1b6044820152606490fd5b156115e357565b60405162461bcd60e51b81526020600482015260116024820152702737ba1030b1ba34bb329029b7b63b32b960791b6044820152606490fd5b805482101561143a5760005260206000200190600090565b906040516116418161148d565b60806004829480548452600181015460208501526002810154604085015260038101546060850152015491015256fea264697066735822122037dadf1f1353965477dee3da508e189ad624ac38365c4e75faaa68aa8d4fa1bf64736f6c63430008140033",
  "linkReferences": {},
  "deployedLinkReferences": {}
}