{
  "_format": "hh-sol-artifact-1",
  "contractName": "InferenceProviderFactory",
  "sourceName": "contracts/bridge/InferenceProviderFactory.sol",
  "abi": [
    {
      "inputs": [
        {
          "internalType": "address",
          "name": "_project",
          "type": "address"
        },
        {
          "internalType": "address",
          "name": "_owner",
          "type": "address"
        }
      ],
      "stateMutability": "nonpayable",
      "type": "constructor"
    },
    {
      "inputs": [
        {
          "internalType": "address",
          "name": "owner",
          "type": "address"
        }
      ],
      "name": "OwnableInvalidOwner",
      "type": "error"
    },
    {
      "inputs": [
        {
          "internalType": "address",
          "name": "account",
          "type": "address"
        }
      ],
      "name": "OwnableUnauthorizedAccount",
      "type": "error"
    },
    {
      "anonymous": false,
      "inputs": [
        {
          "indexed": true,
          "internalType": "uint256",
          "name": "projectId",
          "type": "uint256"
        },
        {
          "indexed": true,
          "internalType": "address",
          "name": "bridge",
          "type": "address"
        },
        {
          "indexed": true,
          "internalType": "address",
          "name": "deployer",
          "type": "address"
        }
      ],
      "name": "BridgeDeployed",
      "type": "event"
    },
    {
      "anonymous": false,
      "inputs": [
        {
          "indexed": true,
          "internalType": "address",
          "name": "previousOwner",
          "type": "address"
        },
        {
          "indexed": true,
          "internalType": "address",
          "name": "newOwner",
          "type": "address"
        }
      ],
      "name": "OwnershipTransferred",
      "type": "event"
    },
    {
      "inputs": [
        {
          "internalType": "uint256",
          "name": "",
          "type": "uint256"
        }
      ],
      "name": "allBridges",
      "outputs": [
        {
          "internalType": "address",
          "name": "",
          "type": "address"
        }
      ],
      "stateMutability": "view",
      "type": "function"
    },
    {
      "inputs": [
        {
          "internalType": "uint256",
          "name": "projectId",
          "type": "uint256"
        },
        {
          "internalType": "address",
          "name": "bridgeOwner",
          "type": "address"
        }
      ],
      "name": "deployBridge",
      "outputs": [
        {
          "internalType": "address",
          "name": "bridge",
          "type": "address"
        }
      ],
      "stateMutability": "nonpayable",
      "type": "function"
    },
    {
      "inputs": [],
      "name": "getBridgeCount",
      "outputs": [
        {
          "internalType": "uint256",
          "name": "",
          "type": "uint256"
        }
      ],
      "stateMutability": "view",
      "type": "function"
    },
    {
      "inputs": [
        {
          "internalType": "uint256",
          "name": "projectId",
          "type": "uint256"
        }
      ],
      "name": "hasBridge",
      "outputs": [
        {
          "internalType": "bool",
          "name": "",
          "type": "bool"
        }
      ],
      "stateMutability": "view",
      "type": "function"
    },
    {
      "inputs": [],
      "name": "owner",
      "outputs": [
        {
          "internalType": "address",
          "name": "",
          "type": "address"
        }
      ],
      "stateMutability": "view",
      "type": "function"
    },
    {
      "inputs": [],
      "name": "project",
      "outputs": [
        {
          "internalType": "contract Project",
          "name": "",
          "type": "address"
        }
      ],
      "stateMutability": "view",
      "type": "function"
    },
    {
      "inputs": [
        {
          "internalType": "uint256",
          "name": "",
          "type": "uint256"
        }
      ],
      "name": "projectBridges",
      "outputs": [
        {
          "internalType": "address",
          "name": "",
          "type": "address"
        }
      ],
      "stateMutability": "view",
      "type": "function"
    },
    {
      "inputs": [],
      "name": "renounceOwnership",
      "outputs": [],
      "stateMutability": "nonpayable",
      "type": "function"
    },
    {
      "inputs": [
        {
          "internalType": "address",
          "name": "newOwner",
          "type": "address"
        }
      ],
      "name": "transferOwnership",
      "outputs": [],
      "stateMutability": "nonpayable",
      "type": "function"
    }
  ],
  "bytecode": "0x60a0346100de57601f61206238819003918201601f19168301916001600160401b038311848410176100e35780849260409485528339810103126100de576020610048826100f9565b916001600160a01b0391829161005e91016100f9565b169182156100c557600080546001600160a01b03198116851782556040519491908416907f8be0079c531659141344cd1fd0a4f28419497f9722a3daafe3b4186f6b6457e09080a316608052611f54908161010e823960805181818160cc01526103620152f35b604051631e4fbdf760e01b815260006004820152602490fd5b600080fd5b634e487b7160e01b600052604160045260246000fd5b51906001600160a01b03821682036100de5756fe60806040908082526004918236101561001757600080fd5b600091823560e01c908163506788b11461053c57508063651455341461051e578063715018a6146104c45780637324be19146104805780638da5cb5b14610459578063ac23f69e14610424578063f2fde38b14610391578063f60ca60d1461034e5763fb1851cd1461008857600080fd5b3461034a578060031936011261034a57602480356001600160a01b0381811695803595939492879003610346578584526020966001885282848620541661030457827f00000000000000000000000000000000000000000000000000000000000000001684516313b4ff9760e31b8152888482015286818981855afa9081156102fa578791610257575b50511561021557845191611900918284019284841067ffffffffffffffff851117610203579160609391859361061f853982528a8c8301528782015203019085f080156101f65782169486855260018852838520866bffffffffffffffffffffffff60a01b82541617905560025491680100000000000000008310156101e5575050906101a78260018795940160025561056d565b819291549060031b9185831b921b191617905551937f9621196e2102af4e34e76fdd19a82fe9bbf4dc1597bad6831971aa2707151f06339380a48152f35b634e487b7160e01b86526041905284fd5b50505051903d90823e3d90fd5b634e487b7160e01b8952604186528989fd5b845162461bcd60e51b81528084018a9052601b818901527f50726f6a65637420686173206e6f206d6174757265206d6f64656c00000000006044820152606490fd5b90503d8088833e61026881836105e6565b81019086818303126102f657805167ffffffffffffffff918282116102f2570182601f820112156102ee578051918211610203578751926102b2601f8401601f19168e01856105e6565b8284528c83830101116102ee5788918c91835b8281106102d85750508301015238610112565b8181018401518682018501528b945083016102c5565b8880fd5b8980fd5b8780fd5b86513d89823e3d90fd5b835162461bcd60e51b81528083018990526017818801527f42726964676520616c7265616479206465706c6f7965640000000000000000006044820152606490fd5b8380fd5b5080fd5b503461034a578160031936011261034a57517f00000000000000000000000000000000000000000000000000000000000000006001600160a01b03168152602090f35b50829034610420576020366003190112610420576001600160a01b0382358181169391929084900361041c576103c56105ba565b831561040657505082546001600160a01b0319811683178455167f8be0079c531659141344cd1fd0a4f28419497f9722a3daafe3b4186f6b6457e08380a380f35b51631e4fbdf760e01b8152908101849052602490fd5b8480fd5b8280fd5b5082346104205760203660031901126104205735825260016020908152918190205490516001600160a01b0390911615158152f35b503461034a578160031936011261034a57905490516001600160a01b039091168152602090f35b5082346104205760203660031901126104205735916002548310156104c157506104ab60209261056d565b905491519160018060a01b039160031b1c168152f35b80fd5b82346104c157806003193601126104c1576104dd6105ba565b80546001600160a01b03198116825581906001600160a01b03167f8be0079c531659141344cd1fd0a4f28419497f9722a3daafe3b4186f6b6457e08280a380f35b503461034a578160031936011261034a576020906002549051908152f35b929190503461034a57602036600319011261034a579235815260016020908152929020546001600160a01b03168152f35b6002548110156105a45760026000527f405787fa12a823e0f2b7631cc41b3ba8828b3321ca811111fa75cd3aa3bb5ace0190600090565b634e487b7160e01b600052603260045260246000fd5b6000546001600160a01b031633036105ce57565b60405163118cdaa760e01b8152336004820152602490fd5b90601f8019910116810190811067ffffffffffffffff82111761060857604052565b634e487b7160e01b600052604160045260246000fdfe60e060409080825234620001c657606081620019008038038091620000258285620001cb565b833981010312620001c657816200003c8262000205565b602083015190926001600160a01b039283916200005a910162000205565b16928315620001ae57826004602092600094838654928960018060a01b031985161788558a51998a968795167f8be0079c531659141344cd1fd0a4f28419497f9722a3daafe3b4186f6b6457e08a80a360018055610e1060055516908160805260c05263e8852afd60e01b82525afa928315620001a257819362000155575b50505060a052516116e590816200021b823960805181818161019d015281816102eb015281816106f801528181610beb01528181610caf0152610d6a015260a05181818161027001528181610c590152610ceb015260c0518181816102bf015281816106cc01528181610a6601528181610bb80152610d280152f35b909192506020813d821162000199575b816200017460209383620001cb565b810103126200019557519182168203620001925750388080620000d9565b80fd5b5080fd5b3d915062000165565b508351903d90823e3d90fd5b8451631e4fbdf760e01b815260006004820152602490fd5b600080fd5b601f909101601f19168101906001600160401b03821190821017620001ef57604052565b634e487b7160e01b600052604160045260246000fd5b51906001600160a01b0382168203620001c65756fe608080604052600436101561001357600080fd5b60003560e01c90816328b6a58814610aa7575080633f20b4c914610a895780633fafa12714610a4e578063622b6af414610a2d578063715018a6146109d45780637e53a740146109955780637fb1e548146108295780638da5cb5b146108005780639d86698514610759578063a7cc53f5146106ac578063add4c7841461066f578063ae59481914610651578063cd824ed614610445578063d62b43a0146103f8578063de87504514610370578063e31eceaf1461029f578063e8852afd1461025a578063f2fde38b146101cc578063f60ca60d146101875763fb1e61ca146100fb57600080fd5b34610182576020366003190112610182576004356000526003602052604060002060018060a01b03815416600282015460038301549260ff60058201541661014a600160068401549301611281565b94610167604051968796875260c0602088015260c087019061134a565b93604086015260608501521515608084015260a08301520390f35b600080fd5b34610182576000366003190112610182576040517f00000000000000000000000000000000000000000000000000000000000000006001600160a01b03168152602090f35b34610182576020366003190112610182576101e56111c2565b6101ed61136f565b6001600160a01b0390811690811561024157600054826bffffffffffffffffffffffff60a01b821617600055167f8be0079c531659141344cd1fd0a4f28419497f9722a3daafe3b4186f6b6457e0600080a3005b604051631e4fbdf760e01b815260006004820152602490fd5b34610182576000366003190112610182576040517f00000000000000000000000000000000000000000000000000000000000000006001600160a01b03168152602090f35b34610182576000366003190112610182576040516313b4ff9760e31b81527f000000000000000000000000000000000000000000000000000000000000000060048201526000816024817f00000000000000000000000000000000000000000000000000000000000000006001600160a01b03165afa80156103645761033c91600091610340575b5060405191829160208352602083019061134a565b0390f35b61035d91503d806000833e6103558183611260565b8101906114c5565b5082610327565b6040513d6000823e3d90fd5b34610182576040366003190112610182576103896111c2565b6024359081151590818303610182577f133bd293b8ca6fa1205d5bcb378f4c713567ae5ffec78c38d98ac59fe9c258bb916103ef6020926103c861136f565b60018060a01b031694856000526002845260406000209060ff801983541691151516179055565b604051908152a2005b34610182576020366003190112610182576020600435806000526003825260ff60056040600020015416908115610435575b506040519015158152f35b61043f915061165e565b8261042a565b3461018257610453366111d8565b9190336000526020906002825261047160ff6040600020541661152f565b826000526003825260406000209061048e60068301541515611571565b60058201946104a160ff875416156115b6565b6104b36104ad8661165e565b156115f6565b60405195866104c58385888401611636565b036104d8601f19918281018a5289611260565b875160048601916001600160401b03821161063b57610501826104fb855461120b565b856113ce565b8790601f831160011461059e5750938899937fde578b31d0de55a212c6c0f21b2162d9e9b157fcf2a9a7567c87a8cf6a9ca56c93836105859460039a99986000805160206116908339815191529d98600092610593575b50508160011b91600019908c1b1c19161790555b600160ff19825416179055604051918291339683611636565b0390a30154604051908152a2005b015190508e80610558565b82169983600052886000209a60005b8181106106245750936001848c9d60039b9a99956000805160206116908339815191529e9995610585987fde578b31d0de55a212c6c0f21b2162d9e9b157fcf2a9a7567c87a8cf6a9ca56c9a1061060c575b505050811b01905561056c565b0151600019838e1b60f8161c191690558e80806105ff565b838301518d556001909c019b928a01928a016105ad565b634e487b7160e01b600052604160045260246000fd5b34610182576000366003190112610182576020600454604051908152f35b34610182576020366003190112610182576106a261068e600435611422565b60405192839260408452604084019061134a565b9060208301520390f35b34610182576000366003190112610182576040516313b4ff9760e31b81527f000000000000000000000000000000000000000000000000000000000000000060048201526000816024817f00000000000000000000000000000000000000000000000000000000000000006001600160a01b03165afa80156103645760209160009161073c575b50604051908152f35b61075191503d806000833e6103558183611260565b905082610733565b3461018257602036600319011261018257600435600090815260036020526040902080546001600160a01b031661079260018301611281565b9160028101546107ef6003830154916107ad60048501611281565b600660ff600587015416950154936107d7604051988998895260e060208a015260e089019061134a565b9260408801526060870152858203608087015261134a565b91151560a084015260c08301520390f35b34610182576000366003190112610182576000546040516001600160a01b039091168152602090f35b3461018257610837366111d8565b919091336000526020906002825261085660ff6040600020541661152f565b826000526003825260406000209061087360068301541515611571565b600582019061088660ff835416156115b6565b6108926104ad8661165e565b60048301906001600160401b03811161063b576108b9816108b3845461120b565b846113ce565b6000601f821160011461091c5790806003959493926000805160206116908339815191529899600092610911575b50508160011b9160001990871b1c19161790555b805460ff191660011790550154604051908152a2005b0135905089806108e7565b601f1982169083600052866000209160005b81811061097e5750916000805160206116908339815191529899849260039897969560019510610966575b505050811b0190556108fb565b013560001983891b60f8161c19169055898080610959565b91928860018192868e01358155019401920161092e565b34610182576020366003190112610182576001600160a01b036109b66111c2565b166000526002602052602060ff604060002054166040519015158152f35b34610182576000366003190112610182576109ed61136f565b600080546001600160a01b0319811682556001600160a01b03167f8be0079c531659141344cd1fd0a4f28419497f9722a3daafe3b4186f6b6457e08280a3005b3461018257602036600319011261018257610a4661136f565b600435600555005b346101825760003660031901126101825760206040517f00000000000000000000000000000000000000000000000000000000000000008152f35b34610182576000366003190112610182576020600554604051908152f35b34610182576040366003190112610182576004356001600160401b03811161018257610ad7903690600401611195565b909160026001541461118657506002600155810190602081830312610182578035906001600160401b038211610182570181601f8201121561018257803590610b1f8261139b565b92610b2d6040519485611260565b82845260208383010111610182578160009260208093018386013783010152600454600019811461117057600181016004556040519060208201904682523060601b60408401523360601b605484015260688301524260888301526088825260c08201908282106001600160401b0383111761063b5760408290528251902063ce0b08fb60e01b82527f000000000000000000000000000000000000000000000000000000000000000060c48401523360e4840152906020816044817f00000000000000000000000000000000000000000000000000000000000000006001600160a01b03165afa9283156103645760009361113f575b505060243582116110fa576040516323b872dd60e01b81523360048201523060248201526044810183905260208160648160007f00000000000000000000000000000000000000000000000000000000000000006001600160a01b03165af1908115610364576000916110db575b50156110a05760405163095ea7b360e01b81526001600160a01b037f00000000000000000000000000000000000000000000000000000000000000008116600483015260248201849052602090829060449082906000907f0000000000000000000000000000000000000000000000000000000000000000165af1801561036457611071575b506040516330b3787760e01b81527f000000000000000000000000000000000000000000000000000000000000000060048201526040602482015260208180610d64604482018861134a565b038160007f00000000000000000000000000000000000000000000000000000000000000006001600160a01b03165af1801561036457611046575b506040519160e083018381106001600160401b0382111761063b576040523383526020830193845260243560408401526060830152604051610de081611245565b600081526080830152600060a08301524260c083015280600052600360205260406000209260018060a01b038351166bffffffffffffffffffffffff60a01b855416178455519283516001600160401b03811161063b57610e5181610e48600185015461120b565b600185016113ce565b6020601f8211600114610fd7578192939495600092610fcc575b50508160011b916000199060031b1c19161760018201555b6040830151600282015560608301516003820155600481019260808101519384516001600160401b03811161063b57602095610ec3826104fb855461120b565b8690601f8311600114610f6057918060c0949260069694600092610f55575b50508160011b916000199060031b1c19161790555b610f1660a08201511515600586019060ff801983541691151516179055565b01519101556040516024358152817f8cd033d366719c2e7cbb47ecbe15e3956fe6576f9b962e4ced3f9045f1495157843393a360018055604051908152f35b015190508980610ee2565b90601f1983169184600052886000209260005b818110610fb557509260019285926006989660c0989610610f9c575b505050811b019055610ef7565b015160001960f88460031b161c19169055898080610f8f565b92938a600181928786015181550195019301610f73565b015190508580610e6b565b6001830160005260206000209060005b601f198416811061102e575060019394959683601f19811610611015575b505050811b016001820155610e83565b015160001960f88460031b161c19169055858080611005565b9091602060018192858b015181550193019101610fe7565b602090813d831161106a575b61105c8183611260565b810103126101825783610d9f565b503d611052565b6110929060203d602011611099575b61108a8183611260565b8101906113b6565b5083610d18565b503d611080565b60405162461bcd60e51b8152602060048201526013602482015272105513881d1c985b9cd9995c8819985a5b1959606a1b6044820152606490fd5b6110f4915060203d6020116110995761108a8183611260565b84610c92565b60405162461bcd60e51b815260206004820152601860248201527f50726963652065786365656473206d61784372656469747300000000000000006044820152606490fd5b602080929394503d8311611169575b6111588185611260565b810103126101825751908380610c24565b503d61114e565b634e487b7160e01b600052601160045260246000fd5b633ee5aeb560e01b8152600490fd5b9181601f84011215610182578235916001600160401b038311610182576020838186019501011161018257565b600435906001600160a01b038216820361018257565b9060406003198301126101825760043591602435906001600160401b0382116101825761120791600401611195565b9091565b90600182811c9216801561123b575b602083101461122557565b634e487b7160e01b600052602260045260246000fd5b91607f169161121a565b602081019081106001600160401b0382111761063b57604052565b90601f801991011681019081106001600160401b0382111761063b57604052565b90604051918260008254926112958461120b565b90818452600194858116908160001461130457506001146112c1575b50506112bf92500383611260565b565b9093915060005260209081600020936000915b8183106112ec5750506112bf935082010138806112b1565b855488840185015294850194879450918301916112d4565b9150506112bf94506020925060ff191682840152151560051b82010138806112b1565b60005b83811061133a5750506000910152565b818101518382015260200161132a565b9060209161136381518092818552858086019101611327565b601f01601f1916010190565b6000546001600160a01b0316330361138357565b60405163118cdaa760e01b8152336004820152602490fd5b6001600160401b03811161063b57601f01601f191660200190565b90816020910312610182575180151581036101825790565b90601f81116113dc57505050565b600091825260208220906020601f850160051c83019410611418575b601f0160051c01915b82811061140d57505050565b818155600101611401565b90925082906113f8565b9081600052600360205261143a60406000209261165e565b806114b6575b61149e5760ff6005830154161561146657611462600460038401549301611281565b9190565b60405162461bcd60e51b815260206004820152601060248201526f526573756c74206e6f7420726561647960801b6044820152606490fd5b90506040516114ac81611245565b6000815290600090565b5060ff60058301541615611440565b91906040838203126101825782516001600160401b0381116101825783019080601f83011215610182578151916114fb8361139b565b916115096040519384611260565b838352602084830101116101825760209261152991848085019101611327565b92015190565b1561153657565b60405162461bcd60e51b81526020600482015260136024820152724e6f7420617574686f72697a6564206e6f646560681b6044820152606490fd5b1561157857565b60405162461bcd60e51b815260206004820152601660248201527514995c5d595cdd08191bd95cc81b9bdd08195e1a5cdd60521b6044820152606490fd5b156115bd57565b60405162461bcd60e51b8152602060048201526011602482015270105b1c9958591e4818dbdb5c1b195d1959607a1b6044820152606490fd5b156115fd57565b60405162461bcd60e51b815260206004820152601160248201527014995c5d595cdd081d1a5b5959081bdd5d607a1b6044820152606490fd5b90918060409360208452816020850152848401376000828201840152601f01601f1916010190565b6000526003602052600660406000200154801515908161167c575090565b905060055481018091116111705742119056fe1fae6adea17f6f949c400074fc027af7114ae6c20445066870b62dcc1f0de1cfa2646970667358221220d4e99bf825bb5a6ab2d838aa3c2b8cbe32c0162e4c1fd04a60c4117ef33b0b8064736f6c63430008140033a2646970667358221220297b2ac9fe124720a92245190b4e017aa9079adb9fe7f76a5d88aa48ca44d2c364736f6c63430008140033",
  "linkReferences": {},
  "deployedLinkReferences": {}
}