{
  "_format": "hh-sol-artifact-1",
  "contractName": "AnchorBridge",
  "sourceName": "contracts/rollup/AnchorBridge.sol",
  "abi": [
    {
      "inputs": [
        {
          "internalType": "address",
          "name": "_token",
          "type": "address"
        }
      ],
      "stateMutability": "nonpayable",
      "type": "constructor"
    },
    {
      "inputs": [
        {
          "internalType": "address",
          "name": "owner",
          "type": "address"
        }
      ],
      "name": "OwnableInvalidOwner",
      "type": "error"
    },
    {
      "inputs": [
        {
          "internalType": "address",
          "name": "account",
          "type": "address"
        }
      ],
      "name": "OwnableUnauthorizedAccount",
      "type": "error"
    },
    {
      "anonymous": false,
      "inputs": [
        {
          "indexed": true,
          "internalType": "uint256",
          "name": "epoch",
          "type": "uint256"
        },
        {
          "indexed": false,
          "internalType": "bytes32",
          "name": "root",
          "type": "bytes32"
        },
        {
          "indexed": true,
          "internalType": "address",
          "name": "submitter",
          "type": "address"
        }
      ],
      "name": "CheckpointSubmitted",
      "type": "event"
    },
    {
      "anonymous": false,
      "inputs": [
        {
          "indexed": true,
          "internalType": "address",
          "name": "user",
          "type": "address"
        },
        {
          "indexed": false,
          "internalType": "uint256",
          "name": "amount",
          "type": "uint256"
        },
        {
          "indexed": false,
          "internalType": "bytes32",
          "name": "depositId",
          "type": "bytes32"
        }
      ],
      "name": "Deposited",
      "type": "event"
    },
    {
      "anonymous": false,
      "inputs": [
        {
          "indexed": true,
          "internalType": "address",
          "name": "previousOwner",
          "type": "address"
        },
        {
          "indexed": true,
          "internalType": "address",
          "name": "newOwner",
          "type": "address"
        }
      ],
      "name": "OwnershipTransferred",
      "type": "event"
    },
    {
      "anonymous": false,
      "inputs": [
        {
          "indexed": true,
          "internalType": "address",
          "name": "validator",
          "type": "address"
        }
      ],
      "name": "ValidatorAdded",
      "type": "event"
    },
    {
      "anonymous": false,
      "inputs": [
        {
          "indexed": true,
          "internalType": "address",
          "name": "validator",
          "type": "address"
        }
      ],
      "name": "ValidatorRemoved",
      "type": "event"
    },
    {
      "anonymous": false,
      "inputs": [
        {
          "indexed": true,
          "internalType": "address",
          "name": "user",
          "type": "address"
        },
        {
          "indexed": false,
          "internalType": "uint256",
          "name": "amount",
          "type": "uint256"
        },
        {
          "indexed": false,
          "internalType": "bytes32",
          "name": "withdrawalId",
          "type": "bytes32"
        }
      ],
      "name": "Withdrawn",
      "type": "event"
    },
    {
      "inputs": [
        {
          "internalType": "address",
          "name": "_validator",
          "type": "address"
        }
      ],
      "name": "addValidator",
      "outputs": [],
      "stateMutability": "nonpayable",
      "type": "function"
    },
    {
      "inputs": [
        {
          "internalType": "uint256",
          "name": "amount",
          "type": "uint256"
        }
      ],
      "name": "deposit",
      "outputs": [],
      "stateMutability": "nonpayable",
      "type": "function"
    },
    {
      "inputs": [],
      "name": "latestEpoch",
      "outputs": [
        {
          "internalType": "uint256",
          "name": "",
          "type": "uint256"
        }
      ],
      "stateMutability": "view",
      "type": "function"
    },
    {
      "inputs": [],
      "name": "latestRoot",
      "outputs": [
        {
          "internalType": "bytes32",
          "name": "",
          "type": "bytes32"
        }
      ],
      "stateMutability": "view",
      "type": "function"
    },
    {
      "inputs": [],
      "name": "owner",
      "outputs": [
        {
          "internalType": "address",
          "name": "",
          "type": "address"
        }
      ],
      "stateMutability": "view",
      "type": "function"
    },
    {
      "inputs": [
        {
          "internalType": "bytes32",
          "name": "",
          "type": "bytes32"
        }
      ],
      "name": "processedDeposits",
      "outputs": [
        {
          "internalType": "bool",
          "name": "",
          "type": "bool"
        }
      ],
      "stateMutability": "view",
      "type": "function"
    },
    {
      "inputs": [
        {
          "internalType": "bytes32",
          "name": "",
          "type": "bytes32"
        }
      ],
      "name": "processedWithdrawals",
      "outputs": [
        {
          "internalType": "bool",
          "name": "",
          "type": "bool"
        }
      ],
      "stateMutability": "view",
      "type": "function"
    },
    {
      "inputs": [
        {
          "internalType": "address",
          "name": "_validator",
          "type": "address"
        }
      ],
      "name": "removeValidator",
      "outputs": [],
      "stateMutability": "nonpayable",
      "type": "function"
    },
    {
      "inputs": [],
      "name": "renounceOwnership",
      "outputs": [],
      "stateMutability": "nonpayable",
      "type": "function"
    },
    {
      "inputs": [],
      "name": "requiredSignatures",
      "outputs": [
        {
          "internalType": "uint256",
          "name": "",
          "type": "uint256"
        }
      ],
      "stateMutability": "view",
      "type": "function"
    },
    {
      "inputs": [
        {
          "internalType": "uint256",
          "name": "_required",
          "type": "uint256"
        }
      ],
      "name": "setRequiredSignatures",
      "outputs": [],
      "stateMutability": "nonpayable",
      "type": "function"
    },
    {
      "inputs": [
        {
          "internalType": "uint256",
          "name": "epoch",
          "type": "uint256"
        },
        {
          "internalType": "bytes32",
          "name": "root",
          "type": "bytes32"
        }
      ],
      "name": "submitCheckpoint",
      "outputs": [],
      "stateMutability": "nonpayable",
      "type": "function"
    },
    {
      "inputs": [],
      "name": "token",
      "outputs": [
        {
          "internalType": "contract IERC20",
          "name": "",
          "type": "address"
        }
      ],
      "stateMutability": "view",
      "type": "function"
    },
    {
      "inputs": [
        {
          "internalType": "address",
          "name": "newOwner",
          "type": "address"
        }
      ],
      "name": "transferOwnership",
      "outputs": [],
      "stateMutability": "nonpayable",
      "type": "function"
    },
    {
      "inputs": [],
      "name": "validatorCount",
      "outputs": [
        {
          "internalType": "uint256",
          "name": "",
          "type": "uint256"
        }
      ],
      "stateMutability": "view",
      "type": "function"
    },
    {
      "inputs": [
        {
          "internalType": "address",
          "name": "",
          "type": "address"
        }
      ],
      "name": "validators",
      "outputs": [
        {
          "internalType": "bool",
          "name": "",
          "type": "bool"
        }
      ],
      "stateMutability": "view",
      "type": "function"
    },
    {
      "inputs": [
        {
          "internalType": "uint256",
          "name": "amount",
          "type": "uint256"
        },
        {
          "internalType": "bytes32",
          "name": "withdrawalId",
          "type": "bytes32"
        },
        {
          "internalType": "bytes32[]",
          "name": "proof",
          "type": "bytes32[]"
        }
      ],
      "name": "withdraw",
      "outputs": [],
      "stateMutability": "nonpayable",
      "type": "function"
    }
  ],
  "bytecode": "0x60a0346100da57601f610c1538819003918201601f19168301916001600160401b038311848410176100df578084926020946040528339810103126100da57516001600160a01b0390818116908190036100da5733156100c1576000543360018060a01b0319821617600055604051923391167f8be0079c531659141344cd1fd0a4f28419497f9722a3daafe3b4186f6b6457e0600080a36080526001600555610b1f90816100f6823960805181818160f30152818161028801526108170152f35b604051631e4fbdf760e01b815260006004820152602490fd5b600080fd5b634e487b7160e01b600052604160045260246000fdfe608060408181526004918236101561001657600080fd5b600092833560e01c9182630f43a6771461099257508163137e4cde1461072a57816340a141ff1461068957816340c5faf01461065c5781634d238c8e14610596578163545b15ee146104f3578163715018a6146104965781637d2b9cc0146104315781638d068043146104125781638da5cb5b146103ea5781639cb118bf146103cb578163b6b55f2514610244578163bf49d63114610217578163d7b0fef1146101f8578163f2fde38b14610169578163fa52c7d814610126575063fc0c546a146100e057600080fd5b34610122578160031936011261012257517f00000000000000000000000000000000000000000000000000000000000000006001600160a01b03168152602090f35b5080fd5b90503461016557602036600319011261016557356001600160a01b0381169081900361016557818360ff92602095526003855220541690519015158152f35b8280fd5b91905034610165576020366003190112610165576001600160a01b038235818116939192908490036101f45761019d6109ad565b83156101de57505082546001600160a01b0319811683178455167f8be0079c531659141344cd1fd0a4f28419497f9722a3daafe3b4186f6b6457e08380a380f35b51631e4fbdf760e01b8152908101849052602490fd5b8480fd5b5050346101225781600319360112610122576020906001549051908152f35b905034610165576020366003190112610165578160209360ff923581526007855220541690519015158152f35b838334610122576020908160031936011261016557833591821561039b5781516323b872dd60e01b81523386820152306024820152604481018490528181606481887f00000000000000000000000000000000000000000000000000000000000000006001600160a01b03165af190811561039157906102cb918691610364575b50610aab565b8151818101933360601b85528060348301524360548301524260748301526074825260a082019482861067ffffffffffffffff87111761035157858552825190208087526006909352838620805460ff19166001179055845260c0015233917fd7eda976cf4919f13172eb15bb39c64cecb7172258c741dab31d14c855eff4029190a280f35b634e487b7160e01b875260418852602487fd5b6103849150833d851161038a575b61037c8183610a6c565b810190610a8e565b876102c5565b503d610372565b83513d87823e3d90fd5b8490606492519162461bcd60e51b8352820152600b60248201526a16995c9bc8185b5bdd5b9d60aa1b6044820152fd5b5050346101225781600319360112610122576020906002549051908152f35b505034610122578160031936011261012257905490516001600160a01b039091168152602090f35b5050346101225781600319360112610122576020906005549051908152f35b9050346101655760203660031901126101655780359161044f6109ad565b8154831161045f57505060055580f35b906020606492519162461bcd60e51b83528201526011602482015270151bdbc81b585b9e481c995c5d5a5c9959607a1b6044820152fd5b83346104f057806003193601126104f0576104af6109ad565b80546001600160a01b03198116825581906001600160a01b03167f8be0079c531659141344cd1fd0a4f28419497f9722a3daafe3b4186f6b6457e08280a380f35b80fd5b9190503461016557806003193601126101655781359060243592338552600360205261052460ff83872054166109fe565b60025483111561056457508260015581600255519182527fa19d3f3db7454b99e51aa87ed76843713f9fe3edfdf2e53f39ae11887cdb299760203393a380f35b6020606492519162461bcd60e51b8352820152600d60248201526c115c1bd8da081d1bdbc81bdb19609a1b6044820152fd5b9050346101655760203660031901126101655780356001600160a01b0381169290839003610658576105c66109ad565b828452600360205260ff81852054166106215782845260036020528320600160ff198254161790556105f881546109d9565b90557fe366c1c0452ed8eec96861e9e54141ebff23c9ec89fe27b996b45f5ec38849878280a280f35b906020606492519162461bcd60e51b8352820152601160248201527020b63932b0b23c903b30b634b230ba37b960791b6044820152fd5b8380fd5b905034610165576020366003190112610165578160209360ff923581526006855220541690519015158152f35b9050346101655760203660031901126101655780356001600160a01b0381169290839003610658576106b96109ad565b82845260036020526106d060ff82862054166109fe565b82845260036020528320805460ff1916905580548015610717576000190190557fe1434e25d6611e0db941968fdc97811c982ac1602e951637d206f5fdda9dd8f18280a280f35b634e487b7160e01b845260118252602484fd5b9190503461016557606036600319011261016557813590602480359067ffffffffffffffff9060443582811161098e573660238201121561098e578087013583811161098a57600590368482841b8501011161098657858a526020946007865260ff888c205416610950578751868101913360601b83528a60348301528860548301526054825260808201908282109082111761093e5789525190206001549390928b9291905b8284106108e15750505050036108b05782875260078252838720805460ff19166001179055835163a9059cbb60e01b8152339681019690965285018490528085604481897f00000000000000000000000000000000000000000000000000000000000000006001600160a01b03165af19485156108a6577f510b30a02fc9b7506980950b9c615af8c13e88658555c0ea22acffd73d9ea222949561087b9188916108895750610aab565b82519485528401523392a280f35b6108a09150833d851161038a5761037c8183610a6c565b386102c5565b83513d88823e3d90fd5b600d869160649386519362461bcd60e51b85528401528201526c24b73b30b634b210383937b7b360991b6044820152fd5b92939192909161091c9085831b8401880135808211610924578b51908a82019283528c8201528b815261091381610a3a565b519020946109d9565b9291906107d1565b908b51908a82019283528c8201528b815261091381610a3a565b634e487b7160e01b8d5260418c52868dfd5b875162461bcd60e51b8152808b0187905260118187015270105b1c9958591e481c1c9bd8d95cdcd959607a1b6044820152606490fd5b8980fd5b8880fd5b8780fd5b84913461016557826003193601126101655760209250548152f35b6000546001600160a01b031633036109c157565b60405163118cdaa760e01b8152336004820152602490fd5b60001981146109e85760010190565b634e487b7160e01b600052601160045260246000fd5b15610a0557565b60405162461bcd60e51b815260206004820152600d60248201526c2737ba103b30b634b230ba37b960991b6044820152606490fd5b6060810190811067ffffffffffffffff821117610a5657604052565b634e487b7160e01b600052604160045260246000fd5b90601f8019910116810190811067ffffffffffffffff821117610a5657604052565b90816020910312610aa657518015158103610aa65790565b600080fd5b15610ab257565b60405162461bcd60e51b815260206004820152600f60248201526e151c985b9cd9995c8819985a5b1959608a1b6044820152606490fdfea2646970667358221220c4553f7c4cd8a0500a133c7d40770178fd6a929d22b67bbc5d2f3b5f7874f81264736f6c63430008140033",
  "linkReferences": {},
  "deployedLinkReferences": {}
}