{
  "_format": "hh-sol-artifact-1",
  "contractName": "ForcedErrorRegistry",
  "sourceName": "contracts/core/ForcedErrorRegistry.sol",
  "abi": [
    {
      "inputs": [
        {
          "internalType": "address",
          "name": "_atnToken",
          "type": "address"
        },
        {
          "internalType": "address",
          "name": "_staking",
          "type": "address"
        },
        {
          "internalType": "address",
          "name": "_governance",
          "type": "address"
        }
      ],
      "stateMutability": "nonpayable",
      "type": "constructor"
    },
    {
      "anonymous": false,
      "inputs": [
        {
          "indexed": false,
          "internalType": "string",
          "name": "parameter",
          "type": "string"
        },
        {
          "indexed": false,
          "internalType": "uint256",
          "name": "newValue",
          "type": "uint256"
        }
      ],
      "name": "ConfigUpdated",
      "type": "event"
    },
    {
      "anonymous": false,
      "inputs": [
        {
          "indexed": true,
          "internalType": "uint256",
          "name": "taskId",
          "type": "uint256"
        },
        {
          "indexed": true,
          "internalType": "address",
          "name": "catcher",
          "type": "address"
        },
        {
          "indexed": false,
          "internalType": "uint256",
          "name": "jackpotAwarded",
          "type": "uint256"
        }
      ],
      "name": "ForcedErrorCaught",
      "type": "event"
    },
    {
      "anonymous": false,
      "inputs": [
        {
          "indexed": true,
          "internalType": "uint256",
          "name": "taskId",
          "type": "uint256"
        }
      ],
      "name": "ForcedErrorExpired",
      "type": "event"
    },
    {
      "anonymous": false,
      "inputs": [
        {
          "indexed": true,
          "internalType": "uint256",
          "name": "taskId",
          "type": "uint256"
        },
        {
          "indexed": false,
          "internalType": "bytes32",
          "name": "knownBadHash",
          "type": "bytes32"
        },
        {
          "indexed": false,
          "internalType": "uint256",
          "name": "jackpotAmount",
          "type": "uint256"
        }
      ],
      "name": "ForcedErrorInjected",
      "type": "event"
    },
    {
      "anonymous": false,
      "inputs": [
        {
          "indexed": true,
          "internalType": "uint256",
          "name": "taskId",
          "type": "uint256"
        },
        {
          "indexed": true,
          "internalType": "address",
          "name": "coordinator",
          "type": "address"
        },
        {
          "indexed": false,
          "internalType": "uint256",
          "name": "slashAmount",
          "type": "uint256"
        }
      ],
      "name": "ForcedErrorMissed",
      "type": "event"
    },
    {
      "anonymous": false,
      "inputs": [
        {
          "indexed": true,
          "internalType": "address",
          "name": "funder",
          "type": "address"
        },
        {
          "indexed": false,
          "internalType": "uint256",
          "name": "amount",
          "type": "uint256"
        }
      ],
      "name": "JackpotFunded",
      "type": "event"
    },
    {
      "inputs": [],
      "name": "atnToken",
      "outputs": [
        {
          "internalType": "contract ATNToken",
          "name": "",
          "type": "address"
        }
      ],
      "stateMutability": "view",
      "type": "function"
    },
    {
      "inputs": [],
      "name": "expirationBlocks",
      "outputs": [
        {
          "internalType": "uint256",
          "name": "",
          "type": "uint256"
        }
      ],
      "stateMutability": "view",
      "type": "function"
    },
    {
      "inputs": [
        {
          "internalType": "uint256",
          "name": "_taskId",
          "type": "uint256"
        }
      ],
      "name": "expireForcedError",
      "outputs": [],
      "stateMutability": "nonpayable",
      "type": "function"
    },
    {
      "inputs": [],
      "name": "forcedErrorProbability",
      "outputs": [
        {
          "internalType": "uint256",
          "name": "",
          "type": "uint256"
        }
      ],
      "stateMutability": "view",
      "type": "function"
    },
    {
      "inputs": [
        {
          "internalType": "uint256",
          "name": "",
          "type": "uint256"
        }
      ],
      "name": "forcedErrors",
      "outputs": [
        {
          "internalType": "uint256",
          "name": "taskId",
          "type": "uint256"
        },
        {
          "internalType": "bytes32",
          "name": "knownBadHash",
          "type": "bytes32"
        },
        {
          "internalType": "uint256",
          "name": "jackpotAmount",
          "type": "uint256"
        },
        {
          "internalType": "uint256",
          "name": "expirationBlock",
          "type": "uint256"
        },
        {
          "internalType": "bool",
          "name": "caught",
          "type": "bool"
        },
        {
          "internalType": "address",
          "name": "catcher",
          "type": "address"
        }
      ],
      "stateMutability": "view",
      "type": "function"
    },
    {
      "inputs": [
        {
          "internalType": "uint256",
          "name": "_amount",
          "type": "uint256"
        }
      ],
      "name": "fundJackpotPool",
      "outputs": [],
      "stateMutability": "nonpayable",
      "type": "function"
    },
    {
      "inputs": [
        {
          "internalType": "uint256",
          "name": "_taskId",
          "type": "uint256"
        }
      ],
      "name": "getForcedError",
      "outputs": [
        {
          "components": [
            {
              "internalType": "uint256",
              "name": "taskId",
              "type": "uint256"
            },
            {
              "internalType": "bytes32",
              "name": "knownBadHash",
              "type": "bytes32"
            },
            {
              "internalType": "uint256",
              "name": "jackpotAmount",
              "type": "uint256"
            },
            {
              "internalType": "uint256",
              "name": "expirationBlock",
              "type": "uint256"
            },
            {
              "internalType": "bool",
              "name": "caught",
              "type": "bool"
            },
            {
              "internalType": "address",
              "name": "catcher",
              "type": "address"
            }
          ],
          "internalType": "struct AutonetLib.ForcedError",
          "name": "",
          "type": "tuple"
        }
      ],
      "stateMutability": "view",
      "type": "function"
    },
    {
      "inputs": [],
      "name": "getJackpotPool",
      "outputs": [
        {
          "internalType": "uint256",
          "name": "",
          "type": "uint256"
        }
      ],
      "stateMutability": "view",
      "type": "function"
    },
    {
      "inputs": [],
      "name": "governance",
      "outputs": [
        {
          "internalType": "address",
          "name": "",
          "type": "address"
        }
      ],
      "stateMutability": "view",
      "type": "function"
    },
    {
      "inputs": [
        {
          "internalType": "uint256",
          "name": "_taskId",
          "type": "uint256"
        },
        {
          "internalType": "bytes32",
          "name": "_knownBadHash",
          "type": "bytes32"
        }
      ],
      "name": "injectForcedError",
      "outputs": [],
      "stateMutability": "nonpayable",
      "type": "function"
    },
    {
      "inputs": [
        {
          "internalType": "uint256",
          "name": "",
          "type": "uint256"
        }
      ],
      "name": "isForcedError",
      "outputs": [
        {
          "internalType": "bool",
          "name": "",
          "type": "bool"
        }
      ],
      "stateMutability": "view",
      "type": "function"
    },
    {
      "inputs": [
        {
          "internalType": "uint256",
          "name": "_taskId",
          "type": "uint256"
        }
      ],
      "name": "isForcedErrorActive",
      "outputs": [
        {
          "internalType": "bool",
          "name": "",
          "type": "bool"
        }
      ],
      "stateMutability": "view",
      "type": "function"
    },
    {
      "inputs": [
        {
          "internalType": "uint256",
          "name": "_taskId",
          "type": "uint256"
        }
      ],
      "name": "isTaskForcedError",
      "outputs": [
        {
          "internalType": "bool",
          "name": "",
          "type": "bool"
        }
      ],
      "stateMutability": "view",
      "type": "function"
    },
    {
      "inputs": [],
      "name": "jackpotAmount",
      "outputs": [
        {
          "internalType": "uint256",
          "name": "",
          "type": "uint256"
        }
      ],
      "stateMutability": "view",
      "type": "function"
    },
    {
      "inputs": [],
      "name": "jackpotPool",
      "outputs": [
        {
          "internalType": "uint256",
          "name": "",
          "type": "uint256"
        }
      ],
      "stateMutability": "view",
      "type": "function"
    },
    {
      "inputs": [
        {
          "internalType": "uint256",
          "name": "_taskId",
          "type": "uint256"
        },
        {
          "internalType": "address",
          "name": "_coordinator",
          "type": "address"
        }
      ],
      "name": "processCoordinatorMiss",
      "outputs": [],
      "stateMutability": "nonpayable",
      "type": "function"
    },
    {
      "inputs": [
        {
          "internalType": "uint256",
          "name": "_taskId",
          "type": "uint256"
        },
        {
          "internalType": "bytes32",
          "name": "_solutionHash",
          "type": "bytes32"
        }
      ],
      "name": "reportForcedError",
      "outputs": [],
      "stateMutability": "nonpayable",
      "type": "function"
    },
    {
      "inputs": [
        {
          "internalType": "uint256",
          "name": "_blocks",
          "type": "uint256"
        }
      ],
      "name": "setExpirationBlocks",
      "outputs": [],
      "stateMutability": "nonpayable",
      "type": "function"
    },
    {
      "inputs": [
        {
          "internalType": "uint256",
          "name": "_probability",
          "type": "uint256"
        }
      ],
      "name": "setForcedErrorProbability",
      "outputs": [],
      "stateMutability": "nonpayable",
      "type": "function"
    },
    {
      "inputs": [
        {
          "internalType": "address",
          "name": "_newGovernance",
          "type": "address"
        }
      ],
      "name": "setGovernance",
      "outputs": [],
      "stateMutability": "nonpayable",
      "type": "function"
    },
    {
      "inputs": [
        {
          "internalType": "uint256",
          "name": "_amount",
          "type": "uint256"
        }
      ],
      "name": "setJackpotAmount",
      "outputs": [],
      "stateMutability": "nonpayable",
      "type": "function"
    },
    {
      "inputs": [
        {
          "internalType": "uint256",
          "name": "_amount",
          "type": "uint256"
        }
      ],
      "name": "setSlashAmount",
      "outputs": [],
      "stateMutability": "nonpayable",
      "type": "function"
    },
    {
      "inputs": [],
      "name": "shouldInjectForcedError",
      "outputs": [
        {
          "internalType": "bool",
          "name": "",
          "type": "bool"
        }
      ],
      "stateMutability": "nonpayable",
      "type": "function"
    },
    {
      "inputs": [],
      "name": "slashAmountForMissed",
      "outputs": [
        {
          "internalType": "uint256",
          "name": "",
          "type": "uint256"
        }
      ],
      "stateMutability": "view",
      "type": "function"
    },
    {
      "inputs": [],
      "name": "staking",
      "outputs": [
        {
          "internalType": "contract ParticipantStaking",
          "name": "",
          "type": "address"
        }
      ],
      "stateMutability": "view",
      "type": "function"
    }
  ],
  "bytecode": "0x60c0346100ea57601f61129438819003918201601f19168301916001600160401b038311848410176100ef578084926060946040528339810103126100ea5761004781610105565b61005f604061005860208501610105565b9301610105565b6802b5e3af16b188000060015568015af1d78b58c4000060025560326003556103e86004556001600160a01b0391821660805291811660a052600080546001600160a01b0319169190921617905560405161117a908161011a8239608051818181610195015281816105f201526108e0015260a05181818161053301528181610c780152610ddb0152f35b600080fd5b634e487b7160e01b600052604160045260246000fd5b51906001600160a01b03821682036100ea5756fe6040608081526004908136101561001557600080fd5b6000803560e01c806313c6b95214610d5f5780631ab0c36014610ca75780634cf088d914610c635780634e1e935e14610bab5780634f82a68d14610b8c578063559000d7146109e15780635aa6e675146109b95780637a73103d146108a05780638beaf1c5146108375780639b03f29814610818578063a71f7f1c146107fa578063ab033ea9146107af578063b05b32ae1461015d578063b19fe804146104d8578063b1eac37e146104b9578063bc868f5b1461044d578063c025cce71461039c578063c6ec731a146102cf578063cce94c381461025f578063d6186600146101f5578063e23bd333146101c4578063e5d8cc64146101c4578063e8852afd14610180578063f13e94bb1461015d5763f2aae63a1461013357600080fd5b3461015a57602036600319011261015a57506101516020923561109b565b90519015158152f35b80fd5b50903461017c578160031936011261017c576020906007549051908152f35b5080fd5b50903461017c578160031936011261017c57517f00000000000000000000000000000000000000000000000000000000000000006001600160a01b03168152602090f35b5091346101f15760203660031901126101f1578160209360ff923581526006855220541690519015158152f35b8280fd5b509190346101f15760203660031901126101f1578060c0938335815260056020522080549260018201549260028301549160038401549301549381519586526020860152840152606083015260ff81161515608083015260018060a01b039060081c1660a0820152f35b5091346101f15760203660031901126101f157600080516020611125833981519152916080913561029a60018060a01b038654163314610fd5565b806002556014825192808452830152731cdb185cda105b5bdd5b9d119bdc935a5cdcd95960621b60608301526020820152a180f35b5091346101f15760203660031901126101f157818360c09460a083516102f481610f46565b828152826020820152828582015282606082015282608082015201528235815260056020522091805161032681610f46565b835493848252600181015492602083019384526002820154948184019586526003830154926060850193845201549460a0608085019460ff881615158652019460018060a01b03809760081c168652825197885251602088015251908601525160608501525115156080840152511660a0820152f35b5091346101f15760203660031901126101f15780359182845260066020526103c960ff8286205416611012565b828452600560205260038185206103e660ff85830154161561105e565b01544311156104185750507f50e72e106280ef35560f4318696facb7ad695553e02b8c8ef72085e5d64ab59d8280a280f35b906020606492519162461bcd60e51b8352820152600f60248201526e139bdd081e595d08195e1c1a5c9959608a1b6044820152fd5b5091346101f15760203660031901126101f157600080516020611125833981519152918160809235809161048b60018060a01b038854163314610fd5565b5560108251928084528301526f65787069726174696f6e426c6f636b7360801b60608301526020820152a180f35b50903461017c578160031936011261017c576020906001549051908152f35b509190346101f1576104e936610f30565b9290918285526020916006835261050560ff8388205416611012565b8151630ac9218960e41b8152338282015260036024808301919091526001600160a01b0396604492868185817f00000000000000000000000000000000000000000000000000000000000000008d165afa9081156107a5578a91610788575b501561074f5786895260058652848920908482019081549061058960ff83161561105e565b60038401544311610717576001840154036106e0576001600160a81b0319163360081b610100600160a81b031617600117905560020154966007548881039081116106ce57899187916007558487518094819363a9059cbb60e01b8352338a8401528d888401527f0000000000000000000000000000000000000000000000000000000000000000165af19081156106c4578991610697575b501561065857505050907fea1ed2c63b4a6923fa2bc94a8f339e05c99f381a2f4eb56d9f39ec17c0280a9191519384523393a380f35b6017906064957f4a61636b706f74207472616e73666572206661696c65640000000000000000009495519562461bcd60e51b8752860152840152820152fd5b6106b79150863d88116106bd575b6106af8183610f78565b810190610f9a565b38610622565b503d6106a5565b85513d8b823e3d90fd5b634e487b7160e01b8a5260118552828afd5b865162461bcd60e51b8152808701899052601381860152720aee4dedcce40e6ded8eae8d2dedc40d0c2e6d606b1b81870152606490fd5b875162461bcd60e51b81528088018a905260148187015273119bdc98d95908195c9c9bdc88195e1c1a5c995960621b81880152606490fd5b50601690606495752737ba1030b1ba34bb329021b7b7b93234b730ba37b960511b9495519562461bcd60e51b8752860152840152820152fd5b61079f9150873d89116106bd576106af8183610f78565b38610564565b86513d8c823e3d90fd5b50823461017c57602036600319011261017c57356001600160a01b03818116918290036107f5576107e583549182163314610fd5565b6001600160a01b03191617815580f35b600080fd5b5091346101f157826003193601126101f15760209250549051908152f35b50903461017c578160031936011261017c576020906003549051908152f35b5091346101f15760203660031901126101f157600080516020611125833981519152916080913561087260018060a01b038654163314610fd5565b80600155600d8251928084528301526c1a9858dadc1bdd105b5bdd5b9d609a1b60608301526020820152a180f35b509190346101f157602090816003193601126109b55780516323b872dd60e01b8152338185015230602482015283356044820181905293908381606481897f00000000000000000000000000000000000000000000000000000000000000006001600160a01b03165af19081156109ab57869161098e575b501561095b5750907f1ec4354fa8d6df5ba1b484e7a7fec8542ce15b4fb576240dcf5cb560f9c620229161094e84600754610fb2565b600755519283523392a280f35b82606492519162461bcd60e51b8352820152600f60248201526e151c985b9cd9995c8819985a5b1959608a1b6044820152fd5b6109a59150843d86116106bd576106af8183610f78565b38610918565b83513d88823e3d90fd5b8380fd5b50903461017c578160031936011261017c57905490516001600160a01b039091168152602090f35b50903461017c576109f136610f30565b83546001600160a01b039592939290610a0d9087163314610fd5565b8385526020906006825260ff8487205416610b5257600754600154809110610b10578686979883610af093610a657f58a07825937b32b1e481adcfe1a7b145a8f263fe5abc7a5e7b6b8c20f58fd1ca9a965443610fb2565b895191610a7183610f46565b8783528883018a81528b8401918252606084019283526080840187815260a0850188815299885260058b52968c9020935184555160018401555160028301555160038201559251920180549451610100600160a81b03921660081b9190911691151560ff166001600160a81b0319909416939093171790915560ff1990565b60068252600184882091825416179055600154908351928352820152a280f35b5060649184519162461bcd60e51b8352820152601960248201527f496e73756666696369656e74206a61636b706f7420706f6f6c000000000000006044820152fd5b60649184519162461bcd60e51b8352820152601660248201527520b63932b0b23c9030903337b931b2b21032b93937b960511b6044820152fd5b50903461017c578160031936011261017c576020906002549051908152f35b5082903461015a578060031936011261015a57600854906000198214610c5057506001019182600855805190602082019342855244828401523360601b606084015260748301526074825260a082019282841067ffffffffffffffff851117610c3b5750926103e8918360209552519020066003541180610c2d575b15158152f35b506007546001541115610c27565b604190634e487b7160e01b6000525260246000fd5b634e487b7160e01b815260118352602490fd5b50903461017c578160031936011261017c57517f00000000000000000000000000000000000000000000000000000000000000006001600160a01b03168152602090f35b5091346101f15760203660031901126101f157803590610cd160018060a01b038554163314610fd5565b6103e88211610d2557506000805160206111258339815191529181608092600355601682519280845283015275666f726365644572726f7250726f626162696c69747960501b60608301526020820152a180f35b606490602084519162461bcd60e51b835282015260146024820152730a0e4dec4c2c4d2d8d2e8f240e8dede40d0d2ced60631b6044820152fd5b509190346101f157806003193601126101f1576001600160a01b0360243581811693803593929091859003610f2c57610d9c818754163314610fd5565b8386526006602052610db360ff8488205416611012565b838652600560205282862060ff8382015416908115610f1e575b5015610edb576002548692917f000000000000000000000000000000000000000000000000000000000000000016803b156109b55760a48492865195869384926333c59f7160e11b84528b88850152602484015260606044840152601360648401527226b4b9b9b2b2103337b931b2b21032b93937b960691b60848401525af180156109ab57610e8a575b505060207f7cd0d6dde92a33307ccb1fd852b7a1e984da07979e6bcae863436e345a6b65bf916002549051908152a380f35b67ffffffffffffffff8296939611610ec8575084529260207f7cd0d6dde92a33307ccb1fd852b7a1e984da07979e6bcae863436e345a6b65bf610e58565b634e487b7160e01b835260419052602482fd5b506020606492519162461bcd60e51b8352820152601960248201527f4572726f7220706572696f64207374696c6c20616374697665000000000000006044820152fd5b600391500154431138610dcd565b8580fd5b60409060031901126107f5576004359060243590565b60c0810190811067ffffffffffffffff821117610f6257604052565b634e487b7160e01b600052604160045260246000fd5b90601f8019910116810190811067ffffffffffffffff821117610f6257604052565b908160209103126107f5575180151581036107f55790565b91908201809211610fbf57565b634e487b7160e01b600052601160045260246000fd5b15610fdc57565b60405162461bcd60e51b815260206004820152600e60248201526d4e6f7420676f7665726e616e636560901b6044820152606490fd5b1561101957565b60405162461bcd60e51b815260206004820152601760248201527f4e6f74206120666f72636564206572726f72207461736b0000000000000000006044820152606490fd5b1561106557565b60405162461bcd60e51b815260206004820152600e60248201526d105b1c9958591e4818d85d59da1d60921b6044820152606490fd5b600052600660205260ff604060002054161561111f5760056020526040600020604051906110c882610f46565b805482526001810154602083015260028101546040830152600460038201549182606085015201549160a060ff8416159384156080840152600180831b039060081c1691015281611117575090565b905043111590565b60009056fe12c9dccd129ff783f1c8228eacdfa8e334ddecb7ec5c9a79ec662a4aed3d012aa264697066735822122087e15cf7b8e41cff795a10b43ba65373e8bba06086d20b2f555ae648ea428be964736f6c63430008140033",
  "linkReferences": {},
  "deployedLinkReferences": {}
}