{
  "_format": "hh-sol-artifact-1",
  "contractName": "AutonetDAO",
  "sourceName": "contracts/governance/AutonetDAO.sol",
  "abi": [
    {
      "inputs": [
        {
          "internalType": "address",
          "name": "_votingToken",
          "type": "address"
        },
        {
          "internalType": "address",
          "name": "_treasury",
          "type": "address"
        }
      ],
      "stateMutability": "nonpayable",
      "type": "constructor"
    },
    {
      "inputs": [
        {
          "internalType": "address",
          "name": "owner",
          "type": "address"
        }
      ],
      "name": "OwnableInvalidOwner",
      "type": "error"
    },
    {
      "inputs": [
        {
          "internalType": "address",
          "name": "account",
          "type": "address"
        }
      ],
      "name": "OwnableUnauthorizedAccount",
      "type": "error"
    },
    {
      "anonymous": false,
      "inputs": [
        {
          "indexed": true,
          "internalType": "address",
          "name": "previousOwner",
          "type": "address"
        },
        {
          "indexed": true,
          "internalType": "address",
          "name": "newOwner",
          "type": "address"
        }
      ],
      "name": "OwnershipTransferred",
      "type": "event"
    },
    {
      "anonymous": false,
      "inputs": [
        {
          "indexed": true,
          "internalType": "uint256",
          "name": "proposalId",
          "type": "uint256"
        }
      ],
      "name": "ProposalCanceled",
      "type": "event"
    },
    {
      "anonymous": false,
      "inputs": [
        {
          "indexed": true,
          "internalType": "uint256",
          "name": "proposalId",
          "type": "uint256"
        },
        {
          "indexed": true,
          "internalType": "address",
          "name": "proposer",
          "type": "address"
        },
        {
          "indexed": false,
          "internalType": "string",
          "name": "description",
          "type": "string"
        }
      ],
      "name": "ProposalCreated",
      "type": "event"
    },
    {
      "anonymous": false,
      "inputs": [
        {
          "indexed": true,
          "internalType": "uint256",
          "name": "proposalId",
          "type": "uint256"
        }
      ],
      "name": "ProposalExecuted",
      "type": "event"
    },
    {
      "anonymous": false,
      "inputs": [
        {
          "indexed": true,
          "internalType": "address",
          "name": "target",
          "type": "address"
        },
        {
          "indexed": false,
          "internalType": "bool",
          "name": "authorized",
          "type": "bool"
        }
      ],
      "name": "TargetAuthorized",
      "type": "event"
    },
    {
      "anonymous": false,
      "inputs": [
        {
          "indexed": true,
          "internalType": "address",
          "name": "newTreasury",
          "type": "address"
        }
      ],
      "name": "TreasuryUpdated",
      "type": "event"
    },
    {
      "anonymous": false,
      "inputs": [
        {
          "indexed": true,
          "internalType": "uint256",
          "name": "proposalId",
          "type": "uint256"
        },
        {
          "indexed": true,
          "internalType": "address",
          "name": "voter",
          "type": "address"
        },
        {
          "indexed": false,
          "internalType": "bool",
          "name": "support",
          "type": "bool"
        },
        {
          "indexed": false,
          "internalType": "uint256",
          "name": "weight",
          "type": "uint256"
        }
      ],
      "name": "VoteCast",
      "type": "event"
    },
    {
      "inputs": [
        {
          "internalType": "address",
          "name": "",
          "type": "address"
        }
      ],
      "name": "authorizedTargets",
      "outputs": [
        {
          "internalType": "bool",
          "name": "",
          "type": "bool"
        }
      ],
      "stateMutability": "view",
      "type": "function"
    },
    {
      "inputs": [
        {
          "internalType": "uint256",
          "name": "proposalId",
          "type": "uint256"
        }
      ],
      "name": "cancel",
      "outputs": [],
      "stateMutability": "nonpayable",
      "type": "function"
    },
    {
      "inputs": [
        {
          "internalType": "uint256",
          "name": "proposalId",
          "type": "uint256"
        },
        {
          "internalType": "bool",
          "name": "support",
          "type": "bool"
        }
      ],
      "name": "castVote",
      "outputs": [],
      "stateMutability": "nonpayable",
      "type": "function"
    },
    {
      "inputs": [
        {
          "internalType": "uint256",
          "name": "proposalId",
          "type": "uint256"
        },
        {
          "internalType": "address",
          "name": "target",
          "type": "address"
        },
        {
          "internalType": "bytes",
          "name": "data",
          "type": "bytes"
        }
      ],
      "name": "execute",
      "outputs": [],
      "stateMutability": "nonpayable",
      "type": "function"
    },
    {
      "inputs": [
        {
          "internalType": "uint256",
          "name": "proposalId",
          "type": "uint256"
        }
      ],
      "name": "getProposalState",
      "outputs": [
        {
          "internalType": "enum AutonetDAO.ProposalState",
          "name": "",
          "type": "uint8"
        }
      ],
      "stateMutability": "view",
      "type": "function"
    },
    {
      "inputs": [
        {
          "internalType": "uint256",
          "name": "",
          "type": "uint256"
        },
        {
          "internalType": "address",
          "name": "",
          "type": "address"
        }
      ],
      "name": "hasVoted",
      "outputs": [
        {
          "internalType": "bool",
          "name": "",
          "type": "bool"
        }
      ],
      "stateMutability": "view",
      "type": "function"
    },
    {
      "inputs": [],
      "name": "nextProposalId",
      "outputs": [
        {
          "internalType": "uint256",
          "name": "",
          "type": "uint256"
        }
      ],
      "stateMutability": "view",
      "type": "function"
    },
    {
      "inputs": [],
      "name": "owner",
      "outputs": [
        {
          "internalType": "address",
          "name": "",
          "type": "address"
        }
      ],
      "stateMutability": "view",
      "type": "function"
    },
    {
      "inputs": [],
      "name": "proposalThreshold",
      "outputs": [
        {
          "internalType": "uint256",
          "name": "",
          "type": "uint256"
        }
      ],
      "stateMutability": "view",
      "type": "function"
    },
    {
      "inputs": [
        {
          "internalType": "uint256",
          "name": "",
          "type": "uint256"
        }
      ],
      "name": "proposals",
      "outputs": [
        {
          "internalType": "uint256",
          "name": "id",
          "type": "uint256"
        },
        {
          "internalType": "address",
          "name": "proposer",
          "type": "address"
        },
        {
          "internalType": "string",
          "name": "description",
          "type": "string"
        },
        {
          "internalType": "uint256",
          "name": "startBlock",
          "type": "uint256"
        },
        {
          "internalType": "uint256",
          "name": "endBlock",
          "type": "uint256"
        },
        {
          "internalType": "uint256",
          "name": "forVotes",
          "type": "uint256"
        },
        {
          "internalType": "uint256",
          "name": "againstVotes",
          "type": "uint256"
        },
        {
          "internalType": "bool",
          "name": "executed",
          "type": "bool"
        },
        {
          "internalType": "bool",
          "name": "canceled",
          "type": "bool"
        },
        {
          "internalType": "bytes32",
          "name": "calldataHash",
          "type": "bytes32"
        }
      ],
      "stateMutability": "view",
      "type": "function"
    },
    {
      "inputs": [
        {
          "internalType": "string",
          "name": "description",
          "type": "string"
        },
        {
          "internalType": "bytes32",
          "name": "calldataHash",
          "type": "bytes32"
        }
      ],
      "name": "propose",
      "outputs": [
        {
          "internalType": "uint256",
          "name": "",
          "type": "uint256"
        }
      ],
      "stateMutability": "nonpayable",
      "type": "function"
    },
    {
      "inputs": [],
      "name": "quorumVotes",
      "outputs": [
        {
          "internalType": "uint256",
          "name": "",
          "type": "uint256"
        }
      ],
      "stateMutability": "view",
      "type": "function"
    },
    {
      "inputs": [],
      "name": "renounceOwnership",
      "outputs": [],
      "stateMutability": "nonpayable",
      "type": "function"
    },
    {
      "inputs": [
        {
          "internalType": "address",
          "name": "_target",
          "type": "address"
        },
        {
          "internalType": "bool",
          "name": "_authorized",
          "type": "bool"
        }
      ],
      "name": "setAuthorizedTarget",
      "outputs": [],
      "stateMutability": "nonpayable",
      "type": "function"
    },
    {
      "inputs": [
        {
          "internalType": "address",
          "name": "_treasury",
          "type": "address"
        }
      ],
      "name": "setTreasury",
      "outputs": [],
      "stateMutability": "nonpayable",
      "type": "function"
    },
    {
      "inputs": [
        {
          "internalType": "address",
          "name": "newOwner",
          "type": "address"
        }
      ],
      "name": "transferOwnership",
      "outputs": [],
      "stateMutability": "nonpayable",
      "type": "function"
    },
    {
      "inputs": [],
      "name": "treasury",
      "outputs": [
        {
          "internalType": "address",
          "name": "",
          "type": "address"
        }
      ],
      "stateMutability": "view",
      "type": "function"
    },
    {
      "inputs": [],
      "name": "votingDelay",
      "outputs": [
        {
          "internalType": "uint256",
          "name": "",
          "type": "uint256"
        }
      ],
      "stateMutability": "view",
      "type": "function"
    },
    {
      "inputs": [],
      "name": "votingPeriod",
      "outputs": [
        {
          "internalType": "uint256",
          "name": "",
          "type": "uint256"
        }
      ],
      "stateMutability": "view",
      "type": "function"
    },
    {
      "inputs": [],
      "name": "votingToken",
      "outputs": [
        {
          "internalType": "contract IVotes",
          "name": "",
          "type": "address"
        }
      ],
      "stateMutability": "view",
      "type": "function"
    }
  ],
  "bytecode": "0x60803461011057601f61138f38819003918201601f19168301916001600160401b0383118484101761011557808492604094855283398101031261011057610052602061004b8361012b565b920161012b565b33156100f75760008054336001600160a01b0319808316821784556040519590946001600160a01b03949093859391908416907f8be0079c531659141344cd1fd0a4f28419497f9722a3daafe3b4186f6b6457e09080a3683635c9adc5dea000006003556201518060045562093a8060055569152d02c7e14af68000006006556001600755168360015416176001551690600254161760025561124f90816101408239f35b604051631e4fbdf760e01b815260006004820152602490fd5b600080fd5b634e487b7160e01b600052604160045260246000fd5b51906001600160a01b03821682036101105756fe608080604052600436101561001357600080fd5b60003560e01c908163013cf08b14610e755750806302a251a314610e575780631376e70a14610e1857806315373e3d14610be357806324bc1a6414610bc55780632ab09d1414610ba75780633932abb114610b8957806340e58ee514610abf5780634385963214610a7257806361d027b314610a49578063710a9f6814610781578063715018a6146107285780637b9a60e1146103285780638da5cb5b146102ff5780639080936f146102ba578063a3b416621461023c578063b034012314610213578063b58131b0146101f5578063f0f442601461018e5763f2fde38b146100fb57600080fd5b3461018957602036600319011261018957610114611061565b61011c6110ca565b6001600160a01b0390811690811561017057600054826bffffffffffffffffffffffff60a01b821617600055167f8be0079c531659141344cd1fd0a4f28419497f9722a3daafe3b4186f6b6457e0600080a3005b604051631e4fbdf760e01b815260006004820152602490fd5b600080fd5b34610189576020366003190112610189576101a7611061565b6101af6110ca565b600280546001600160a01b0319166001600160a01b039290921691821790557f7dae230f18360d76a040c81f050aa14eb9d6dc7901b20fc5d855e2a20fe814d1600080a2005b34610189576000366003190112610189576020600354604051908152f35b34610189576000366003190112610189576001546040516001600160a01b039091168152602090f35b3461018957604036600319011261018957610255611061565b7f6a75e0c2f7e9216b992f6c439fb16cdc3d8225374612f948e9aadd8f23713632602061028061108d565b926102896110ca565b6001600160a01b03166000818152600a835260409020805460ff191660ff86151516179055926040519015158152a2005b34610189576020366003190112610189576102d6600435611195565b60405160088210156102e9576020918152f35b634e487b7160e01b600052602160045260246000fd5b34610189576000366003190112610189576000546040516001600160a01b039091168152602090f35b346101895760403660031901126101895760043567ffffffffffffffff81116101895761035990369060040161109c565b6001546040516309ab24eb60e41b815233600482015290602090829060249082906001600160a01b03165afa90811561071c576000916106ea575b50600354116106b35760075490600019821461069d57600182016007556103c0600c60045404436110f6565b6103cf600c60055404826110f6565b60405191610140830183811067ffffffffffffffff8211176106875760405284835233602084015261040236858861111f565b604084015260608301526080820152600060a0820152600060c0820152600060e082015260006101008201526024356101208201528260005260086020526040600020815181556001810160018060a01b036020840151166bffffffffffffffffffffffff60a01b82541617905560408201519182519267ffffffffffffffff8411610687576104956002840154611005565b601f8111610640575b50916020969186938890601f87116001146105a65791867f7585f467599d0f008985f231af99293be388626ac16ca59505c2f8f88969cd6396976101209360089560009261059b575b50508160011b916000199060031b1c19161760028501555b606081015160038501556080810151600485015560a0810151600585015560c081015160068501556007840161054760e08301511515829060ff801983541691151516179055565b610100820151151561ff00825491861b169061ff00191617905501519101558360405191878352818884015260408301376000604085830101526040813395601f80199101168101030190a3604051908152f35b015190508c806104e7565b959060028401600052896000209660005b601f19841681106106265750827f7585f467599d0f008985f231af99293be388626ac16ca59505c2f8f88969cd6397986008959360019361012096601f1981161061060d575b505050811b0160028501556104ff565b015160001960f88460031b161c191690558c80806105fd565b8282015189556001909801978a9750918b01918b016105b7565b600284016000526020600020601f860160051c810160208710610680575b601f830160051c8201811061067457505061049e565b6000815560010161065e565b508061065e565b634e487b7160e01b600052604160045260246000fd5b634e487b7160e01b600052601160045260246000fd5b60405162461bcd60e51b815260206004820152600f60248201526e10995b1bddc81d1a1c995cda1bdb19608a1b6044820152606490fd5b90506020813d602011610714575b816107056020938361103f565b81010312610189575183610394565b3d91506106f8565b6040513d6000823e3d90fd5b34610189576000366003190112610189576107416110ca565b600080546001600160a01b0319811682556001600160a01b03167f8be0079c531659141344cd1fd0a4f28419497f9722a3daafe3b4186f6b6457e08280a3005b346101895760603660031901126101895760043561079d611077565b6044803567ffffffffffffffff8111610189576107be90369060040161109c565b846000949294526020936008855260406000206004810154431115610a125760078101908154906107f260ff831615611156565b60ff8260081c166109e357600581015460068201548111156109b2576006541161097957600861082336878761111f565b89815191012091015403610941576001600160a01b0385166000908152600a8852604090205460ff16156109055760ff19166001179055604051600093849390928491839181908337810182815203925af13d15610900573d61088581611103565b90610893604051928361103f565b81526000843d92013e5b156108ca57827f712ae1383f79ac853f8d882153778e0260ef8f03b504e2866e0593e04d2b291f600080a2005b906f115e1958dd5d1a5bdb8819985a5b195960821b6064926040519262461bcd60e51b8452600484015260106024840152820152fd5b61089d565b60405162461bcd60e51b815260048101889052601560248201527415185c99d95d081b9bdd08185d5d1a1bdc9a5e9959605a1b81880152606490fd5b60405162461bcd60e51b8152600481018890526011602482015270086c2d8d8c8c2e8c240dad2e6dac2e8c6d607b1b81880152606490fd5b60405162461bcd60e51b8152600481018990526012602482015271145d5bdc9d5b481b9bdd081c995858da195960721b81890152606490fd5b60405162461bcd60e51b8152600481018a9052600a602482015269139bdd081c185cdcd95960b21b818a0152606490fd5b60405162461bcd60e51b815260048101899052600860248201526710d85b98d95b195960c21b81890152606490fd5b60405162461bcd60e51b815260048101879052601060248201526f159bdd1a5b99c81b9bdd08195b99195960821b81870152606490fd5b34610189576000366003190112610189576002546040516001600160a01b039091168152602090f35b3461018957604036600319011261018957610a8b611077565b600435600052600960205260406000209060018060a01b0316600052602052602060ff604060002054166040519015158152f35b346101895760203660031901126101895760043560008181526008602052604090206001810154336001600160a01b0391821614908115610b7b575b5015610b45576007016101008154610b1660ff821615611156565b61ff0019161790557f789cf55be980739dad1d0699b93b58e806b51c9d96619bfa8fe0a28abaa7b30c600080a2005b60405162461bcd60e51b815260206004820152600e60248201526d139bdd08185d5d1a1bdc9a5e995960921b6044820152606490fd5b905060005416331483610afb565b34610189576000366003190112610189576020600454604051908152f35b34610189576000366003190112610189576020600754604051908152f35b34610189576000366003190112610189576020600654604051908152f35b3461018957604036600319011261018957600435610bff61108d565b9080600052602060088152604060002090600382015491824310610dde5760048101544311610daa578360005260098252604060002033600052825260ff60406000205416610d7557600154604051630748d63560e31b815233600482015260248101949094528290849060449082906001600160a01b03165afa92831561071c57600093610d46575b508215610d0f57600084815260098352604080822033835284529020805460ff191660011790558415610cfa57600501610cc48382546110f6565b90555b60405193151584528301527fcbdf6214089cba887ecbf35a0b6a734589959c9763342c756bb2a80ca2bc9f6e60403393a3005b600601610d088382546110f6565b9055610cc7565b60405162461bcd60e51b815260048101839052600f60248201526e2737903b37ba34b733903837bbb2b960891b6044820152606490fd5b9092508181813d8311610d6e575b610d5e818361103f565b8101031261018957519185610c89565b503d610d54565b60405162461bcd60e51b815260048101839052600d60248201526c105b1c9958591e481d9bdd1959609a1b6044820152606490fd5b60405162461bcd60e51b815260048101839052600c60248201526b159bdd1a5b99c8195b99195960a21b6044820152606490fd5b60405162461bcd60e51b8152600481018390526012602482015271159bdd1a5b99c81b9bdd081cdd185c9d195960721b6044820152606490fd5b34610189576020366003190112610189576001600160a01b03610e39611061565b16600052600a602052602060ff604060002054166040519015158152f35b34610189576000366003190112610189576020600554604051908152f35b3461018957602080600319360112610189576004356000526008815260406000209182549260019060018060a01b03828201541691836002830191600090835493610ebf85611005565b94858552898382169182600014610fe3575050600114610fa4575b5050610eee9250969396959295038461103f565b60038401549360048101549060058101546006820154906008600784015493015493604051998a97885286880152610140958660408901528851809789015260005b878110610f8a57505060ff94959697506101609860008a898b0101526060890152608088015260a087015260c0860152818116151560e086015260081c161515610100840152610120830152601f80199101168101030190f35b808a0182015198810161016001989098528a978101610f30565b88925060005281600020906000915b858310610fcb575050610eee93508201018880610eda565b8054838a018501528894508993909201918101610fb3565b9250935050610eee94915060ff191682840152151560051b8201018880610eda565b90600182811c92168015611035575b602083101461101f57565b634e487b7160e01b600052602260045260246000fd5b91607f1691611014565b90601f8019910116810190811067ffffffffffffffff82111761068757604052565b600435906001600160a01b038216820361018957565b602435906001600160a01b038216820361018957565b60243590811515820361018957565b9181601f840112156101895782359167ffffffffffffffff8311610189576020838186019501011161018957565b6000546001600160a01b031633036110de57565b60405163118cdaa760e01b8152336004820152602490fd5b9190820180921161069d57565b67ffffffffffffffff811161068757601f01601f191660200190565b92919261112b82611103565b91611139604051938461103f565b829481845281830111610189578281602093846000960137010152565b1561115d57565b60405162461bcd60e51b815260206004820152601060248201526f105b1c9958591e48195e1958dd5d195960821b6044820152606490fd5b60005260086020526040600020600781015460ff8160081c166112125760ff1661120c576003810154431061120657600481015443111561120057600660058201549101548111908115916111f4575b506111ef57600490565b600390565b905060065411386111e5565b50600190565b50600090565b50600790565b505060029056fea26469706673582212205152875e699555820a5f0b4f5ad57a9eb5fd60dfbf803fbbace6dafd02976d4064736f6c63430008140033",
  "linkReferences": {},
  "deployedLinkReferences": {}
}